{"contracts/core/PunctualityCore.sol":{"PunctualityCore":{"abi":[{"inputs":[],"stateMutability":"nonpayable","type":"constructor"},{"anonymous":false,"inputs":[{"indexed":true,"internalType":"bytes32","name":"commitmentId","type":"bytes32"},{"indexed":true,"internalType":"address","name":"bettor","type":"address"},{"indexed":false,"internalType":"uint256","name":"betAmount","type":"uint256"},{"indexed":false,"internalType":"bool","name":"bettingFor","type":"bool"}],"name":"BetPlaced","type":"event"},{"anonymous":false,"inputs":[{"indexed":true,"internalType":"bytes32","name":"commitmentId","type":"bytes32"},{"indexed":true,"internalType":"address","name":"user","type":"address"},{"indexed":false,"internalType":"uint256","name":"stakeAmount","type":"uint256"},{"indexed":false,"internalType":"uint256","name":"arrivalDeadline","type":"uint256"},{"components":[{"internalType":"int256","name":"latitude","type":"int256"},{"internalType":"int256","name":"longitude","type":"int256"},{"internalType":"uint256","name":"accuracy","type":"uint256"},{"internalType":"uint256","name":"timestamp","type":"uint256"}],"indexed":false,"internalType":"struct IPunctualityProtocol.LocationData","name":"startLocation","type":"tuple"},{"components":[{"internalType":"int256","name":"latitude","type":"int256"},{"internalType":"int256","name":"longitude","type":"int256"},{"internalType":"uint256","name":"accuracy","type":"uint256"},{"internalType":"uint256","name":"timestamp","type":"uint256"}],"indexed":false,"internalType":"struct IPunctualityProtocol.LocationData","name":"targetLocation","type":"tuple"}],"name":"CommitmentCreated","type":"event"},{"anonymous":false,"inputs":[{"indexed":true,"internalType":"bytes32","name":"commitmentId","type":"bytes32"},{"indexed":true,"internalType":"address","name":"user","type":"address"},{"indexed":false,"internalType":"bool","name":"successful","type":"bool"},{"indexed":false,"internalType":"uint256","name":"actualArrivalTime","type":"uint256"},{"indexed":false,"internalType":"uint256","name":"rewardAmount","type":"uint256"}],"name":"CommitmentFulfilled","type":"event"},{"anonymous":false,"inputs":[{"indexed":true,"internalType":"address","name":"deployer","type":"address"},{"indexed":false,"internalType":"uint256","name":"timestamp","type":"uint256"}],"name":"ContractDeployed","type":"event"},{"inputs":[],"name":"LOCATION_TOLERANCE","outputs":[{"internalType":"uint256","name":"","type":"uint256"}],"stateMutability":"view","type":"function"},{"inputs":[],"name":"REPUTATION_BASE","outputs":[{"internalType":"uint256","name":"","type":"uint256"}],"stateMutability":"view","type":"function"},{"inputs":[],"name":"REPUTATION_MAX","outputs":[{"internalType":"uint256","name":"","type":"uint256"}],"stateMutability":"view","type":"function"},{"inputs":[],"name":"REPUTATION_MIN","outputs":[{"internalType":"uint256","name":"","type":"uint256"}],"stateMutability":"view","type":"function"},{"inputs":[{"internalType":"bytes32","name":"","type":"bytes32"},{"internalType":"address","name":"","type":"address"}],"name":"betsPlaced","outputs":[{"internalType":"bool","name":"","type":"bool"}],"stateMutability":"view","type":"function"},{"inputs":[{"internalType":"int256","name":"lat1","type":"int256"},{"internalType":"int256","name":"lon1","type":"int256"},{"internalType":"int256","name":"lat2","type":"int256"},{"internalType":"int256","name":"lon2","type":"int256"}],"name":"calculateDistance","outputs":[{"internalType":"uint256","name":"","type":"uint256"}],"stateMutability":"pure","type":"function"},{"inputs":[{"internalType":"uint256","name":"distance","type":"uint256"},{"internalType":"uint256","name":"pace","type":"uint256"}],"name":"calculateETA","outputs":[{"internalType":"uint256","name":"","type":"uint256"}],"stateMutability":"pure","type":"function"},{"inputs":[{"internalType":"bytes32","name":"","type":"bytes32"}],"name":"commitments","outputs":[{"internalType":"address","name":"user","type":"address"},{"internalType":"uint256","name":"stakeAmount","type":"uint256"},{"internalType":"uint256","name":"commitmentTime","type":"uint256"},{"internalType":"uint256","name":"arrivalDeadline","type":"uint256"},{"components":[{"internalType":"int256","name":"latitude","type":"int256"},{"internalType":"int256","name":"longitude","type":"int256"},{"internalType":"uint256","name":"accuracy","type":"uint256"},{"internalType":"uint256","name":"timestamp","type":"uint256"}],"internalType":"struct IPunctualityProtocol.LocationData","name":"startLocation","type":"tuple"},{"components":[{"internalType":"int256","name":"latitude","type":"int256"},{"internalType":"int256","name":"longitude","type":"int256"},{"internalType":"uint256","name":"accuracy","type":"uint256"},{"internalType":"uint256","name":"timestamp","type":"uint256"}],"internalType":"struct IPunctualityProtocol.LocationData","name":"targetLocation","type":"tuple"},{"internalType":"uint256","name":"estimatedDistance","type":"uint256"},{"internalType":"uint256","name":"estimatedPace","type":"uint256"},{"internalType":"bool","name":"fulfilled","type":"bool"},{"internalType":"bool","name":"successful","type":"bool"},{"internalType":"uint256","name":"actualArrivalTime","type":"uint256"},{"internalType":"uint256","name":"totalBetsFor","type":"uint256"},{"internalType":"uint256","name":"totalBetsAgainst","type":"uint256"}],"stateMutability":"view","type":"function"},{"inputs":[{"components":[{"internalType":"int256","name":"latitude","type":"int256"},{"internalType":"int256","name":"longitude","type":"int256"},{"internalType":"uint256","name":"accuracy","type":"uint256"},{"internalType":"uint256","name":"timestamp","type":"uint256"}],"internalType":"struct IPunctualityProtocol.LocationData","name":"startLocation","type":"tuple"},{"components":[{"internalType":"int256","name":"latitude","type":"int256"},{"internalType":"int256","name":"longitude","type":"int256"},{"internalType":"uint256","name":"accuracy","type":"uint256"},{"internalType":"uint256","name":"timestamp","type":"uint256"}],"internalType":"struct IPunctualityProtocol.LocationData","name":"targetLocation","type":"tuple"},{"internalType":"uint256","name":"arrivalDeadline","type":"uint256"},{"internalType":"uint256","name":"estimatedPace","type":"uint256"}],"name":"createCommitment","outputs":[{"internalType":"bytes32","name":"","type":"bytes32"}],"stateMutability":"payable","type":"function"},{"inputs":[{"internalType":"bytes32","name":"commitmentId","type":"bytes32"},{"components":[{"internalType":"int256","name":"latitude","type":"int256"},{"internalType":"int256","name":"longitude","type":"int256"},{"internalType":"uint256","name":"accuracy","type":"uint256"},{"internalType":"uint256","name":"timestamp","type":"uint256"}],"internalType":"struct IPunctualityProtocol.LocationData","name":"arrivalLocation","type":"tuple"}],"name":"fulfillCommitment","outputs":[],"stateMutability":"nonpayable","type":"function"},{"inputs":[{"internalType":"bytes32","name":"commitmentId","type":"bytes32"}],"name":"getCommitment","outputs":[{"components":[{"internalType":"address","name":"user","type":"address"},{"internalType":"uint256","name":"stakeAmount","type":"uint256"},{"internalType":"uint256","name":"commitmentTime","type":"uint256"},{"internalType":"uint256","name":"arrivalDeadline","type":"uint256"},{"components":[{"internalType":"int256","name":"latitude","type":"int256"},{"internalType":"int256","name":"longitude","type":"int256"},{"internalType":"uint256","name":"accuracy","type":"uint256"},{"internalType":"uint256","name":"timestamp","type":"uint256"}],"internalType":"struct IPunctualityProtocol.LocationData","name":"startLocation","type":"tuple"},{"components":[{"internalType":"int256","name":"latitude","type":"int256"},{"internalType":"int256","name":"longitude","type":"int256"},{"internalType":"uint256","name":"accuracy","type":"uint256"},{"internalType":"uint256","name":"timestamp","type":"uint256"}],"internalType":"struct IPunctualityProtocol.LocationData","name":"targetLocation","type":"tuple"},{"internalType":"uint256","name":"estimatedDistance","type":"uint256"},{"internalType":"uint256","name":"estimatedPace","type":"uint256"},{"internalType":"bool","name":"fulfilled","type":"bool"},{"internalType":"bool","name":"successful","type":"bool"},{"internalType":"uint256","name":"actualArrivalTime","type":"uint256"},{"internalType":"uint256","name":"totalBetsFor","type":"uint256"},{"internalType":"uint256","name":"totalBetsAgainst","type":"uint256"}],"internalType":"struct IPunctualityProtocol.ETACommitment","name":"","type":"tuple"}],"stateMutability":"view","type":"function"},{"inputs":[{"internalType":"address","name":"user","type":"address"}],"name":"getUserReputation","outputs":[{"internalType":"uint256","name":"","type":"uint256"}],"stateMutability":"view","type":"function"},{"inputs":[],"name":"owner","outputs":[{"internalType":"address","name":"","type":"address"}],"stateMutability":"view","type":"function"},{"inputs":[{"internalType":"bytes32","name":"commitmentId","type":"bytes32"},{"internalType":"bool","name":"bettingFor","type":"bool"}],"name":"placeBet","outputs":[],"stateMutability":"payable","type":"function"},{"inputs":[{"internalType":"address","name":"newOwner","type":"address"}],"name":"transferOwnership","outputs":[],"stateMutability":"nonpayable","type":"function"},{"inputs":[{"internalType":"address","name":"","type":"address"}],"name":"userReputations","outputs":[{"internalType":"uint256","name":"","type":"uint256"}],"stateMutability":"view","type":"function"}],"evm":{"bytecode":{"linkReferences":{},"object":"608060405234801561001057600080fd5b50600380546001600160a01b03191633908117909155600081815260016020526040908190206113889055517f836641082a104c21a747f2896a189cda6d34502edf7de2f98afc4460d0720bfa9061006b9042815260200190565b60405180910390a26116b0806100826000396000f3fe6080604052600436106100f35760003560e01c80638da5cb5b1161008a578063cab7a45d11610059578063cab7a45d1461040d578063f2fde38b1461042d578063f64b2de41461044d578063f8b116911461046357600080fd5b80638da5cb5b1461039c578063b162c6e6146103c4578063baccbfdb146103d7578063c809232b146103f757600080fd5b8063581ac32d116100c6578063581ac32d1461019f5780637795820c146101c15780637fde3761146101ee578063839df9451461020357600080fd5b8063045db685146100f85780631271852514610121578063192aa9cf1461014157806352f6149814610154575b600080fd5b34801561010457600080fd5b5061010e6103e881565b6040519081526020015b60405180910390f35b34801561012d57600080fd5b5061010e61013c366004611204565b610490565b61010e61014f3660046112aa565b6104f2565b34801561016057600080fd5b5061018f61016f36600461130d565b600260209081526000928352604080842090915290825290205460ff1681565b6040519015158152602001610118565b3480156101ab57600080fd5b506101bf6101ba366004611339565b61085f565b005b3480156101cd57600080fd5b506101e16101dc36600461135d565b610c01565b6040516101189190611376565b3480156101fa57600080fd5b5061010e606481565b34801561020f57600080fd5b506102e861021e36600461135d565b600060208181529181526040908190208054600182015460028301546003840154855160808082018852600487015482526005870154828a015260068701548289015260078701546060808401919091528851918201895260088801548252600988015499820199909952600a87015497810197909752600b86015497870197909752600c850154600d860154600e870154600f88015460108901546011909901546001600160a01b039098169a9699959894979394929360ff808416946101009094041692908d565b604080516001600160a01b03909e168e526020808f019d909d528d81019b909b526060808e019a909a52885160808e01528b89015160a08e0152888b015160c08e01529789015160e08d015286516101008d0152998601516101208c0152978501516101408b015295909301516101608901526101808801919091526101a087015215156101c08601529015156101e085015261020084019190915261022083019190915261024082015261026001610118565b3480156103a857600080fd5b506003546040516001600160a01b039091168152602001610118565b6101bf6103d2366004611471565b610d15565b3480156103e357600080fd5b5061010e6103f23660046114a6565b610ff9565b34801561040357600080fd5b5061010e61271081565b34801561041957600080fd5b5061010e6104283660046114c1565b611029565b34801561043957600080fd5b506101bf6104483660046114a6565b61103c565b34801561045957600080fd5b5061010e61138881565b34801561046f57600080fd5b5061010e61047e3660046114a6565b60016020526000908152604090205481565b60008061049d86856114f9565b905060006104ab86856114f9565b905060006104b98380611520565b905060006104c78380611520565b905060006104d58284611550565b90506104e4620f42408261158e565b9a9950505050505050505050565b60008034116105545760405162461bcd60e51b815260206004820152602360248201527f5374616b6520616d6f756e74206d75737420626520677265617465722074686160448201526206e20360ec1b60648201526084015b60405180910390fd5b4283116105a35760405162461bcd60e51b815260206004820152601e60248201527f446561646c696e65206d75737420626520696e20746865206675747572650000604482015260640161054b565b600082116106015760405162461bcd60e51b815260206004820152602560248201527f457374696d617465642070616365206d75737420626520677265617465722074604482015264068616e20360dc1b606482015260840161054b565b6040516bffffffffffffffffffffffff193360601b16602082015242603482015244605482015260009060740160405160208183030381529060405280519060200120905060006106648760000151886020015188600001518960200151610490565b9050604051806101a00160405280336001600160a01b031681526020013481526020014281526020018681526020018881526020018781526020018281526020018581526020016000151581526020016000151581526020016000815260200160008152602001600081525060008084815260200190815260200160002060008201518160000160006101000a8154816001600160a01b0302191690836001600160a01b0316021790555060208201518160010155604082015181600201556060820151816003015560808201518160040160008201518160000155602082015181600101556040820151816002015560608201518160030155505060a08201518160080160008201518160000155602082015181600101556040820151816002015560608201518160030155505060c082015181600c015560e082015181600d015561010082015181600e0160006101000a81548160ff02191690831515021790555061012082015181600e0160016101000a81548160ff02191690831515021790555061014082015181600f015561016082015181601001556101808201518160110155905050336001600160a01b0316827f2ab4d5a74b3917397a7ab399780894f3915d63c66fa75d64882ba219fea5610034888b8b60405161084d94939291906115bc565b60405180910390a35095945050505050565b600082815260208190526040902080546001600160a01b03166108c05760405162461bcd60e51b815260206004820152601960248201527810dbdb5b5a5d1b595b9d08191bd95cc81b9bdd08195e1a5cdd603a1b604482015260640161054b565b600e81015460ff16156109155760405162461bcd60e51b815260206004820152601c60248201527f436f6d6d69746d656e7420616c72656164792066756c66696c6c656400000000604482015260640161054b565b80546001600160a01b0316331461097a5760405162461bcd60e51b815260206004820152602360248201527f4f6e6c7920636f6d6d69746d656e742063726561746f722063616e2066756c666044820152621a5b1b60ea1b606482015260840161054b565b600e8101805460ff1916600117905542600f8201819055600382015483516020850151600885015460098601549390941115936000936109bc93929190610490565b905060648111158280156109cd5750805b600e8501805461ff0019166101009215158302179081905560009160ff91041615610a9f57506001840154601185015415610a14576011850154610a119082611629565b90505b84546040516001600160a01b039091169082156108fc029083906000818181858888f19350505050158015610a4d573d6000803e3d6000fd5b5084546001600160a01b0316600090815260016020526040902054610a809061271090610a7b906064611629565b611118565b85546001600160a01b0316600090815260016020526040902055610b9a565b60008560100154118015610ab7575060008560110154115b15610b4c57600085601001548660010154610ad29190611629565b9050600086601101548760100154610aea9190611629565b828860110154610afa919061163c565b610b049190611653565b6003549091506001600160a01b03166108fc610b208385611667565b6040518115909202916000818181858888f19350505050158015610b48573d6000803e3d6000fd5b5050505b84546001600160a01b0316600090815260016020526040902054610b7f906103e890610b7a90606490611667565b61112e565b85546001600160a01b03166000908152600160205260409020555b8454600e8601546040805161010090920460ff161515825242602083015281018390526001600160a01b039091169088907f70ca586fcb861ba47586fa95a762bf13c4e13aee7699711ac3d3adb0ef7673f99060600160405180910390a350505050505050565b610c0961113d565b506000908152602081815260409182902082516101a08101845281546001600160a01b03168152600182015481840152600282015481850152600382015460608083019190915284516080818101875260048501548252600585015482870152600685015482880152600785015482840152808401919091528551908101865260088401548152600984015494810194909452600a83015494840194909452600b8201549383019390935260a0830191909152600c81015460c0830152600d81015460e0830152600e81015460ff808216151561010080860191909152909104161515610120830152600f81015461014083015260108101546101608301526011015461018082015290565b600082815260208190526040902080546001600160a01b0316610d765760405162461bcd60e51b815260206004820152601960248201527810dbdb5b5a5d1b595b9d08191bd95cc81b9bdd08195e1a5cdd603a1b604482015260640161054b565b600e81015460ff1615610dcb5760405162461bcd60e51b815260206004820152601c60248201527f436f6d6d69746d656e7420616c72656164792066756c66696c6c656400000000604482015260640161054b565b80600301544210610e1e5760405162461bcd60e51b815260206004820152601a60248201527f436f6d6d69746d656e7420646561646c696e6520706173736564000000000000604482015260640161054b565b60003411610e785760405162461bcd60e51b815260206004820152602160248201527f42657420616d6f756e74206d7573742062652067726561746572207468616e206044820152600360fc1b606482015260840161054b565b80546001600160a01b03163303610edb5760405162461bcd60e51b815260206004820152602160248201527f43616e6e6f7420626574206f6e20796f7572206f776e20636f6d6d69746d656e6044820152601d60fa1b606482015260840161054b565b600083815260026020908152604080832033845290915290205460ff1615610f535760405162461bcd60e51b815260206004820152602560248201527f416c726561647920706c6163656420626574206f6e207468697320636f6d6d696044820152641d1b595b9d60da1b606482015260840161054b565b60008381526002602090815260408083203384529091529020805460ff191660011790558115610f9c5734816010016000828254610f919190611629565b90915550610fb69050565b34816011016000828254610fb09190611629565b90915550505b604080513481528315156020820152339185917fd16174e715659dbd1a7c4b7325dc4def5852b62256790341072d1bd59758849c910160405180910390a3505050565b6001600160a01b038116600090815260016020526040812054808203611023575061138892915050565b92915050565b6000611035828461163c565b9392505050565b6003546001600160a01b031633146110a05760405162461bcd60e51b815260206004820152602160248201527f4f6e6c79206f776e65722063616e2063616c6c20746869732066756e6374696f6044820152603760f91b606482015260840161054b565b6001600160a01b0381166110f65760405162461bcd60e51b815260206004820152601d60248201527f4e6577206f776e657220697320746865207a65726f2061646472657373000000604482015260640161054b565b600380546001600160a01b0319166001600160a01b0392909216919091179055565b60008183106111275781611035565b5090919050565b60008183116111275781611035565b604051806101a0016040528060006001600160a01b031681526020016000815260200160008152602001600081526020016111996040518060800160405280600081526020016000815260200160008152602001600081525090565b81526020016111c96040518060800160405280600081526020016000815260200160008152602001600081525090565b815260200160008152602001600081526020016000151581526020016000151581526020016000815260200160008152602001600081525090565b6000806000806080858703121561121a57600080fd5b5050823594602084013594506040840135936060013592509050565b60006080828403121561124857600080fd5b6040516080810181811067ffffffffffffffff8211171561127957634e487b7160e01b600052604160045260246000fd5b8060405250809150823581526020830135602082015260408301356040820152606083013560608201525092915050565b60008060008061014085870312156112c157600080fd5b6112cb8686611236565b93506112da8660808701611236565b939693955050505061010082013591610120013590565b80356001600160a01b038116811461130857600080fd5b919050565b6000806040838503121561132057600080fd5b82359150611330602084016112f1565b90509250929050565b60008060a0838503121561134c57600080fd5b823591506113308460208501611236565b60006020828403121561136f57600080fd5b5035919050565b81516001600160a01b03168152610260810160208301516020830152604083015160408301526060830151606083015260808301516113d96080840182805182526020810151602083015260408101516040830152606081015160608301525050565b5060a083015180516101008481019190915260208201516101208501526040820151610140850152606082015161016085015260c08501516101808581019190915260e08601516101a0860152818601518015156101c087015292506101208601518015156101e087015292506101408601516102008601526101608601516102208601528086015161024086015250505092915050565b6000806040838503121561148457600080fd5b823591506020830135801515811461149b57600080fd5b809150509250929050565b6000602082840312156114b857600080fd5b611035826112f1565b600080604083850312156114d457600080fd5b50508035926020909101359150565b634e487b7160e01b600052601160045260246000fd5b8181036000831280158383131683831282161715611519576115196114e3565b5092915050565b80820260008212600160ff1b8414161561153c5761153c6114e3565b8181058314821517611023576110236114e3565b8082018281126000831280158216821582161715611570576115706114e3565b505092915050565b634e487b7160e01b600052601260045260246000fd5b60008261159d5761159d611578565b600160ff1b8214600019841416156115b7576115b76114e3565b500590565b8481526020810184905261014081016115f96040830185805182526020810151602083015260408101516040830152606081015160608301525050565b825160c0830152602083015160e08301526040830151610100830152606083015161012083015295945050505050565b80820180821115611023576110236114e3565b8082028115828204841417611023576110236114e3565b60008261166257611662611578565b500490565b81810381811115611023576110236114e356fea26469706673582212205b697ba008e07b6583dce8ca6419a72f62f2896b40780b47f0ca4af5fb55b28164736f6c63430008160033","opcodes":"PUSH1 0x80 PUSH1 0x40 MSTORE CALLVALUE DUP1 ISZERO PUSH2 0x10 JUMPI PUSH1 0x0 DUP1 REVERT JUMPDEST POP PUSH1 0x3 DUP1 SLOAD PUSH1 0x1 PUSH1 0x1 PUSH1 0xA0 SHL SUB NOT AND CALLER SWAP1 DUP2 OR SWAP1 SWAP2 SSTORE PUSH1 0x0 DUP2 DUP2 MSTORE PUSH1 0x1 PUSH1 0x20 MSTORE PUSH1 0x40 SWAP1 DUP2 SWAP1 KECCAK256 PUSH2 0x1388 SWAP1 SSTORE MLOAD PUSH32 0x836641082A104C21A747F2896A189CDA6D34502EDF7DE2F98AFC4460D0720BFA SWAP1 PUSH2 0x6B SWAP1 TIMESTAMP DUP2 MSTORE PUSH1 0x20 ADD SWAP1 JUMP JUMPDEST PUSH1 0x40 MLOAD DUP1 SWAP2 SUB SWAP1 LOG2 PUSH2 0x16B0 DUP1 PUSH2 0x82 PUSH1 0x0 CODECOPY PUSH1 0x0 RETURN INVALID PUSH1 0x80 PUSH1 0x40 MSTORE PUSH1 0x4 CALLDATASIZE LT PUSH2 0xF3 JUMPI PUSH1 0x0 CALLDATALOAD PUSH1 0xE0 SHR DUP1 PUSH4 0x8DA5CB5B GT PUSH2 0x8A JUMPI DUP1 PUSH4 0xCAB7A45D GT PUSH2 0x59 JUMPI DUP1 PUSH4 0xCAB7A45D EQ PUSH2 0x40D JUMPI DUP1 PUSH4 0xF2FDE38B EQ PUSH2 0x42D JUMPI DUP1 PUSH4 0xF64B2DE4 EQ PUSH2 0x44D JUMPI DUP1 PUSH4 0xF8B11691 EQ PUSH2 0x463 JUMPI PUSH1 0x0 DUP1 REVERT JUMPDEST DUP1 PUSH4 0x8DA5CB5B EQ PUSH2 0x39C JUMPI DUP1 PUSH4 0xB162C6E6 EQ PUSH2 0x3C4 JUMPI DUP1 PUSH4 0xBACCBFDB EQ PUSH2 0x3D7 JUMPI DUP1 PUSH4 0xC809232B EQ PUSH2 0x3F7 JUMPI PUSH1 0x0 DUP1 REVERT JUMPDEST DUP1 PUSH4 0x581AC32D GT PUSH2 0xC6 JUMPI DUP1 PUSH4 0x581AC32D EQ PUSH2 0x19F JUMPI DUP1 PUSH4 0x7795820C EQ PUSH2 0x1C1 JUMPI DUP1 PUSH4 0x7FDE3761 EQ PUSH2 0x1EE JUMPI DUP1 PUSH4 0x839DF945 EQ PUSH2 0x203 JUMPI PUSH1 0x0 DUP1 REVERT JUMPDEST DUP1 PUSH4 0x45DB685 EQ PUSH2 0xF8 JUMPI DUP1 PUSH4 0x12718525 EQ PUSH2 0x121 JUMPI DUP1 PUSH4 0x192AA9CF EQ PUSH2 0x141 JUMPI DUP1 PUSH4 0x52F61498 EQ PUSH2 0x154 JUMPI JUMPDEST PUSH1 0x0 DUP1 REVERT JUMPDEST CALLVALUE DUP1 ISZERO PUSH2 0x104 JUMPI PUSH1 0x0 DUP1 REVERT JUMPDEST POP PUSH2 0x10E PUSH2 0x3E8 DUP2 JUMP JUMPDEST PUSH1 0x40 MLOAD SWAP1 DUP2 MSTORE PUSH1 0x20 ADD JUMPDEST PUSH1 0x40 MLOAD DUP1 SWAP2 SUB SWAP1 RETURN JUMPDEST CALLVALUE DUP1 ISZERO PUSH2 0x12D JUMPI PUSH1 0x0 DUP1 REVERT JUMPDEST POP PUSH2 0x10E PUSH2 0x13C CALLDATASIZE PUSH1 0x4 PUSH2 0x1204 JUMP JUMPDEST PUSH2 0x490 JUMP JUMPDEST PUSH2 0x10E PUSH2 0x14F CALLDATASIZE PUSH1 0x4 PUSH2 0x12AA JUMP JUMPDEST PUSH2 0x4F2 JUMP JUMPDEST CALLVALUE DUP1 ISZERO PUSH2 0x160 JUMPI PUSH1 0x0 DUP1 REVERT JUMPDEST POP PUSH2 0x18F PUSH2 0x16F CALLDATASIZE PUSH1 0x4 PUSH2 0x130D JUMP JUMPDEST PUSH1 0x2 PUSH1 0x20 SWAP1 DUP2 MSTORE PUSH1 0x0 SWAP3 DUP4 MSTORE PUSH1 0x40 DUP1 DUP5 KECCAK256 SWAP1 SWAP2 MSTORE SWAP1 DUP3 MSTORE SWAP1 KECCAK256 SLOAD PUSH1 0xFF AND DUP2 JUMP JUMPDEST PUSH1 0x40 MLOAD SWAP1 ISZERO ISZERO DUP2 MSTORE PUSH1 0x20 ADD PUSH2 0x118 JUMP JUMPDEST CALLVALUE DUP1 ISZERO PUSH2 0x1AB JUMPI PUSH1 0x0 DUP1 REVERT JUMPDEST POP PUSH2 0x1BF PUSH2 0x1BA CALLDATASIZE PUSH1 0x4 PUSH2 0x1339 JUMP JUMPDEST PUSH2 0x85F JUMP JUMPDEST STOP JUMPDEST CALLVALUE DUP1 ISZERO PUSH2 0x1CD JUMPI PUSH1 0x0 DUP1 REVERT JUMPDEST POP PUSH2 0x1E1 PUSH2 0x1DC CALLDATASIZE PUSH1 0x4 PUSH2 0x135D JUMP JUMPDEST PUSH2 0xC01 JUMP JUMPDEST PUSH1 0x40 MLOAD PUSH2 0x118 SWAP2 SWAP1 PUSH2 0x1376 JUMP JUMPDEST CALLVALUE DUP1 ISZERO PUSH2 0x1FA JUMPI PUSH1 0x0 DUP1 REVERT JUMPDEST POP PUSH2 0x10E PUSH1 0x64 DUP2 JUMP JUMPDEST CALLVALUE DUP1 ISZERO PUSH2 0x20F JUMPI PUSH1 0x0 DUP1 REVERT JUMPDEST POP PUSH2 0x2E8 PUSH2 0x21E CALLDATASIZE PUSH1 0x4 PUSH2 0x135D JUMP JUMPDEST PUSH1 0x0 PUSH1 0x20 DUP2 DUP2 MSTORE SWAP2 DUP2 MSTORE PUSH1 0x40 SWAP1 DUP2 SWAP1 KECCAK256 DUP1 SLOAD PUSH1 0x1 DUP3 ADD SLOAD PUSH1 0x2 DUP4 ADD SLOAD PUSH1 0x3 DUP5 ADD SLOAD DUP6 MLOAD PUSH1 0x80 DUP1 DUP3 ADD DUP9 MSTORE PUSH1 0x4 DUP8 ADD SLOAD DUP3 MSTORE PUSH1 0x5 DUP8 ADD SLOAD DUP3 DUP11 ADD MSTORE PUSH1 0x6 DUP8 ADD SLOAD DUP3 DUP10 ADD MSTORE PUSH1 0x7 DUP8 ADD SLOAD PUSH1 0x60 DUP1 DUP5 ADD SWAP2 SWAP1 SWAP2 MSTORE DUP9 MLOAD SWAP2 DUP3 ADD DUP10 MSTORE PUSH1 0x8 DUP9 ADD SLOAD DUP3 MSTORE PUSH1 0x9 DUP9 ADD SLOAD SWAP10 DUP3 ADD SWAP10 SWAP1 SWAP10 MSTORE PUSH1 0xA DUP8 ADD SLOAD SWAP8 DUP2 ADD SWAP8 SWAP1 SWAP8 MSTORE PUSH1 0xB DUP7 ADD SLOAD SWAP8 DUP8 ADD SWAP8 SWAP1 SWAP8 MSTORE PUSH1 0xC DUP6 ADD SLOAD PUSH1 0xD DUP7 ADD SLOAD PUSH1 0xE DUP8 ADD SLOAD PUSH1 0xF DUP9 ADD SLOAD PUSH1 0x10 DUP10 ADD SLOAD PUSH1 0x11 SWAP1 SWAP10 ADD SLOAD PUSH1 0x1 PUSH1 0x1 PUSH1 0xA0 SHL SUB SWAP1 SWAP9 AND SWAP11 SWAP7 SWAP10 SWAP6 SWAP9 SWAP5 SWAP8 SWAP4 SWAP5 SWAP3 SWAP4 PUSH1 0xFF DUP1 DUP5 AND SWAP5 PUSH2 0x100 SWAP1 SWAP5 DIV AND SWAP3 SWAP1 DUP14 JUMP JUMPDEST PUSH1 0x40 DUP1 MLOAD PUSH1 0x1 PUSH1 0x1 PUSH1 0xA0 SHL SUB SWAP1 SWAP15 AND DUP15 MSTORE PUSH1 0x20 DUP1 DUP16 ADD SWAP14 SWAP1 SWAP14 MSTORE DUP14 DUP2 ADD SWAP12 SWAP1 SWAP12 MSTORE PUSH1 0x60 DUP1 DUP15 ADD SWAP11 SWAP1 SWAP11 MSTORE DUP9 MLOAD PUSH1 0x80 DUP15 ADD MSTORE DUP12 DUP10 ADD MLOAD PUSH1 0xA0 DUP15 ADD MSTORE DUP9 DUP12 ADD MLOAD PUSH1 0xC0 DUP15 ADD MSTORE SWAP8 DUP10 ADD MLOAD PUSH1 0xE0 DUP14 ADD MSTORE DUP7 MLOAD PUSH2 0x100 DUP14 ADD MSTORE SWAP10 DUP7 ADD MLOAD PUSH2 0x120 DUP13 ADD MSTORE SWAP8 DUP6 ADD MLOAD PUSH2 0x140 DUP12 ADD MSTORE SWAP6 SWAP1 SWAP4 ADD MLOAD PUSH2 0x160 DUP10 ADD MSTORE PUSH2 0x180 DUP9 ADD SWAP2 SWAP1 SWAP2 MSTORE PUSH2 0x1A0 DUP8 ADD MSTORE ISZERO ISZERO PUSH2 0x1C0 DUP7 ADD MSTORE SWAP1 ISZERO ISZERO PUSH2 0x1E0 DUP6 ADD MSTORE PUSH2 0x200 DUP5 ADD SWAP2 SWAP1 SWAP2 MSTORE PUSH2 0x220 DUP4 ADD SWAP2 SWAP1 SWAP2 MSTORE PUSH2 0x240 DUP3 ADD MSTORE PUSH2 0x260 ADD PUSH2 0x118 JUMP JUMPDEST CALLVALUE DUP1 ISZERO PUSH2 0x3A8 JUMPI PUSH1 0x0 DUP1 REVERT JUMPDEST POP PUSH1 0x3 SLOAD PUSH1 0x40 MLOAD PUSH1 0x1 PUSH1 0x1 PUSH1 0xA0 SHL SUB SWAP1 SWAP2 AND DUP2 MSTORE PUSH1 0x20 ADD PUSH2 0x118 JUMP JUMPDEST PUSH2 0x1BF PUSH2 0x3D2 CALLDATASIZE PUSH1 0x4 PUSH2 0x1471 JUMP JUMPDEST PUSH2 0xD15 JUMP JUMPDEST CALLVALUE DUP1 ISZERO PUSH2 0x3E3 JUMPI PUSH1 0x0 DUP1 REVERT JUMPDEST POP PUSH2 0x10E PUSH2 0x3F2 CALLDATASIZE PUSH1 0x4 PUSH2 0x14A6 JUMP JUMPDEST PUSH2 0xFF9 JUMP JUMPDEST CALLVALUE DUP1 ISZERO PUSH2 0x403 JUMPI PUSH1 0x0 DUP1 REVERT JUMPDEST POP PUSH2 0x10E PUSH2 0x2710 DUP2 JUMP JUMPDEST CALLVALUE DUP1 ISZERO PUSH2 0x419 JUMPI PUSH1 0x0 DUP1 REVERT JUMPDEST POP PUSH2 0x10E PUSH2 0x428 CALLDATASIZE PUSH1 0x4 PUSH2 0x14C1 JUMP JUMPDEST PUSH2 0x1029 JUMP JUMPDEST CALLVALUE DUP1 ISZERO PUSH2 0x439 JUMPI PUSH1 0x0 DUP1 REVERT JUMPDEST POP PUSH2 0x1BF PUSH2 0x448 CALLDATASIZE PUSH1 0x4 PUSH2 0x14A6 JUMP JUMPDEST PUSH2 0x103C JUMP JUMPDEST CALLVALUE DUP1 ISZERO PUSH2 0x459 JUMPI PUSH1 0x0 DUP1 REVERT JUMPDEST POP PUSH2 0x10E PUSH2 0x1388 DUP2 JUMP JUMPDEST CALLVALUE DUP1 ISZERO PUSH2 0x46F JUMPI PUSH1 0x0 DUP1 REVERT JUMPDEST POP PUSH2 0x10E PUSH2 0x47E CALLDATASIZE PUSH1 0x4 PUSH2 0x14A6 JUMP JUMPDEST PUSH1 0x1 PUSH1 0x20 MSTORE PUSH1 0x0 SWAP1 DUP2 MSTORE PUSH1 0x40 SWAP1 KECCAK256 SLOAD DUP2 JUMP JUMPDEST PUSH1 0x0 DUP1 PUSH2 0x49D DUP7 DUP6 PUSH2 0x14F9 JUMP JUMPDEST SWAP1 POP PUSH1 0x0 PUSH2 0x4AB DUP7 DUP6 PUSH2 0x14F9 JUMP JUMPDEST SWAP1 POP PUSH1 0x0 PUSH2 0x4B9 DUP4 DUP1 PUSH2 0x1520 JUMP JUMPDEST SWAP1 POP PUSH1 0x0 PUSH2 0x4C7 DUP4 DUP1 PUSH2 0x1520 JUMP JUMPDEST SWAP1 POP PUSH1 0x0 PUSH2 0x4D5 DUP3 DUP5 PUSH2 0x1550 JUMP JUMPDEST SWAP1 POP PUSH2 0x4E4 PUSH3 0xF4240 DUP3 PUSH2 0x158E JUMP JUMPDEST SWAP11 SWAP10 POP POP POP POP POP POP POP POP POP POP JUMP JUMPDEST PUSH1 0x0 DUP1 CALLVALUE GT PUSH2 0x554 JUMPI PUSH1 0x40 MLOAD PUSH3 0x461BCD PUSH1 0xE5 SHL DUP2 MSTORE PUSH1 0x20 PUSH1 0x4 DUP3 ADD MSTORE PUSH1 0x23 PUSH1 0x24 DUP3 ADD MSTORE PUSH32 0x5374616B6520616D6F756E74206D757374206265206772656174657220746861 PUSH1 0x44 DUP3 ADD MSTORE PUSH3 0x6E203 PUSH1 0xEC SHL PUSH1 0x64 DUP3 ADD MSTORE PUSH1 0x84 ADD JUMPDEST PUSH1 0x40 MLOAD DUP1 SWAP2 SUB SWAP1 REVERT JUMPDEST TIMESTAMP DUP4 GT PUSH2 0x5A3 JUMPI PUSH1 0x40 MLOAD PUSH3 0x461BCD PUSH1 0xE5 SHL DUP2 MSTORE PUSH1 0x20 PUSH1 0x4 DUP3 ADD MSTORE PUSH1 0x1E PUSH1 0x24 DUP3 ADD MSTORE PUSH32 0x446561646C696E65206D75737420626520696E20746865206675747572650000 PUSH1 0x44 DUP3 ADD MSTORE PUSH1 0x64 ADD PUSH2 0x54B JUMP JUMPDEST PUSH1 0x0 DUP3 GT PUSH2 0x601 JUMPI PUSH1 0x40 MLOAD PUSH3 0x461BCD PUSH1 0xE5 SHL DUP2 MSTORE PUSH1 0x20 PUSH1 0x4 DUP3 ADD MSTORE PUSH1 0x25 PUSH1 0x24 DUP3 ADD MSTORE PUSH32 0x457374696D617465642070616365206D75737420626520677265617465722074 PUSH1 0x44 DUP3 ADD MSTORE PUSH5 0x68616E203 PUSH1 0xDC SHL PUSH1 0x64 DUP3 ADD MSTORE PUSH1 0x84 ADD PUSH2 0x54B JUMP JUMPDEST PUSH1 0x40 MLOAD PUSH12 0xFFFFFFFFFFFFFFFFFFFFFFFF NOT CALLER PUSH1 0x60 SHL AND PUSH1 0x20 DUP3 ADD MSTORE TIMESTAMP PUSH1 0x34 DUP3 ADD MSTORE PREVRANDAO PUSH1 0x54 DUP3 ADD MSTORE PUSH1 0x0 SWAP1 PUSH1 0x74 ADD PUSH1 0x40 MLOAD PUSH1 0x20 DUP2 DUP4 SUB SUB DUP2 MSTORE SWAP1 PUSH1 0x40 MSTORE DUP1 MLOAD SWAP1 PUSH1 0x20 ADD KECCAK256 SWAP1 POP PUSH1 0x0 PUSH2 0x664 DUP8 PUSH1 0x0 ADD MLOAD DUP9 PUSH1 0x20 ADD MLOAD DUP9 PUSH1 0x0 ADD MLOAD DUP10 PUSH1 0x20 ADD MLOAD PUSH2 0x490 JUMP JUMPDEST SWAP1 POP PUSH1 0x40 MLOAD DUP1 PUSH2 0x1A0 ADD PUSH1 0x40 MSTORE DUP1 CALLER PUSH1 0x1 PUSH1 0x1 PUSH1 0xA0 SHL SUB AND DUP2 MSTORE PUSH1 0x20 ADD CALLVALUE DUP2 MSTORE PUSH1 0x20 ADD TIMESTAMP DUP2 MSTORE PUSH1 0x20 ADD DUP7 DUP2 MSTORE PUSH1 0x20 ADD DUP9 DUP2 MSTORE PUSH1 0x20 ADD DUP8 DUP2 MSTORE PUSH1 0x20 ADD DUP3 DUP2 MSTORE PUSH1 0x20 ADD DUP6 DUP2 MSTORE PUSH1 0x20 ADD PUSH1 0x0 ISZERO ISZERO DUP2 MSTORE PUSH1 0x20 ADD PUSH1 0x0 ISZERO ISZERO DUP2 MSTORE PUSH1 0x20 ADD PUSH1 0x0 DUP2 MSTORE PUSH1 0x20 ADD PUSH1 0x0 DUP2 MSTORE PUSH1 0x20 ADD PUSH1 0x0 DUP2 MSTORE POP PUSH1 0x0 DUP1 DUP5 DUP2 MSTORE PUSH1 0x20 ADD SWAP1 DUP2 MSTORE PUSH1 0x20 ADD PUSH1 0x0 KECCAK256 PUSH1 0x0 DUP3 ADD MLOAD DUP2 PUSH1 0x0 ADD PUSH1 0x0 PUSH2 0x100 EXP DUP2 SLOAD DUP2 PUSH1 0x1 PUSH1 0x1 PUSH1 0xA0 SHL SUB MUL NOT AND SWAP1 DUP4 PUSH1 0x1 PUSH1 0x1 PUSH1 0xA0 SHL SUB AND MUL OR SWAP1 SSTORE POP PUSH1 0x20 DUP3 ADD MLOAD DUP2 PUSH1 0x1 ADD SSTORE PUSH1 0x40 DUP3 ADD MLOAD DUP2 PUSH1 0x2 ADD SSTORE PUSH1 0x60 DUP3 ADD MLOAD DUP2 PUSH1 0x3 ADD SSTORE PUSH1 0x80 DUP3 ADD MLOAD DUP2 PUSH1 0x4 ADD PUSH1 0x0 DUP3 ADD MLOAD DUP2 PUSH1 0x0 ADD SSTORE PUSH1 0x20 DUP3 ADD MLOAD DUP2 PUSH1 0x1 ADD SSTORE PUSH1 0x40 DUP3 ADD MLOAD DUP2 PUSH1 0x2 ADD SSTORE PUSH1 0x60 DUP3 ADD MLOAD DUP2 PUSH1 0x3 ADD SSTORE POP POP PUSH1 0xA0 DUP3 ADD MLOAD DUP2 PUSH1 0x8 ADD PUSH1 0x0 DUP3 ADD MLOAD DUP2 PUSH1 0x0 ADD SSTORE PUSH1 0x20 DUP3 ADD MLOAD DUP2 PUSH1 0x1 ADD SSTORE PUSH1 0x40 DUP3 ADD MLOAD DUP2 PUSH1 0x2 ADD SSTORE PUSH1 0x60 DUP3 ADD MLOAD DUP2 PUSH1 0x3 ADD SSTORE POP POP PUSH1 0xC0 DUP3 ADD MLOAD DUP2 PUSH1 0xC ADD SSTORE PUSH1 0xE0 DUP3 ADD MLOAD DUP2 PUSH1 0xD ADD SSTORE PUSH2 0x100 DUP3 ADD MLOAD DUP2 PUSH1 0xE ADD PUSH1 0x0 PUSH2 0x100 EXP DUP2 SLOAD DUP2 PUSH1 0xFF MUL NOT AND SWAP1 DUP4 ISZERO ISZERO MUL OR SWAP1 SSTORE POP PUSH2 0x120 DUP3 ADD MLOAD DUP2 PUSH1 0xE ADD PUSH1 0x1 PUSH2 0x100 EXP DUP2 SLOAD DUP2 PUSH1 0xFF MUL NOT AND SWAP1 DUP4 ISZERO ISZERO MUL OR SWAP1 SSTORE POP PUSH2 0x140 DUP3 ADD MLOAD DUP2 PUSH1 0xF ADD SSTORE PUSH2 0x160 DUP3 ADD MLOAD DUP2 PUSH1 0x10 ADD SSTORE PUSH2 0x180 DUP3 ADD MLOAD DUP2 PUSH1 0x11 ADD SSTORE SWAP1 POP POP CALLER PUSH1 0x1 PUSH1 0x1 PUSH1 0xA0 SHL SUB AND DUP3 PUSH32 0x2AB4D5A74B3917397A7AB399780894F3915D63C66FA75D64882BA219FEA56100 CALLVALUE DUP9 DUP12 DUP12 PUSH1 0x40 MLOAD PUSH2 0x84D SWAP5 SWAP4 SWAP3 SWAP2 SWAP1 PUSH2 0x15BC JUMP JUMPDEST PUSH1 0x40 MLOAD DUP1 SWAP2 SUB SWAP1 LOG3 POP SWAP6 SWAP5 POP POP POP POP POP JUMP JUMPDEST PUSH1 0x0 DUP3 DUP2 MSTORE PUSH1 0x20 DUP2 SWAP1 MSTORE PUSH1 0x40 SWAP1 KECCAK256 DUP1 SLOAD PUSH1 0x1 PUSH1 0x1 PUSH1 0xA0 SHL SUB AND PUSH2 0x8C0 JUMPI PUSH1 0x40 MLOAD PUSH3 0x461BCD PUSH1 0xE5 SHL DUP2 MSTORE PUSH1 0x20 PUSH1 0x4 DUP3 ADD MSTORE PUSH1 0x19 PUSH1 0x24 DUP3 ADD MSTORE PUSH25 0x10DBDB5B5A5D1B595B9D08191BD95CC81B9BDD08195E1A5CDD PUSH1 0x3A SHL PUSH1 0x44 DUP3 ADD MSTORE PUSH1 0x64 ADD PUSH2 0x54B JUMP JUMPDEST PUSH1 0xE DUP2 ADD SLOAD PUSH1 0xFF AND ISZERO PUSH2 0x915 JUMPI PUSH1 0x40 MLOAD PUSH3 0x461BCD PUSH1 0xE5 SHL DUP2 MSTORE PUSH1 0x20 PUSH1 0x4 DUP3 ADD MSTORE PUSH1 0x1C PUSH1 0x24 DUP3 ADD MSTORE PUSH32 0x436F6D6D69746D656E7420616C72656164792066756C66696C6C656400000000 PUSH1 0x44 DUP3 ADD MSTORE PUSH1 0x64 ADD PUSH2 0x54B JUMP JUMPDEST DUP1 SLOAD PUSH1 0x1 PUSH1 0x1 PUSH1 0xA0 SHL SUB AND CALLER EQ PUSH2 0x97A JUMPI PUSH1 0x40 MLOAD PUSH3 0x461BCD PUSH1 0xE5 SHL DUP2 MSTORE PUSH1 0x20 PUSH1 0x4 DUP3 ADD MSTORE PUSH1 0x23 PUSH1 0x24 DUP3 ADD MSTORE PUSH32 0x4F6E6C7920636F6D6D69746D656E742063726561746F722063616E2066756C66 PUSH1 0x44 DUP3 ADD MSTORE PUSH3 0x1A5B1B PUSH1 0xEA SHL PUSH1 0x64 DUP3 ADD MSTORE PUSH1 0x84 ADD PUSH2 0x54B JUMP JUMPDEST PUSH1 0xE DUP2 ADD DUP1 SLOAD PUSH1 0xFF NOT AND PUSH1 0x1 OR SWAP1 SSTORE TIMESTAMP PUSH1 0xF DUP3 ADD DUP2 SWAP1 SSTORE PUSH1 0x3 DUP3 ADD SLOAD DUP4 MLOAD PUSH1 0x20 DUP6 ADD MLOAD PUSH1 0x8 DUP6 ADD SLOAD PUSH1 0x9 DUP7 ADD SLOAD SWAP4 SWAP1 SWAP5 GT ISZERO SWAP4 PUSH1 0x0 SWAP4 PUSH2 0x9BC SWAP4 SWAP3 SWAP2 SWAP1 PUSH2 0x490 JUMP JUMPDEST SWAP1 POP PUSH1 0x64 DUP2 GT ISZERO DUP3 DUP1 ISZERO PUSH2 0x9CD JUMPI POP DUP1 JUMPDEST PUSH1 0xE DUP6 ADD DUP1 SLOAD PUSH2 0xFF00 NOT AND PUSH2 0x100 SWAP3 ISZERO ISZERO DUP4 MUL OR SWAP1 DUP2 SWAP1 SSTORE PUSH1 0x0 SWAP2 PUSH1 0xFF SWAP2 DIV AND ISZERO PUSH2 0xA9F JUMPI POP PUSH1 0x1 DUP5 ADD SLOAD PUSH1 0x11 DUP6 ADD SLOAD ISZERO PUSH2 0xA14 JUMPI PUSH1 0x11 DUP6 ADD SLOAD PUSH2 0xA11 SWAP1 DUP3 PUSH2 0x1629 JUMP JUMPDEST SWAP1 POP JUMPDEST DUP5 SLOAD PUSH1 0x40 MLOAD PUSH1 0x1 PUSH1 0x1 PUSH1 0xA0 SHL SUB SWAP1 SWAP2 AND SWAP1 DUP3 ISZERO PUSH2 0x8FC MUL SWAP1 DUP4 SWAP1 PUSH1 0x0 DUP2 DUP2 DUP2 DUP6 DUP9 DUP9 CALL SWAP4 POP POP POP POP ISZERO DUP1 ISZERO PUSH2 0xA4D JUMPI RETURNDATASIZE PUSH1 0x0 DUP1 RETURNDATACOPY RETURNDATASIZE PUSH1 0x0 REVERT JUMPDEST POP DUP5 SLOAD PUSH1 0x1 PUSH1 0x1 PUSH1 0xA0 SHL SUB AND PUSH1 0x0 SWAP1 DUP2 MSTORE PUSH1 0x1 PUSH1 0x20 MSTORE PUSH1 0x40 SWAP1 KECCAK256 SLOAD PUSH2 0xA80 SWAP1 PUSH2 0x2710 SWAP1 PUSH2 0xA7B SWAP1 PUSH1 0x64 PUSH2 0x1629 JUMP JUMPDEST PUSH2 0x1118 JUMP JUMPDEST DUP6 SLOAD PUSH1 0x1 PUSH1 0x1 PUSH1 0xA0 SHL SUB AND PUSH1 0x0 SWAP1 DUP2 MSTORE PUSH1 0x1 PUSH1 0x20 MSTORE PUSH1 0x40 SWAP1 KECCAK256 SSTORE PUSH2 0xB9A JUMP JUMPDEST PUSH1 0x0 DUP6 PUSH1 0x10 ADD SLOAD GT DUP1 ISZERO PUSH2 0xAB7 JUMPI POP PUSH1 0x0 DUP6 PUSH1 0x11 ADD SLOAD GT JUMPDEST ISZERO PUSH2 0xB4C JUMPI PUSH1 0x0 DUP6 PUSH1 0x10 ADD SLOAD DUP7 PUSH1 0x1 ADD SLOAD PUSH2 0xAD2 SWAP2 SWAP1 PUSH2 0x1629 JUMP JUMPDEST SWAP1 POP PUSH1 0x0 DUP7 PUSH1 0x11 ADD SLOAD DUP8 PUSH1 0x10 ADD SLOAD PUSH2 0xAEA SWAP2 SWAP1 PUSH2 0x1629 JUMP JUMPDEST DUP3 DUP9 PUSH1 0x11 ADD SLOAD PUSH2 0xAFA SWAP2 SWAP1 PUSH2 0x163C JUMP JUMPDEST PUSH2 0xB04 SWAP2 SWAP1 PUSH2 0x1653 JUMP JUMPDEST PUSH1 0x3 SLOAD SWAP1 SWAP2 POP PUSH1 0x1 PUSH1 0x1 PUSH1 0xA0 SHL SUB AND PUSH2 0x8FC PUSH2 0xB20 DUP4 DUP6 PUSH2 0x1667 JUMP JUMPDEST PUSH1 0x40 MLOAD DUP2 ISZERO SWAP1 SWAP3 MUL SWAP2 PUSH1 0x0 DUP2 DUP2 DUP2 DUP6 DUP9 DUP9 CALL SWAP4 POP POP POP POP ISZERO DUP1 ISZERO PUSH2 0xB48 JUMPI RETURNDATASIZE PUSH1 0x0 DUP1 RETURNDATACOPY RETURNDATASIZE PUSH1 0x0 REVERT JUMPDEST POP POP POP JUMPDEST DUP5 SLOAD PUSH1 0x1 PUSH1 0x1 PUSH1 0xA0 SHL SUB AND PUSH1 0x0 SWAP1 DUP2 MSTORE PUSH1 0x1 PUSH1 0x20 MSTORE PUSH1 0x40 SWAP1 KECCAK256 SLOAD PUSH2 0xB7F SWAP1 PUSH2 0x3E8 SWAP1 PUSH2 0xB7A SWAP1 PUSH1 0x64 SWAP1 PUSH2 0x1667 JUMP JUMPDEST PUSH2 0x112E JUMP JUMPDEST DUP6 SLOAD PUSH1 0x1 PUSH1 0x1 PUSH1 0xA0 SHL SUB AND PUSH1 0x0 SWAP1 DUP2 MSTORE PUSH1 0x1 PUSH1 0x20 MSTORE PUSH1 0x40 SWAP1 KECCAK256 SSTORE JUMPDEST DUP5 SLOAD PUSH1 0xE DUP7 ADD SLOAD PUSH1 0x40 DUP1 MLOAD PUSH2 0x100 SWAP1 SWAP3 DIV PUSH1 0xFF AND ISZERO ISZERO DUP3 MSTORE TIMESTAMP PUSH1 0x20 DUP4 ADD MSTORE DUP2 ADD DUP4 SWAP1 MSTORE PUSH1 0x1 PUSH1 0x1 PUSH1 0xA0 SHL SUB SWAP1 SWAP2 AND SWAP1 DUP9 SWAP1 PUSH32 0x70CA586FCB861BA47586FA95A762BF13C4E13AEE7699711AC3D3ADB0EF7673F9 SWAP1 PUSH1 0x60 ADD PUSH1 0x40 MLOAD DUP1 SWAP2 SUB SWAP1 LOG3 POP POP POP POP POP POP POP JUMP JUMPDEST PUSH2 0xC09 PUSH2 0x113D JUMP JUMPDEST POP PUSH1 0x0 SWAP1 DUP2 MSTORE PUSH1 0x20 DUP2 DUP2 MSTORE PUSH1 0x40 SWAP2 DUP3 SWAP1 KECCAK256 DUP3 MLOAD PUSH2 0x1A0 DUP2 ADD DUP5 MSTORE DUP2 SLOAD PUSH1 0x1 PUSH1 0x1 PUSH1 0xA0 SHL SUB AND DUP2 MSTORE PUSH1 0x1 DUP3 ADD SLOAD DUP2 DUP5 ADD MSTORE PUSH1 0x2 DUP3 ADD SLOAD DUP2 DUP6 ADD MSTORE PUSH1 0x3 DUP3 ADD SLOAD PUSH1 0x60 DUP1 DUP4 ADD SWAP2 SWAP1 SWAP2 MSTORE DUP5 MLOAD PUSH1 0x80 DUP2 DUP2 ADD DUP8 MSTORE PUSH1 0x4 DUP6 ADD SLOAD DUP3 MSTORE PUSH1 0x5 DUP6 ADD SLOAD DUP3 DUP8 ADD MSTORE PUSH1 0x6 DUP6 ADD SLOAD DUP3 DUP9 ADD MSTORE PUSH1 0x7 DUP6 ADD SLOAD DUP3 DUP5 ADD MSTORE DUP1 DUP5 ADD SWAP2 SWAP1 SWAP2 MSTORE DUP6 MLOAD SWAP1 DUP2 ADD DUP7 MSTORE PUSH1 0x8 DUP5 ADD SLOAD DUP2 MSTORE PUSH1 0x9 DUP5 ADD SLOAD SWAP5 DUP2 ADD SWAP5 SWAP1 SWAP5 MSTORE PUSH1 0xA DUP4 ADD SLOAD SWAP5 DUP5 ADD SWAP5 SWAP1 SWAP5 MSTORE PUSH1 0xB DUP3 ADD SLOAD SWAP4 DUP4 ADD SWAP4 SWAP1 SWAP4 MSTORE PUSH1 0xA0 DUP4 ADD SWAP2 SWAP1 SWAP2 MSTORE PUSH1 0xC DUP2 ADD SLOAD PUSH1 0xC0 DUP4 ADD MSTORE PUSH1 0xD DUP2 ADD SLOAD PUSH1 0xE0 DUP4 ADD MSTORE PUSH1 0xE DUP2 ADD SLOAD PUSH1 0xFF DUP1 DUP3 AND ISZERO ISZERO PUSH2 0x100 DUP1 DUP7 ADD SWAP2 SWAP1 SWAP2 MSTORE SWAP1 SWAP2 DIV AND ISZERO ISZERO PUSH2 0x120 DUP4 ADD MSTORE PUSH1 0xF DUP2 ADD SLOAD PUSH2 0x140 DUP4 ADD MSTORE PUSH1 0x10 DUP2 ADD SLOAD PUSH2 0x160 DUP4 ADD MSTORE PUSH1 0x11 ADD SLOAD PUSH2 0x180 DUP3 ADD MSTORE SWAP1 JUMP JUMPDEST PUSH1 0x0 DUP3 DUP2 MSTORE PUSH1 0x20 DUP2 SWAP1 MSTORE PUSH1 0x40 SWAP1 KECCAK256 DUP1 SLOAD PUSH1 0x1 PUSH1 0x1 PUSH1 0xA0 SHL SUB AND PUSH2 0xD76 JUMPI PUSH1 0x40 MLOAD PUSH3 0x461BCD PUSH1 0xE5 SHL DUP2 MSTORE PUSH1 0x20 PUSH1 0x4 DUP3 ADD MSTORE PUSH1 0x19 PUSH1 0x24 DUP3 ADD MSTORE PUSH25 0x10DBDB5B5A5D1B595B9D08191BD95CC81B9BDD08195E1A5CDD PUSH1 0x3A SHL PUSH1 0x44 DUP3 ADD MSTORE PUSH1 0x64 ADD PUSH2 0x54B JUMP JUMPDEST PUSH1 0xE DUP2 ADD SLOAD PUSH1 0xFF AND ISZERO PUSH2 0xDCB JUMPI PUSH1 0x40 MLOAD PUSH3 0x461BCD PUSH1 0xE5 SHL DUP2 MSTORE PUSH1 0x20 PUSH1 0x4 DUP3 ADD MSTORE PUSH1 0x1C PUSH1 0x24 DUP3 ADD MSTORE PUSH32 0x436F6D6D69746D656E7420616C72656164792066756C66696C6C656400000000 PUSH1 0x44 DUP3 ADD MSTORE PUSH1 0x64 ADD PUSH2 0x54B JUMP JUMPDEST DUP1 PUSH1 0x3 ADD SLOAD TIMESTAMP LT PUSH2 0xE1E JUMPI PUSH1 0x40 MLOAD PUSH3 0x461BCD PUSH1 0xE5 SHL DUP2 MSTORE PUSH1 0x20 PUSH1 0x4 DUP3 ADD MSTORE PUSH1 0x1A PUSH1 0x24 DUP3 ADD MSTORE PUSH32 0x436F6D6D69746D656E7420646561646C696E6520706173736564000000000000 PUSH1 0x44 DUP3 ADD MSTORE PUSH1 0x64 ADD PUSH2 0x54B JUMP JUMPDEST PUSH1 0x0 CALLVALUE GT PUSH2 0xE78 JUMPI PUSH1 0x40 MLOAD PUSH3 0x461BCD PUSH1 0xE5 SHL DUP2 MSTORE PUSH1 0x20 PUSH1 0x4 DUP3 ADD MSTORE PUSH1 0x21 PUSH1 0x24 DUP3 ADD MSTORE PUSH32 0x42657420616D6F756E74206D7573742062652067726561746572207468616E20 PUSH1 0x44 DUP3 ADD MSTORE PUSH1 0x3 PUSH1 0xFC SHL PUSH1 0x64 DUP3 ADD MSTORE PUSH1 0x84 ADD PUSH2 0x54B JUMP JUMPDEST DUP1 SLOAD PUSH1 0x1 PUSH1 0x1 PUSH1 0xA0 SHL SUB AND CALLER SUB PUSH2 0xEDB JUMPI PUSH1 0x40 MLOAD PUSH3 0x461BCD PUSH1 0xE5 SHL DUP2 MSTORE PUSH1 0x20 PUSH1 0x4 DUP3 ADD MSTORE PUSH1 0x21 PUSH1 0x24 DUP3 ADD MSTORE PUSH32 0x43616E6E6F7420626574206F6E20796F7572206F776E20636F6D6D69746D656E PUSH1 0x44 DUP3 ADD MSTORE PUSH1 0x1D PUSH1 0xFA SHL PUSH1 0x64 DUP3 ADD MSTORE PUSH1 0x84 ADD PUSH2 0x54B JUMP JUMPDEST PUSH1 0x0 DUP4 DUP2 MSTORE PUSH1 0x2 PUSH1 0x20 SWAP1 DUP2 MSTORE PUSH1 0x40 DUP1 DUP4 KECCAK256 CALLER DUP5 MSTORE SWAP1 SWAP2 MSTORE SWAP1 KECCAK256 SLOAD PUSH1 0xFF AND ISZERO PUSH2 0xF53 JUMPI PUSH1 0x40 MLOAD PUSH3 0x461BCD PUSH1 0xE5 SHL DUP2 MSTORE PUSH1 0x20 PUSH1 0x4 DUP3 ADD MSTORE PUSH1 0x25 PUSH1 0x24 DUP3 ADD MSTORE PUSH32 0x416C726561647920706C6163656420626574206F6E207468697320636F6D6D69 PUSH1 0x44 DUP3 ADD MSTORE PUSH5 0x1D1B595B9D PUSH1 0xDA SHL PUSH1 0x64 DUP3 ADD MSTORE PUSH1 0x84 ADD PUSH2 0x54B JUMP JUMPDEST PUSH1 0x0 DUP4 DUP2 MSTORE PUSH1 0x2 PUSH1 0x20 SWAP1 DUP2 MSTORE PUSH1 0x40 DUP1 DUP4 KECCAK256 CALLER DUP5 MSTORE SWAP1 SWAP2 MSTORE SWAP1 KECCAK256 DUP1 SLOAD PUSH1 0xFF NOT AND PUSH1 0x1 OR SWAP1 SSTORE DUP2 ISZERO PUSH2 0xF9C JUMPI CALLVALUE DUP2 PUSH1 0x10 ADD PUSH1 0x0 DUP3 DUP3 SLOAD PUSH2 0xF91 SWAP2 SWAP1 PUSH2 0x1629 JUMP JUMPDEST SWAP1 SWAP2 SSTORE POP PUSH2 0xFB6 SWAP1 POP JUMP JUMPDEST CALLVALUE DUP2 PUSH1 0x11 ADD PUSH1 0x0 DUP3 DUP3 SLOAD PUSH2 0xFB0 SWAP2 SWAP1 PUSH2 0x1629 JUMP JUMPDEST SWAP1 SWAP2 SSTORE POP POP JUMPDEST PUSH1 0x40 DUP1 MLOAD CALLVALUE DUP2 MSTORE DUP4 ISZERO ISZERO PUSH1 0x20 DUP3 ADD MSTORE CALLER SWAP2 DUP6 SWAP2 PUSH32 0xD16174E715659DBD1A7C4B7325DC4DEF5852B62256790341072D1BD59758849C SWAP2 ADD PUSH1 0x40 MLOAD DUP1 SWAP2 SUB SWAP1 LOG3 POP POP POP JUMP JUMPDEST PUSH1 0x1 PUSH1 0x1 PUSH1 0xA0 SHL SUB DUP2 AND PUSH1 0x0 SWAP1 DUP2 MSTORE PUSH1 0x1 PUSH1 0x20 MSTORE PUSH1 0x40 DUP2 KECCAK256 SLOAD DUP1 DUP3 SUB PUSH2 0x1023 JUMPI POP PUSH2 0x1388 SWAP3 SWAP2 POP POP JUMP JUMPDEST SWAP3 SWAP2 POP POP JUMP JUMPDEST PUSH1 0x0 PUSH2 0x1035 DUP3 DUP5 PUSH2 0x163C JUMP JUMPDEST SWAP4 SWAP3 POP POP POP JUMP JUMPDEST PUSH1 0x3 SLOAD PUSH1 0x1 PUSH1 0x1 PUSH1 0xA0 SHL SUB AND CALLER EQ PUSH2 0x10A0 JUMPI PUSH1 0x40 MLOAD PUSH3 0x461BCD PUSH1 0xE5 SHL DUP2 MSTORE PUSH1 0x20 PUSH1 0x4 DUP3 ADD MSTORE PUSH1 0x21 PUSH1 0x24 DUP3 ADD MSTORE PUSH32 0x4F6E6C79206F776E65722063616E2063616C6C20746869732066756E6374696F PUSH1 0x44 DUP3 ADD MSTORE PUSH1 0x37 PUSH1 0xF9 SHL PUSH1 0x64 DUP3 ADD MSTORE PUSH1 0x84 ADD PUSH2 0x54B JUMP JUMPDEST PUSH1 0x1 PUSH1 0x1 PUSH1 0xA0 SHL SUB DUP2 AND PUSH2 0x10F6 JUMPI PUSH1 0x40 MLOAD PUSH3 0x461BCD PUSH1 0xE5 SHL DUP2 MSTORE PUSH1 0x20 PUSH1 0x4 DUP3 ADD MSTORE PUSH1 0x1D PUSH1 0x24 DUP3 ADD MSTORE PUSH32 0x4E6577206F776E657220697320746865207A65726F2061646472657373000000 PUSH1 0x44 DUP3 ADD MSTORE PUSH1 0x64 ADD PUSH2 0x54B JUMP JUMPDEST PUSH1 0x3 DUP1 SLOAD PUSH1 0x1 PUSH1 0x1 PUSH1 0xA0 SHL SUB NOT AND PUSH1 0x1 PUSH1 0x1 PUSH1 0xA0 SHL SUB SWAP3 SWAP1 SWAP3 AND SWAP2 SWAP1 SWAP2 OR SWAP1 SSTORE JUMP JUMPDEST PUSH1 0x0 DUP2 DUP4 LT PUSH2 0x1127 JUMPI DUP2 PUSH2 0x1035 JUMP JUMPDEST POP SWAP1 SWAP2 SWAP1 POP JUMP JUMPDEST PUSH1 0x0 DUP2 DUP4 GT PUSH2 0x1127 JUMPI DUP2 PUSH2 0x1035 JUMP JUMPDEST PUSH1 0x40 MLOAD DUP1 PUSH2 0x1A0 ADD PUSH1 0x40 MSTORE DUP1 PUSH1 0x0 PUSH1 0x1 PUSH1 0x1 PUSH1 0xA0 SHL SUB AND DUP2 MSTORE PUSH1 0x20 ADD PUSH1 0x0 DUP2 MSTORE PUSH1 0x20 ADD PUSH1 0x0 DUP2 MSTORE PUSH1 0x20 ADD PUSH1 0x0 DUP2 MSTORE PUSH1 0x20 ADD PUSH2 0x1199 PUSH1 0x40 MLOAD DUP1 PUSH1 0x80 ADD PUSH1 0x40 MSTORE DUP1 PUSH1 0x0 DUP2 MSTORE PUSH1 0x20 ADD PUSH1 0x0 DUP2 MSTORE PUSH1 0x20 ADD PUSH1 0x0 DUP2 MSTORE PUSH1 0x20 ADD PUSH1 0x0 DUP2 MSTORE POP SWAP1 JUMP JUMPDEST DUP2 MSTORE PUSH1 0x20 ADD PUSH2 0x11C9 PUSH1 0x40 MLOAD DUP1 PUSH1 0x80 ADD PUSH1 0x40 MSTORE DUP1 PUSH1 0x0 DUP2 MSTORE PUSH1 0x20 ADD PUSH1 0x0 DUP2 MSTORE PUSH1 0x20 ADD PUSH1 0x0 DUP2 MSTORE PUSH1 0x20 ADD PUSH1 0x0 DUP2 MSTORE POP SWAP1 JUMP JUMPDEST DUP2 MSTORE PUSH1 0x20 ADD PUSH1 0x0 DUP2 MSTORE PUSH1 0x20 ADD PUSH1 0x0 DUP2 MSTORE PUSH1 0x20 ADD PUSH1 0x0 ISZERO ISZERO DUP2 MSTORE PUSH1 0x20 ADD PUSH1 0x0 ISZERO ISZERO DUP2 MSTORE PUSH1 0x20 ADD PUSH1 0x0 DUP2 MSTORE PUSH1 0x20 ADD PUSH1 0x0 DUP2 MSTORE PUSH1 0x20 ADD PUSH1 0x0 DUP2 MSTORE POP SWAP1 JUMP JUMPDEST PUSH1 0x0 DUP1 PUSH1 0x0 DUP1 PUSH1 0x80 DUP6 DUP8 SUB SLT ISZERO PUSH2 0x121A JUMPI PUSH1 0x0 DUP1 REVERT JUMPDEST POP POP DUP3 CALLDATALOAD SWAP5 PUSH1 0x20 DUP5 ADD CALLDATALOAD SWAP5 POP PUSH1 0x40 DUP5 ADD CALLDATALOAD SWAP4 PUSH1 0x60 ADD CALLDATALOAD SWAP3 POP SWAP1 POP JUMP JUMPDEST PUSH1 0x0 PUSH1 0x80 DUP3 DUP5 SUB SLT ISZERO PUSH2 0x1248 JUMPI PUSH1 0x0 DUP1 REVERT JUMPDEST PUSH1 0x40 MLOAD PUSH1 0x80 DUP2 ADD DUP2 DUP2 LT PUSH8 0xFFFFFFFFFFFFFFFF DUP3 GT OR ISZERO PUSH2 0x1279 JUMPI PUSH4 0x4E487B71 PUSH1 0xE0 SHL PUSH1 0x0 MSTORE PUSH1 0x41 PUSH1 0x4 MSTORE PUSH1 0x24 PUSH1 0x0 REVERT JUMPDEST DUP1 PUSH1 0x40 MSTORE POP DUP1 SWAP2 POP DUP3 CALLDATALOAD DUP2 MSTORE PUSH1 0x20 DUP4 ADD CALLDATALOAD PUSH1 0x20 DUP3 ADD MSTORE PUSH1 0x40 DUP4 ADD CALLDATALOAD PUSH1 0x40 DUP3 ADD MSTORE PUSH1 0x60 DUP4 ADD CALLDATALOAD PUSH1 0x60 DUP3 ADD MSTORE POP SWAP3 SWAP2 POP POP JUMP JUMPDEST PUSH1 0x0 DUP1 PUSH1 0x0 DUP1 PUSH2 0x140 DUP6 DUP8 SUB SLT ISZERO PUSH2 0x12C1 JUMPI PUSH1 0x0 DUP1 REVERT JUMPDEST PUSH2 0x12CB DUP7 DUP7 PUSH2 0x1236 JUMP JUMPDEST SWAP4 POP PUSH2 0x12DA DUP7 PUSH1 0x80 DUP8 ADD PUSH2 0x1236 JUMP JUMPDEST SWAP4 SWAP7 SWAP4 SWAP6 POP POP POP POP PUSH2 0x100 DUP3 ADD CALLDATALOAD SWAP2 PUSH2 0x120 ADD CALLDATALOAD SWAP1 JUMP JUMPDEST DUP1 CALLDATALOAD PUSH1 0x1 PUSH1 0x1 PUSH1 0xA0 SHL SUB DUP2 AND DUP2 EQ PUSH2 0x1308 JUMPI PUSH1 0x0 DUP1 REVERT JUMPDEST SWAP2 SWAP1 POP JUMP JUMPDEST PUSH1 0x0 DUP1 PUSH1 0x40 DUP4 DUP6 SUB SLT ISZERO PUSH2 0x1320 JUMPI PUSH1 0x0 DUP1 REVERT JUMPDEST DUP3 CALLDATALOAD SWAP2 POP PUSH2 0x1330 PUSH1 0x20 DUP5 ADD PUSH2 0x12F1 JUMP JUMPDEST SWAP1 POP SWAP3 POP SWAP3 SWAP1 POP JUMP JUMPDEST PUSH1 0x0 DUP1 PUSH1 0xA0 DUP4 DUP6 SUB SLT ISZERO PUSH2 0x134C JUMPI PUSH1 0x0 DUP1 REVERT JUMPDEST DUP3 CALLDATALOAD SWAP2 POP PUSH2 0x1330 DUP5 PUSH1 0x20 DUP6 ADD PUSH2 0x1236 JUMP JUMPDEST PUSH1 0x0 PUSH1 0x20 DUP3 DUP5 SUB SLT ISZERO PUSH2 0x136F JUMPI PUSH1 0x0 DUP1 REVERT JUMPDEST POP CALLDATALOAD SWAP2 SWAP1 POP JUMP JUMPDEST DUP2 MLOAD PUSH1 0x1 PUSH1 0x1 PUSH1 0xA0 SHL SUB AND DUP2 MSTORE PUSH2 0x260 DUP2 ADD PUSH1 0x20 DUP4 ADD MLOAD PUSH1 0x20 DUP4 ADD MSTORE PUSH1 0x40 DUP4 ADD MLOAD PUSH1 0x40 DUP4 ADD MSTORE PUSH1 0x60 DUP4 ADD MLOAD PUSH1 0x60 DUP4 ADD MSTORE PUSH1 0x80 DUP4 ADD MLOAD PUSH2 0x13D9 PUSH1 0x80 DUP5 ADD DUP3 DUP1 MLOAD DUP3 MSTORE PUSH1 0x20 DUP2 ADD MLOAD PUSH1 0x20 DUP4 ADD MSTORE PUSH1 0x40 DUP2 ADD MLOAD PUSH1 0x40 DUP4 ADD MSTORE PUSH1 0x60 DUP2 ADD MLOAD PUSH1 0x60 DUP4 ADD MSTORE POP POP JUMP JUMPDEST POP PUSH1 0xA0 DUP4 ADD MLOAD DUP1 MLOAD PUSH2 0x100 DUP5 DUP2 ADD SWAP2 SWAP1 SWAP2 MSTORE PUSH1 0x20 DUP3 ADD MLOAD PUSH2 0x120 DUP6 ADD MSTORE PUSH1 0x40 DUP3 ADD MLOAD PUSH2 0x140 DUP6 ADD MSTORE PUSH1 0x60 DUP3 ADD MLOAD PUSH2 0x160 DUP6 ADD MSTORE PUSH1 0xC0 DUP6 ADD MLOAD PUSH2 0x180 DUP6 DUP2 ADD SWAP2 SWAP1 SWAP2 MSTORE PUSH1 0xE0 DUP7 ADD MLOAD PUSH2 0x1A0 DUP7 ADD MSTORE DUP2 DUP7 ADD MLOAD DUP1 ISZERO ISZERO PUSH2 0x1C0 DUP8 ADD MSTORE SWAP3 POP PUSH2 0x120 DUP7 ADD MLOAD DUP1 ISZERO ISZERO PUSH2 0x1E0 DUP8 ADD MSTORE SWAP3 POP PUSH2 0x140 DUP7 ADD MLOAD PUSH2 0x200 DUP7 ADD MSTORE PUSH2 0x160 DUP7 ADD MLOAD PUSH2 0x220 DUP7 ADD MSTORE DUP1 DUP7 ADD MLOAD PUSH2 0x240 DUP7 ADD MSTORE POP POP POP SWAP3 SWAP2 POP POP JUMP JUMPDEST PUSH1 0x0 DUP1 PUSH1 0x40 DUP4 DUP6 SUB SLT ISZERO PUSH2 0x1484 JUMPI PUSH1 0x0 DUP1 REVERT JUMPDEST DUP3 CALLDATALOAD SWAP2 POP PUSH1 0x20 DUP4 ADD CALLDATALOAD DUP1 ISZERO ISZERO DUP2 EQ PUSH2 0x149B JUMPI PUSH1 0x0 DUP1 REVERT JUMPDEST DUP1 SWAP2 POP POP SWAP3 POP SWAP3 SWAP1 POP JUMP JUMPDEST PUSH1 0x0 PUSH1 0x20 DUP3 DUP5 SUB SLT ISZERO PUSH2 0x14B8 JUMPI PUSH1 0x0 DUP1 REVERT JUMPDEST PUSH2 0x1035 DUP3 PUSH2 0x12F1 JUMP JUMPDEST PUSH1 0x0 DUP1 PUSH1 0x40 DUP4 DUP6 SUB SLT ISZERO PUSH2 0x14D4 JUMPI PUSH1 0x0 DUP1 REVERT JUMPDEST POP POP DUP1 CALLDATALOAD SWAP3 PUSH1 0x20 SWAP1 SWAP2 ADD CALLDATALOAD SWAP2 POP JUMP JUMPDEST PUSH4 0x4E487B71 PUSH1 0xE0 SHL PUSH1 0x0 MSTORE PUSH1 0x11 PUSH1 0x4 MSTORE PUSH1 0x24 PUSH1 0x0 REVERT JUMPDEST DUP2 DUP2 SUB PUSH1 0x0 DUP4 SLT DUP1 ISZERO DUP4 DUP4 SGT AND DUP4 DUP4 SLT DUP3 AND OR ISZERO PUSH2 0x1519 JUMPI PUSH2 0x1519 PUSH2 0x14E3 JUMP JUMPDEST POP SWAP3 SWAP2 POP POP JUMP JUMPDEST DUP1 DUP3 MUL PUSH1 0x0 DUP3 SLT PUSH1 0x1 PUSH1 0xFF SHL DUP5 EQ AND ISZERO PUSH2 0x153C JUMPI PUSH2 0x153C PUSH2 0x14E3 JUMP JUMPDEST DUP2 DUP2 SDIV DUP4 EQ DUP3 ISZERO OR PUSH2 0x1023 JUMPI PUSH2 0x1023 PUSH2 0x14E3 JUMP JUMPDEST DUP1 DUP3 ADD DUP3 DUP2 SLT PUSH1 0x0 DUP4 SLT DUP1 ISZERO DUP3 AND DUP3 ISZERO DUP3 AND OR ISZERO PUSH2 0x1570 JUMPI PUSH2 0x1570 PUSH2 0x14E3 JUMP JUMPDEST POP POP SWAP3 SWAP2 POP POP JUMP JUMPDEST PUSH4 0x4E487B71 PUSH1 0xE0 SHL PUSH1 0x0 MSTORE PUSH1 0x12 PUSH1 0x4 MSTORE PUSH1 0x24 PUSH1 0x0 REVERT JUMPDEST PUSH1 0x0 DUP3 PUSH2 0x159D JUMPI PUSH2 0x159D PUSH2 0x1578 JUMP JUMPDEST PUSH1 0x1 PUSH1 0xFF SHL DUP3 EQ PUSH1 0x0 NOT DUP5 EQ AND ISZERO PUSH2 0x15B7 JUMPI PUSH2 0x15B7 PUSH2 0x14E3 JUMP JUMPDEST POP SDIV SWAP1 JUMP JUMPDEST DUP5 DUP2 MSTORE PUSH1 0x20 DUP2 ADD DUP5 SWAP1 MSTORE PUSH2 0x140 DUP2 ADD PUSH2 0x15F9 PUSH1 0x40 DUP4 ADD DUP6 DUP1 MLOAD DUP3 MSTORE PUSH1 0x20 DUP2 ADD MLOAD PUSH1 0x20 DUP4 ADD MSTORE PUSH1 0x40 DUP2 ADD MLOAD PUSH1 0x40 DUP4 ADD MSTORE PUSH1 0x60 DUP2 ADD MLOAD PUSH1 0x60 DUP4 ADD MSTORE POP POP JUMP JUMPDEST DUP3 MLOAD PUSH1 0xC0 DUP4 ADD MSTORE PUSH1 0x20 DUP4 ADD MLOAD PUSH1 0xE0 DUP4 ADD MSTORE PUSH1 0x40 DUP4 ADD MLOAD PUSH2 0x100 DUP4 ADD MSTORE PUSH1 0x60 DUP4 ADD MLOAD PUSH2 0x120 DUP4 ADD MSTORE SWAP6 SWAP5 POP POP POP POP POP JUMP JUMPDEST DUP1 DUP3 ADD DUP1 DUP3 GT ISZERO PUSH2 0x1023 JUMPI PUSH2 0x1023 PUSH2 0x14E3 JUMP JUMPDEST DUP1 DUP3 MUL DUP2 ISZERO DUP3 DUP3 DIV DUP5 EQ OR PUSH2 0x1023 JUMPI PUSH2 0x1023 PUSH2 0x14E3 JUMP JUMPDEST PUSH1 0x0 DUP3 PUSH2 0x1662 JUMPI PUSH2 0x1662 PUSH2 0x1578 JUMP JUMPDEST POP DIV SWAP1 JUMP JUMPDEST DUP2 DUP2 SUB DUP2 DUP2 GT ISZERO PUSH2 0x1023 JUMPI PUSH2 0x1023 PUSH2 0x14E3 JUMP INVALID LOG2 PUSH5 0x6970667358 0x22 SLT KECCAK256 JUMPDEST PUSH10 0x7BA008E07B6583DCE8CA PUSH5 0x19A72F62F2 DUP10 PUSH12 0x40780B47F0CA4AF5FB55B281 PUSH5 0x736F6C6343 STOP ADDMOD AND STOP CALLER "},"methodIdentifiers":{"LOCATION_TOLERANCE()":"7fde3761","REPUTATION_BASE()":"f64b2de4","REPUTATION_MAX()":"c809232b","REPUTATION_MIN()":"045db685","betsPlaced(bytes32,address)":"52f61498","calculateDistance(int256,int256,int256,int256)":"12718525","calculateETA(uint256,uint256)":"cab7a45d","commitments(bytes32)":"839df945","createCommitment((int256,int256,uint256,uint256),(int256,int256,uint256,uint256),uint256,uint256)":"192aa9cf","fulfillCommitment(bytes32,(int256,int256,uint256,uint256))":"581ac32d","getCommitment(bytes32)":"7795820c","getUserReputation(address)":"baccbfdb","owner()":"8da5cb5b","placeBet(bytes32,bool)":"b162c6e6","transferOwnership(address)":"f2fde38b","userReputations(address)":"f8b11691"}}}}}