{"contracts/deploy/PunctualityCore.remix.sol":{"PunctualityCore":{"abi":[{"inputs":[],"stateMutability":"nonpayable","type":"constructor"},{"anonymous":false,"inputs":[{"indexed":true,"internalType":"bytes32","name":"commitmentId","type":"bytes32"},{"indexed":true,"internalType":"address","name":"bettor","type":"address"},{"indexed":false,"internalType":"uint256","name":"betAmount","type":"uint256"},{"indexed":false,"internalType":"bool","name":"bettingFor","type":"bool"}],"name":"BetPlaced","type":"event"},{"anonymous":false,"inputs":[{"indexed":true,"internalType":"bytes32","name":"commitmentId","type":"bytes32"},{"indexed":true,"internalType":"address","name":"user","type":"address"},{"indexed":false,"internalType":"uint256","name":"stakeAmount","type":"uint256"},{"indexed":false,"internalType":"uint256","name":"arrivalDeadline","type":"uint256"},{"components":[{"internalType":"int256","name":"latitude","type":"int256"},{"internalType":"int256","name":"longitude","type":"int256"},{"internalType":"uint256","name":"accuracy","type":"uint256"},{"internalType":"uint256","name":"timestamp","type":"uint256"}],"indexed":false,"internalType":"struct PunctualityCore.LocationData","name":"startLocation","type":"tuple"},{"components":[{"internalType":"int256","name":"latitude","type":"int256"},{"internalType":"int256","name":"longitude","type":"int256"},{"internalType":"uint256","name":"accuracy","type":"uint256"},{"internalType":"uint256","name":"timestamp","type":"uint256"}],"indexed":false,"internalType":"struct PunctualityCore.LocationData","name":"targetLocation","type":"tuple"}],"name":"CommitmentCreated","type":"event"},{"anonymous":false,"inputs":[{"indexed":true,"internalType":"bytes32","name":"commitmentId","type":"bytes32"},{"indexed":true,"internalType":"address","name":"user","type":"address"},{"indexed":false,"internalType":"bool","name":"successful","type":"bool"},{"indexed":false,"internalType":"uint256","name":"actualArrivalTime","type":"uint256"},{"indexed":false,"internalType":"uint256","name":"rewardAmount","type":"uint256"}],"name":"CommitmentFulfilled","type":"event"},{"inputs":[],"name":"EARTH_RADIUS_METERS","outputs":[{"internalType":"uint256","name":"","type":"uint256"}],"stateMutability":"view","type":"function"},{"inputs":[],"name":"INITIAL_REPUTATION","outputs":[{"internalType":"uint256","name":"","type":"uint256"}],"stateMutability":"view","type":"function"},{"inputs":[],"name":"PROTOCOL_FEE","outputs":[{"internalType":"uint256","name":"","type":"uint256"}],"stateMutability":"view","type":"function"},{"inputs":[{"internalType":"int256","name":"lat1","type":"int256"},{"internalType":"int256","name":"lon1","type":"int256"},{"internalType":"int256","name":"lat2","type":"int256"},{"internalType":"int256","name":"lon2","type":"int256"}],"name":"calculateDistance","outputs":[{"internalType":"uint256","name":"","type":"uint256"}],"stateMutability":"pure","type":"function"},{"inputs":[{"internalType":"address","name":"user","type":"address"}],"name":"calculateReputationScore","outputs":[{"internalType":"uint256","name":"","type":"uint256"}],"stateMutability":"view","type":"function"},{"inputs":[{"internalType":"bytes32","name":"","type":"bytes32"},{"internalType":"uint256","name":"","type":"uint256"}],"name":"commitmentBets","outputs":[{"internalType":"address","name":"bettor","type":"address"},{"internalType":"uint256","name":"amount","type":"uint256"},{"internalType":"bool","name":"bettingFor","type":"bool"},{"internalType":"bool","name":"claimed","type":"bool"}],"stateMutability":"view","type":"function"},{"inputs":[{"internalType":"bytes32","name":"","type":"bytes32"}],"name":"commitments","outputs":[{"internalType":"address","name":"user","type":"address"},{"internalType":"uint256","name":"stakeAmount","type":"uint256"},{"internalType":"uint256","name":"commitmentTime","type":"uint256"},{"internalType":"uint256","name":"arrivalDeadline","type":"uint256"},{"components":[{"internalType":"int256","name":"latitude","type":"int256"},{"internalType":"int256","name":"longitude","type":"int256"},{"internalType":"uint256","name":"accuracy","type":"uint256"},{"internalType":"uint256","name":"timestamp","type":"uint256"}],"internalType":"struct PunctualityCore.LocationData","name":"startLocation","type":"tuple"},{"components":[{"internalType":"int256","name":"latitude","type":"int256"},{"internalType":"int256","name":"longitude","type":"int256"},{"internalType":"uint256","name":"accuracy","type":"uint256"},{"internalType":"uint256","name":"timestamp","type":"uint256"}],"internalType":"struct PunctualityCore.LocationData","name":"targetLocation","type":"tuple"},{"internalType":"uint256","name":"estimatedDistance","type":"uint256"},{"internalType":"uint256","name":"estimatedPace","type":"uint256"},{"internalType":"bool","name":"fulfilled","type":"bool"},{"internalType":"bool","name":"successful","type":"bool"},{"internalType":"uint256","name":"actualArrivalTime","type":"uint256"},{"internalType":"uint256","name":"totalBetsFor","type":"uint256"},{"internalType":"uint256","name":"totalBetsAgainst","type":"uint256"}],"stateMutability":"view","type":"function"},{"inputs":[{"components":[{"internalType":"int256","name":"latitude","type":"int256"},{"internalType":"int256","name":"longitude","type":"int256"},{"internalType":"uint256","name":"accuracy","type":"uint256"},{"internalType":"uint256","name":"timestamp","type":"uint256"}],"internalType":"struct PunctualityCore.LocationData","name":"startLocation","type":"tuple"},{"components":[{"internalType":"int256","name":"latitude","type":"int256"},{"internalType":"int256","name":"longitude","type":"int256"},{"internalType":"uint256","name":"accuracy","type":"uint256"},{"internalType":"uint256","name":"timestamp","type":"uint256"}],"internalType":"struct PunctualityCore.LocationData","name":"targetLocation","type":"tuple"},{"internalType":"uint256","name":"arrivalDeadline","type":"uint256"},{"internalType":"uint256","name":"estimatedPace","type":"uint256"}],"name":"createCommitment","outputs":[{"internalType":"bytes32","name":"","type":"bytes32"}],"stateMutability":"payable","type":"function"},{"inputs":[{"internalType":"bytes32","name":"commitmentId","type":"bytes32"},{"components":[{"internalType":"int256","name":"latitude","type":"int256"},{"internalType":"int256","name":"longitude","type":"int256"},{"internalType":"uint256","name":"accuracy","type":"uint256"},{"internalType":"uint256","name":"timestamp","type":"uint256"}],"internalType":"struct PunctualityCore.LocationData","name":"arrivalLocation","type":"tuple"}],"name":"fulfillCommitment","outputs":[],"stateMutability":"nonpayable","type":"function"},{"inputs":[{"internalType":"bytes32","name":"commitmentId","type":"bytes32"}],"name":"getCommitment","outputs":[{"components":[{"internalType":"address","name":"user","type":"address"},{"internalType":"uint256","name":"stakeAmount","type":"uint256"},{"internalType":"uint256","name":"commitmentTime","type":"uint256"},{"internalType":"uint256","name":"arrivalDeadline","type":"uint256"},{"components":[{"internalType":"int256","name":"latitude","type":"int256"},{"internalType":"int256","name":"longitude","type":"int256"},{"internalType":"uint256","name":"accuracy","type":"uint256"},{"internalType":"uint256","name":"timestamp","type":"uint256"}],"internalType":"struct PunctualityCore.LocationData","name":"startLocation","type":"tuple"},{"components":[{"internalType":"int256","name":"latitude","type":"int256"},{"internalType":"int256","name":"longitude","type":"int256"},{"internalType":"uint256","name":"accuracy","type":"uint256"},{"internalType":"uint256","name":"timestamp","type":"uint256"}],"internalType":"struct PunctualityCore.LocationData","name":"targetLocation","type":"tuple"},{"internalType":"uint256","name":"estimatedDistance","type":"uint256"},{"internalType":"uint256","name":"estimatedPace","type":"uint256"},{"internalType":"bool","name":"fulfilled","type":"bool"},{"internalType":"bool","name":"successful","type":"bool"},{"internalType":"uint256","name":"actualArrivalTime","type":"uint256"},{"internalType":"uint256","name":"totalBetsFor","type":"uint256"},{"internalType":"uint256","name":"totalBetsAgainst","type":"uint256"}],"internalType":"struct PunctualityCore.ETACommitment","name":"","type":"tuple"}],"stateMutability":"view","type":"function"},{"inputs":[{"internalType":"address","name":"user","type":"address"}],"name":"getUserReputation","outputs":[{"internalType":"uint256","name":"","type":"uint256"}],"stateMutability":"view","type":"function"},{"inputs":[],"name":"owner","outputs":[{"internalType":"address","name":"","type":"address"}],"stateMutability":"view","type":"function"},{"inputs":[{"internalType":"bytes32","name":"commitmentId","type":"bytes32"},{"internalType":"bool","name":"bettingFor","type":"bool"}],"name":"placeBet","outputs":[],"stateMutability":"payable","type":"function"},{"inputs":[],"name":"protocolFeeBalance","outputs":[{"internalType":"uint256","name":"","type":"uint256"}],"stateMutability":"view","type":"function"},{"inputs":[{"internalType":"address","name":"","type":"address"}],"name":"userReputationScore","outputs":[{"internalType":"uint256","name":"","type":"uint256"}],"stateMutability":"view","type":"function"},{"inputs":[{"internalType":"address","name":"","type":"address"}],"name":"userSuccessfulCommitments","outputs":[{"internalType":"uint256","name":"","type":"uint256"}],"stateMutability":"view","type":"function"},{"inputs":[{"internalType":"address","name":"","type":"address"}],"name":"userTotalCommitments","outputs":[{"internalType":"uint256","name":"","type":"uint256"}],"stateMutability":"view","type":"function"},{"inputs":[{"internalType":"address","name":"","type":"address"}],"name":"userTotalStaked","outputs":[{"internalType":"uint256","name":"","type":"uint256"}],"stateMutability":"view","type":"function"},{"inputs":[],"name":"withdrawProtocolFees","outputs":[],"stateMutability":"nonpayable","type":"function"}],"evm":{"bytecode":{"linkReferences":{},"object":"608060405234801561001057600080fd5b50600680546001600160a01b03191633179055611b00806100326000396000f3fe6080604052600436106101145760003560e01c8063839df945116100a0578063b162c6e611610064578063b162c6e6146104a1578063baccbfdb146104b4578063de0c13ca146104d4578063f541d89014610501578063f873eeab1461052e57600080fd5b8063839df9451461023c5780638795cccb146103d55780638da5cb5b146103ea5780639af9338d14610422578063b118174d1461044f57600080fd5b8063192aa9cf116100e7578063192aa9cf14610197578063581ac32d146101aa578063719de1ef146101cc5780637795820c146101f95780637b0572581461022657600080fd5b80630a22d68c146101195780630a8fa825146101425780630b4501fd146101625780631271852514610177575b600080fd5b34801561012557600080fd5b5061012f60075481565b6040519081526020015b60405180910390f35b34801561014e57600080fd5b5061012f61015d36600461164f565b610545565b34801561016e57600080fd5b5061012f60fa81565b34801561018357600080fd5b5061012f61019236600461167f565b6105ee565b61012f6101a5366004611725565b610696565b3480156101b657600080fd5b506101ca6101c536600461176c565b610a77565b005b3480156101d857600080fd5b5061012f6101e736600461164f565b60036020526000908152604090205481565b34801561020557600080fd5b50610219610214366004611799565b610cfb565b60405161013991906117b2565b34801561023257600080fd5b5061012f611d4c81565b34801561024857600080fd5b50610321610257366004611799565b600060208181529181526040908190208054600182015460028301546003840154855160808082018852600487015482526005870154828a015260068701548289015260078701546060808401919091528851918201895260088801548252600988015499820199909952600a87015497810197909752600b86015497870197909752600c850154600d860154600e870154600f88015460108901546011909901546001600160a01b039098169a9699959894979394929360ff808416946101009094041692908d565b604080516001600160a01b03909e168e526020808f019d909d528d81019b909b526060808e019a909a52885160808e01528b89015160a08e0152888b015160c08e01529789015160e08d015286516101008d0152998601516101208c0152978501516101408b015295909301516101608901526101808801919091526101a087015215156101c08601529015156101e085015261020084019190915261022083019190915261024082015261026001610139565b3480156103e157600080fd5b506101ca610e0f565b3480156103f657600080fd5b5060065461040a906001600160a01b031681565b6040516001600160a01b039091168152602001610139565b34801561042e57600080fd5b5061012f61043d36600461164f565b60056020526000908152604090205481565b34801561045b57600080fd5b5061046f61046a3660046118ad565b610ebd565b604080516001600160a01b03909516855260208501939093529015159183019190915215156060820152608001610139565b6101ca6104af3660046118cf565b610f15565b3480156104c057600080fd5b5061012f6104cf36600461164f565b611230565b3480156104e057600080fd5b5061012f6104ef36600461164f565b60046020526000908152604090205481565b34801561050d57600080fd5b5061012f61051c36600461164f565b60026020526000908152604090205481565b34801561053a57600080fd5b5061012f626136b881565b6001600160a01b03811660009081526005602052604081205480820361056f5750611d4c92915050565b6001600160a01b03831660009081526004602052604081205490826105968361271061191a565b6105a09190611947565b905080600a83106105ba576105b76101f48261195b565b90505b603283106105d1576105ce6101f48261195b565b90505b61271081116105e057806105e4565b6127105b9695505050505050565b600080621b77406105ff878661196e565b61060b90617ab8611995565b61061591906119c5565b90506000621b7740610627878661196e565b61063390617ab8611995565b61063d91906119c5565b90506000620f424061064f8380611995565b6106598580611995565b61066391906119f3565b61066d91906119c5565b9050620f4240610680626136b88361191a565b61068a9190611947565b98975050505050505050565b60008034116106f85760405162461bcd60e51b815260206004820152602360248201527f5374616b6520616d6f756e74206d75737420626520677265617465722074686160448201526206e20360ec1b60648201526084015b60405180910390fd5b4283116107475760405162461bcd60e51b815260206004820152601e60248201527f446561646c696e65206d75737420626520696e2074686520667574757265000060448201526064016106ef565b600082116107975760405162461bcd60e51b815260206004820152601b60248201527f50616365206d7573742062652067726561746572207468616e2030000000000060448201526064016106ef565b60006107b586600001518760200151876000015188602001516105ee565b86516020808901518851898301516040516bffffffffffffffffffffffff193360601b169481019490945242603485015260548401949094526074830191909152609482015260b481019190915290915060009060d401604051602081830303815290604052805190602001209050604051806101a00160405280336001600160a01b031681526020013481526020014281526020018681526020018881526020018781526020018381526020018581526020016000151581526020016000151581526020016000815260200160008152602001600081525060008083815260200190815260200160002060008201518160000160006101000a8154816001600160a01b0302191690836001600160a01b0316021790555060208201518160010155604082015181600201556060820151816003015560808201518160040160008201518160000155602082015181600101556040820151816002015560608201518160030155505060a08201518160080160008201518160000155602082015181600101556040820151816002015560608201518160030155505060c082015181600c015560e082015181600d015561010082015181600e0160006101000a81548160ff02191690831515021790555061012082015181600e0160016101000a81548160ff02191690831515021790555061014082015181600f0155610160820151816010015561018082015181601101559050503460036000336001600160a01b03166001600160a01b031681526020019081526020016000206000828254610a00919061195b565b9091555050336000908152600560205260408120805491610a2083611a1b565b9190505550336001600160a01b0316817f2ab4d5a74b3917397a7ab399780894f3915d63c66fa75d64882ba219fea5610034888b8b604051610a659493929190611a34565b60405180910390a39695505050505050565b60008281526020819052604090205482906001600160a01b0316610ad95760405162461bcd60e51b815260206004820152601960248201527810dbdb5b5a5d1b595b9d08191bd95cc81b9bdd08195e1a5cdd603a1b60448201526064016106ef565b600083815260208190526040902080546001600160a01b03163314610b4c5760405162461bcd60e51b815260206004820152602360248201527f4f6e6c7920636f6d6d69746d656e742063726561746f722063616e2066756c666044820152621a5b1b60ea1b60648201526084016106ef565b600e81015460ff1615610ba15760405162461bcd60e51b815260206004820152601c60248201527f436f6d6d69746d656e7420616c72656164792066756c66696c6c65640000000060448201526064016106ef565b6000610bc582600801600001548360080160010154866000015187602001516105ee565b90506064811115610c245760405162461bcd60e51b8152602060048201526024808201527f4172726976616c206c6f636174696f6e20746f6f206661722066726f6d2074616044820152631c99d95d60e21b60648201526084016106ef565b6003820154600e8301805461010042938411801591820261ffff1990931692909217600117909255600f85019290925590610c9357336000908152600460205260408120805491610c7483611a1b565b9190505550610c8233610545565b336000908152600260205260409020555b610c9c86611276565b33867f70ca586fcb861ba47586fa95a762bf13c4e13aee7699711ac3d3adb0ef7673f9834281610ccd576000610cd3565b87600101545b60408051931515845260208401929092529082015260600160405180910390a3505050505050565b610d03611588565b506000908152602081815260409182902082516101a08101845281546001600160a01b03168152600182015481840152600282015481850152600382015460608083019190915284516080818101875260048501548252600585015482870152600685015482880152600785015482840152808401919091528551908101865260088401548152600984015494810194909452600a83015494840194909452600b8201549383019390935260a0830191909152600c81015460c0830152600d81015460e0830152600e81015460ff808216151561010080860191909152909104161515610120830152600f81015461014083015260108101546101608301526011015461018082015290565b6006546001600160a01b03163314610e745760405162461bcd60e51b815260206004820152602260248201527f4f6e6c79206f776e65722063616e20706572666f726d2074686973206163746960448201526137b760f11b60648201526084016106ef565b6007805460009182905560065460405191926001600160a01b039091169183156108fc0291849190818181858888f19350505050158015610eb9573d6000803e3d6000fd5b5050565b60016020528160005260406000208181548110610ed957600080fd5b60009182526020909120600390910201805460018201546002909201546001600160a01b03909116935090915060ff8082169161010090041684565b60008281526020819052604090205482906001600160a01b0316610f775760405162461bcd60e51b815260206004820152601960248201527810dbdb5b5a5d1b595b9d08191bd95cc81b9bdd08195e1a5cdd603a1b60448201526064016106ef565b60003411610fd15760405162461bcd60e51b815260206004820152602160248201527f42657420616d6f756e74206d7573742062652067726561746572207468616e206044820152600360fc1b60648201526084016106ef565b6000838152602081905260409020600e015460ff16156110335760405162461bcd60e51b815260206004820152601c60248201527f436f6d6d69746d656e7420616c72656164792066756c66696c6c65640000000060448201526064016106ef565b600083815260208190526040902054336001600160a01b039091160361109b5760405162461bcd60e51b815260206004820152601c60248201527f43616e6e6f7420626574206f6e206f776e20636f6d6d69746d656e740000000060448201526064016106ef565b60008381526020819052604090206003015442106110fb5760405162461bcd60e51b815260206004820152601960248201527f43616e6e6f742062657420616674657220646561646c696e650000000000000060448201526064016106ef565b6000838152600160208181526040808420815160808101835233815234818501908152881580159483019485526060830188815284548089018655948952959097209151600390930290910180546001600160a01b0319166001600160a01b0390931692909217825551938101939093555160029092018054915161ffff1990921692151561ff00191692909217610100911515919091021790556111c657600083815260208190526040812060100180543492906111bb90849061195b565b909155506111ed9050565b600083815260208190526040812060110180543492906111e790849061195b565b90915550505b604080513481528315156020820152339185917fd16174e715659dbd1a7c4b7325dc4def5852b62256790341072d1bd59758849c910160405180910390a3505050565b6001600160a01b0381166000908152600260205260408120541561126c576001600160a01b038216600090815260026020526040902054611270565b611d4c5b92915050565b600081815260208190526040812060018101549091906127109061129c9060fa9061191a565b6112a69190611947565b600e830154909150610100900460ff161561136f5760008183600101546112cd9190611aa1565b6011840154909150801561130f5760006127106112eb60fa8461191a565b6112f59190611947565b6112ff9083611aa1565b905061130b818461195b565b9250505b83546040516001600160a01b039091169083156108fc029084906000818181858888f19350505050158015611348573d6000803e3d6000fd5b5061136885600186601101548760100154611363919061195b565b6113b4565b5050611398565b61139883600084601101548560100154866001015461138e919061195b565b611363919061195b565b80600760008282546113aa919061195b565b9091555050505050565b600083815260016020526040812090836113df576000858152602081905260409020601101546113f2565b6000858152602081905260409020601001545b905080600003611403575050505050565b60005b82548110156115805784151583828154811061142457611424611ab4565b600091825260209091206002600390920201015460ff161515148015611478575082818154811061145757611457611ab4565b906000526020600020906003020160020160019054906101000a900460ff16155b15611578576000828585848154811061149357611493611ab4565b9060005260206000209060030201600101546114af919061191a565b6114b99190611947565b905060006127106114cb60fa8461191a565b6114d59190611947565b6114df9083611aa1565b905060018584815481106114f5576114f5611ab4565b906000526020600020906003020160020160016101000a81548160ff02191690831515021790555084838154811061152f5761152f611ab4565b600091825260208220600390910201546040516001600160a01b039091169183156108fc02918491818181858888f19350505050158015611574573d6000803e3d6000fd5b5050505b600101611406565b505050505050565b604051806101a0016040528060006001600160a01b031681526020016000815260200160008152602001600081526020016115e46040518060800160405280600081526020016000815260200160008152602001600081525090565b81526020016116146040518060800160405280600081526020016000815260200160008152602001600081525090565b815260200160008152602001600081526020016000151581526020016000151581526020016000815260200160008152602001600081525090565b60006020828403121561166157600080fd5b81356001600160a01b038116811461167857600080fd5b9392505050565b6000806000806080858703121561169557600080fd5b5050823594602084013594506040840135936060013592509050565b6000608082840312156116c357600080fd5b6040516080810181811067ffffffffffffffff821117156116f457634e487b7160e01b600052604160045260246000fd5b8060405250809150823581526020830135602082015260408301356040820152606083013560608201525092915050565b600080600080610140858703121561173c57600080fd5b61174686866116b1565b935061175586608087016116b1565b939693955050505061010082013591610120013590565b60008060a0838503121561177f57600080fd5b8235915061179084602085016116b1565b90509250929050565b6000602082840312156117ab57600080fd5b5035919050565b81516001600160a01b03168152610260810160208301516020830152604083015160408301526060830151606083015260808301516118156080840182805182526020810151602083015260408101516040830152606081015160608301525050565b5060a083015180516101008481019190915260208201516101208501526040820151610140850152606082015161016085015260c08501516101808581019190915260e08601516101a0860152818601518015156101c087015292506101208601518015156101e087015292506101408601516102008601526101608601516102208601528086015161024086015250505092915050565b600080604083850312156118c057600080fd5b50508035926020909101359150565b600080604083850312156118e257600080fd5b82359150602083013580151581146118f957600080fd5b809150509250929050565b634e487b7160e01b600052601160045260246000fd5b808202811582820484141761127057611270611904565b634e487b7160e01b600052601260045260246000fd5b60008261195657611956611931565b500490565b8082018082111561127057611270611904565b818103600083128015838313168383128216171561198e5761198e611904565b5092915050565b80820260008212600160ff1b841416156119b1576119b1611904565b818105831482151761127057611270611904565b6000826119d4576119d4611931565b600160ff1b8214600019841416156119ee576119ee611904565b500590565b8082018281126000831280158216821582161715611a1357611a13611904565b505092915050565b600060018201611a2d57611a2d611904565b5060010190565b848152602081018490526101408101611a716040830185805182526020810151602083015260408101516040830152606081015160608301525050565b825160c0830152602083015160e08301526040830151610100830152606083015161012083015295945050505050565b8181038181111561127057611270611904565b634e487b7160e01b600052603260045260246000fdfea2646970667358221220b135dd0987ae72fedd047fac52991a08444fad5ca7fec1d12dd281c8354f051364736f6c63430008160033","opcodes":"PUSH1 0x80 PUSH1 0x40 MSTORE CALLVALUE DUP1 ISZERO PUSH2 0x10 JUMPI PUSH1 0x0 DUP1 REVERT JUMPDEST POP PUSH1 0x6 DUP1 SLOAD PUSH1 0x1 PUSH1 0x1 PUSH1 0xA0 SHL SUB NOT AND CALLER OR SWAP1 SSTORE PUSH2 0x1B00 DUP1 PUSH2 0x32 PUSH1 0x0 CODECOPY PUSH1 0x0 RETURN INVALID PUSH1 0x80 PUSH1 0x40 MSTORE PUSH1 0x4 CALLDATASIZE LT PUSH2 0x114 JUMPI PUSH1 0x0 CALLDATALOAD PUSH1 0xE0 SHR DUP1 PUSH4 0x839DF945 GT PUSH2 0xA0 JUMPI DUP1 PUSH4 0xB162C6E6 GT PUSH2 0x64 JUMPI DUP1 PUSH4 0xB162C6E6 EQ PUSH2 0x4A1 JUMPI DUP1 PUSH4 0xBACCBFDB EQ PUSH2 0x4B4 JUMPI DUP1 PUSH4 0xDE0C13CA EQ PUSH2 0x4D4 JUMPI DUP1 PUSH4 0xF541D890 EQ PUSH2 0x501 JUMPI DUP1 PUSH4 0xF873EEAB EQ PUSH2 0x52E JUMPI PUSH1 0x0 DUP1 REVERT JUMPDEST DUP1 PUSH4 0x839DF945 EQ PUSH2 0x23C JUMPI DUP1 PUSH4 0x8795CCCB EQ PUSH2 0x3D5 JUMPI DUP1 PUSH4 0x8DA5CB5B EQ PUSH2 0x3EA JUMPI DUP1 PUSH4 0x9AF9338D EQ PUSH2 0x422 JUMPI DUP1 PUSH4 0xB118174D EQ PUSH2 0x44F JUMPI PUSH1 0x0 DUP1 REVERT JUMPDEST DUP1 PUSH4 0x192AA9CF GT PUSH2 0xE7 JUMPI DUP1 PUSH4 0x192AA9CF EQ PUSH2 0x197 JUMPI DUP1 PUSH4 0x581AC32D EQ PUSH2 0x1AA JUMPI DUP1 PUSH4 0x719DE1EF EQ PUSH2 0x1CC JUMPI DUP1 PUSH4 0x7795820C EQ PUSH2 0x1F9 JUMPI DUP1 PUSH4 0x7B057258 EQ PUSH2 0x226 JUMPI PUSH1 0x0 DUP1 REVERT JUMPDEST DUP1 PUSH4 0xA22D68C EQ PUSH2 0x119 JUMPI DUP1 PUSH4 0xA8FA825 EQ PUSH2 0x142 JUMPI DUP1 PUSH4 0xB4501FD EQ PUSH2 0x162 JUMPI DUP1 PUSH4 0x12718525 EQ PUSH2 0x177 JUMPI JUMPDEST PUSH1 0x0 DUP1 REVERT JUMPDEST CALLVALUE DUP1 ISZERO PUSH2 0x125 JUMPI PUSH1 0x0 DUP1 REVERT JUMPDEST POP PUSH2 0x12F PUSH1 0x7 SLOAD DUP2 JUMP JUMPDEST PUSH1 0x40 MLOAD SWAP1 DUP2 MSTORE PUSH1 0x20 ADD JUMPDEST PUSH1 0x40 MLOAD DUP1 SWAP2 SUB SWAP1 RETURN JUMPDEST CALLVALUE DUP1 ISZERO PUSH2 0x14E JUMPI PUSH1 0x0 DUP1 REVERT JUMPDEST POP PUSH2 0x12F PUSH2 0x15D CALLDATASIZE PUSH1 0x4 PUSH2 0x164F JUMP JUMPDEST PUSH2 0x545 JUMP JUMPDEST CALLVALUE DUP1 ISZERO PUSH2 0x16E JUMPI PUSH1 0x0 DUP1 REVERT JUMPDEST POP PUSH2 0x12F PUSH1 0xFA DUP2 JUMP JUMPDEST CALLVALUE DUP1 ISZERO PUSH2 0x183 JUMPI PUSH1 0x0 DUP1 REVERT JUMPDEST POP PUSH2 0x12F PUSH2 0x192 CALLDATASIZE PUSH1 0x4 PUSH2 0x167F JUMP JUMPDEST PUSH2 0x5EE JUMP JUMPDEST PUSH2 0x12F PUSH2 0x1A5 CALLDATASIZE PUSH1 0x4 PUSH2 0x1725 JUMP JUMPDEST PUSH2 0x696 JUMP JUMPDEST CALLVALUE DUP1 ISZERO PUSH2 0x1B6 JUMPI PUSH1 0x0 DUP1 REVERT JUMPDEST POP PUSH2 0x1CA PUSH2 0x1C5 CALLDATASIZE PUSH1 0x4 PUSH2 0x176C JUMP JUMPDEST PUSH2 0xA77 JUMP JUMPDEST STOP JUMPDEST CALLVALUE DUP1 ISZERO PUSH2 0x1D8 JUMPI PUSH1 0x0 DUP1 REVERT JUMPDEST POP PUSH2 0x12F PUSH2 0x1E7 CALLDATASIZE PUSH1 0x4 PUSH2 0x164F JUMP JUMPDEST PUSH1 0x3 PUSH1 0x20 MSTORE PUSH1 0x0 SWAP1 DUP2 MSTORE PUSH1 0x40 SWAP1 KECCAK256 SLOAD DUP2 JUMP JUMPDEST CALLVALUE DUP1 ISZERO PUSH2 0x205 JUMPI PUSH1 0x0 DUP1 REVERT JUMPDEST POP PUSH2 0x219 PUSH2 0x214 CALLDATASIZE PUSH1 0x4 PUSH2 0x1799 JUMP JUMPDEST PUSH2 0xCFB JUMP JUMPDEST PUSH1 0x40 MLOAD PUSH2 0x139 SWAP2 SWAP1 PUSH2 0x17B2 JUMP JUMPDEST CALLVALUE DUP1 ISZERO PUSH2 0x232 JUMPI PUSH1 0x0 DUP1 REVERT JUMPDEST POP PUSH2 0x12F PUSH2 0x1D4C DUP2 JUMP JUMPDEST CALLVALUE DUP1 ISZERO PUSH2 0x248 JUMPI PUSH1 0x0 DUP1 REVERT JUMPDEST POP PUSH2 0x321 PUSH2 0x257 CALLDATASIZE PUSH1 0x4 PUSH2 0x1799 JUMP JUMPDEST PUSH1 0x0 PUSH1 0x20 DUP2 DUP2 MSTORE SWAP2 DUP2 MSTORE PUSH1 0x40 SWAP1 DUP2 SWAP1 KECCAK256 DUP1 SLOAD PUSH1 0x1 DUP3 ADD SLOAD PUSH1 0x2 DUP4 ADD SLOAD PUSH1 0x3 DUP5 ADD SLOAD DUP6 MLOAD PUSH1 0x80 DUP1 DUP3 ADD DUP9 MSTORE PUSH1 0x4 DUP8 ADD SLOAD DUP3 MSTORE PUSH1 0x5 DUP8 ADD SLOAD DUP3 DUP11 ADD MSTORE PUSH1 0x6 DUP8 ADD SLOAD DUP3 DUP10 ADD MSTORE PUSH1 0x7 DUP8 ADD SLOAD PUSH1 0x60 DUP1 DUP5 ADD SWAP2 SWAP1 SWAP2 MSTORE DUP9 MLOAD SWAP2 DUP3 ADD DUP10 MSTORE PUSH1 0x8 DUP9 ADD SLOAD DUP3 MSTORE PUSH1 0x9 DUP9 ADD SLOAD SWAP10 DUP3 ADD SWAP10 SWAP1 SWAP10 MSTORE PUSH1 0xA DUP8 ADD SLOAD SWAP8 DUP2 ADD SWAP8 SWAP1 SWAP8 MSTORE PUSH1 0xB DUP7 ADD SLOAD SWAP8 DUP8 ADD SWAP8 SWAP1 SWAP8 MSTORE PUSH1 0xC DUP6 ADD SLOAD PUSH1 0xD DUP7 ADD SLOAD PUSH1 0xE DUP8 ADD SLOAD PUSH1 0xF DUP9 ADD SLOAD PUSH1 0x10 DUP10 ADD SLOAD PUSH1 0x11 SWAP1 SWAP10 ADD SLOAD PUSH1 0x1 PUSH1 0x1 PUSH1 0xA0 SHL SUB SWAP1 SWAP9 AND SWAP11 SWAP7 SWAP10 SWAP6 SWAP9 SWAP5 SWAP8 SWAP4 SWAP5 SWAP3 SWAP4 PUSH1 0xFF DUP1 DUP5 AND SWAP5 PUSH2 0x100 SWAP1 SWAP5 DIV AND SWAP3 SWAP1 DUP14 JUMP JUMPDEST PUSH1 0x40 DUP1 MLOAD PUSH1 0x1 PUSH1 0x1 PUSH1 0xA0 SHL SUB SWAP1 SWAP15 AND DUP15 MSTORE PUSH1 0x20 DUP1 DUP16 ADD SWAP14 SWAP1 SWAP14 MSTORE DUP14 DUP2 ADD SWAP12 SWAP1 SWAP12 MSTORE PUSH1 0x60 DUP1 DUP15 ADD SWAP11 SWAP1 SWAP11 MSTORE DUP9 MLOAD PUSH1 0x80 DUP15 ADD MSTORE DUP12 DUP10 ADD MLOAD PUSH1 0xA0 DUP15 ADD MSTORE DUP9 DUP12 ADD MLOAD PUSH1 0xC0 DUP15 ADD MSTORE SWAP8 DUP10 ADD MLOAD PUSH1 0xE0 DUP14 ADD MSTORE DUP7 MLOAD PUSH2 0x100 DUP14 ADD MSTORE SWAP10 DUP7 ADD MLOAD PUSH2 0x120 DUP13 ADD MSTORE SWAP8 DUP6 ADD MLOAD PUSH2 0x140 DUP12 ADD MSTORE SWAP6 SWAP1 SWAP4 ADD MLOAD PUSH2 0x160 DUP10 ADD MSTORE PUSH2 0x180 DUP9 ADD SWAP2 SWAP1 SWAP2 MSTORE PUSH2 0x1A0 DUP8 ADD MSTORE ISZERO ISZERO PUSH2 0x1C0 DUP7 ADD MSTORE SWAP1 ISZERO ISZERO PUSH2 0x1E0 DUP6 ADD MSTORE PUSH2 0x200 DUP5 ADD SWAP2 SWAP1 SWAP2 MSTORE PUSH2 0x220 DUP4 ADD SWAP2 SWAP1 SWAP2 MSTORE PUSH2 0x240 DUP3 ADD MSTORE PUSH2 0x260 ADD PUSH2 0x139 JUMP JUMPDEST CALLVALUE DUP1 ISZERO PUSH2 0x3E1 JUMPI PUSH1 0x0 DUP1 REVERT JUMPDEST POP PUSH2 0x1CA PUSH2 0xE0F JUMP JUMPDEST CALLVALUE DUP1 ISZERO PUSH2 0x3F6 JUMPI PUSH1 0x0 DUP1 REVERT JUMPDEST POP PUSH1 0x6 SLOAD PUSH2 0x40A SWAP1 PUSH1 0x1 PUSH1 0x1 PUSH1 0xA0 SHL SUB AND DUP2 JUMP JUMPDEST PUSH1 0x40 MLOAD PUSH1 0x1 PUSH1 0x1 PUSH1 0xA0 SHL SUB SWAP1 SWAP2 AND DUP2 MSTORE PUSH1 0x20 ADD PUSH2 0x139 JUMP JUMPDEST CALLVALUE DUP1 ISZERO PUSH2 0x42E JUMPI PUSH1 0x0 DUP1 REVERT JUMPDEST POP PUSH2 0x12F PUSH2 0x43D CALLDATASIZE PUSH1 0x4 PUSH2 0x164F JUMP JUMPDEST PUSH1 0x5 PUSH1 0x20 MSTORE PUSH1 0x0 SWAP1 DUP2 MSTORE PUSH1 0x40 SWAP1 KECCAK256 SLOAD DUP2 JUMP JUMPDEST CALLVALUE DUP1 ISZERO PUSH2 0x45B JUMPI PUSH1 0x0 DUP1 REVERT JUMPDEST POP PUSH2 0x46F PUSH2 0x46A CALLDATASIZE PUSH1 0x4 PUSH2 0x18AD JUMP JUMPDEST PUSH2 0xEBD JUMP JUMPDEST PUSH1 0x40 DUP1 MLOAD PUSH1 0x1 PUSH1 0x1 PUSH1 0xA0 SHL SUB SWAP1 SWAP6 AND DUP6 MSTORE PUSH1 0x20 DUP6 ADD SWAP4 SWAP1 SWAP4 MSTORE SWAP1 ISZERO ISZERO SWAP2 DUP4 ADD SWAP2 SWAP1 SWAP2 MSTORE ISZERO ISZERO PUSH1 0x60 DUP3 ADD MSTORE PUSH1 0x80 ADD PUSH2 0x139 JUMP JUMPDEST PUSH2 0x1CA PUSH2 0x4AF CALLDATASIZE PUSH1 0x4 PUSH2 0x18CF JUMP JUMPDEST PUSH2 0xF15 JUMP JUMPDEST CALLVALUE DUP1 ISZERO PUSH2 0x4C0 JUMPI PUSH1 0x0 DUP1 REVERT JUMPDEST POP PUSH2 0x12F PUSH2 0x4CF CALLDATASIZE PUSH1 0x4 PUSH2 0x164F JUMP JUMPDEST PUSH2 0x1230 JUMP JUMPDEST CALLVALUE DUP1 ISZERO PUSH2 0x4E0 JUMPI PUSH1 0x0 DUP1 REVERT JUMPDEST POP PUSH2 0x12F PUSH2 0x4EF CALLDATASIZE PUSH1 0x4 PUSH2 0x164F JUMP JUMPDEST PUSH1 0x4 PUSH1 0x20 MSTORE PUSH1 0x0 SWAP1 DUP2 MSTORE PUSH1 0x40 SWAP1 KECCAK256 SLOAD DUP2 JUMP JUMPDEST CALLVALUE DUP1 ISZERO PUSH2 0x50D JUMPI PUSH1 0x0 DUP1 REVERT JUMPDEST POP PUSH2 0x12F PUSH2 0x51C CALLDATASIZE PUSH1 0x4 PUSH2 0x164F JUMP JUMPDEST PUSH1 0x2 PUSH1 0x20 MSTORE PUSH1 0x0 SWAP1 DUP2 MSTORE PUSH1 0x40 SWAP1 KECCAK256 SLOAD DUP2 JUMP JUMPDEST CALLVALUE DUP1 ISZERO PUSH2 0x53A JUMPI PUSH1 0x0 DUP1 REVERT JUMPDEST POP PUSH2 0x12F PUSH3 0x6136B8 DUP2 JUMP JUMPDEST PUSH1 0x1 PUSH1 0x1 PUSH1 0xA0 SHL SUB DUP2 AND PUSH1 0x0 SWAP1 DUP2 MSTORE PUSH1 0x5 PUSH1 0x20 MSTORE PUSH1 0x40 DUP2 KECCAK256 SLOAD DUP1 DUP3 SUB PUSH2 0x56F JUMPI POP PUSH2 0x1D4C SWAP3 SWAP2 POP POP JUMP JUMPDEST PUSH1 0x1 PUSH1 0x1 PUSH1 0xA0 SHL SUB DUP4 AND PUSH1 0x0 SWAP1 DUP2 MSTORE PUSH1 0x4 PUSH1 0x20 MSTORE PUSH1 0x40 DUP2 KECCAK256 SLOAD SWAP1 DUP3 PUSH2 0x596 DUP4 PUSH2 0x2710 PUSH2 0x191A JUMP JUMPDEST PUSH2 0x5A0 SWAP2 SWAP1 PUSH2 0x1947 JUMP JUMPDEST SWAP1 POP DUP1 PUSH1 0xA DUP4 LT PUSH2 0x5BA JUMPI PUSH2 0x5B7 PUSH2 0x1F4 DUP3 PUSH2 0x195B JUMP JUMPDEST SWAP1 POP JUMPDEST PUSH1 0x32 DUP4 LT PUSH2 0x5D1 JUMPI PUSH2 0x5CE PUSH2 0x1F4 DUP3 PUSH2 0x195B JUMP JUMPDEST SWAP1 POP JUMPDEST PUSH2 0x2710 DUP2 GT PUSH2 0x5E0 JUMPI DUP1 PUSH2 0x5E4 JUMP JUMPDEST PUSH2 0x2710 JUMPDEST SWAP7 SWAP6 POP POP POP POP POP POP JUMP JUMPDEST PUSH1 0x0 DUP1 PUSH3 0x1B7740 PUSH2 0x5FF DUP8 DUP7 PUSH2 0x196E JUMP JUMPDEST PUSH2 0x60B SWAP1 PUSH2 0x7AB8 PUSH2 0x1995 JUMP JUMPDEST PUSH2 0x615 SWAP2 SWAP1 PUSH2 0x19C5 JUMP JUMPDEST SWAP1 POP PUSH1 0x0 PUSH3 0x1B7740 PUSH2 0x627 DUP8 DUP7 PUSH2 0x196E JUMP JUMPDEST PUSH2 0x633 SWAP1 PUSH2 0x7AB8 PUSH2 0x1995 JUMP JUMPDEST PUSH2 0x63D SWAP2 SWAP1 PUSH2 0x19C5 JUMP JUMPDEST SWAP1 POP PUSH1 0x0 PUSH3 0xF4240 PUSH2 0x64F DUP4 DUP1 PUSH2 0x1995 JUMP JUMPDEST PUSH2 0x659 DUP6 DUP1 PUSH2 0x1995 JUMP JUMPDEST PUSH2 0x663 SWAP2 SWAP1 PUSH2 0x19F3 JUMP JUMPDEST PUSH2 0x66D SWAP2 SWAP1 PUSH2 0x19C5 JUMP JUMPDEST SWAP1 POP PUSH3 0xF4240 PUSH2 0x680 PUSH3 0x6136B8 DUP4 PUSH2 0x191A JUMP JUMPDEST PUSH2 0x68A SWAP2 SWAP1 PUSH2 0x1947 JUMP JUMPDEST SWAP9 SWAP8 POP POP POP POP POP POP POP POP JUMP JUMPDEST PUSH1 0x0 DUP1 CALLVALUE GT PUSH2 0x6F8 JUMPI PUSH1 0x40 MLOAD PUSH3 0x461BCD PUSH1 0xE5 SHL DUP2 MSTORE PUSH1 0x20 PUSH1 0x4 DUP3 ADD MSTORE PUSH1 0x23 PUSH1 0x24 DUP3 ADD MSTORE PUSH32 0x5374616B6520616D6F756E74206D757374206265206772656174657220746861 PUSH1 0x44 DUP3 ADD MSTORE PUSH3 0x6E203 PUSH1 0xEC SHL PUSH1 0x64 DUP3 ADD MSTORE PUSH1 0x84 ADD JUMPDEST PUSH1 0x40 MLOAD DUP1 SWAP2 SUB SWAP1 REVERT JUMPDEST TIMESTAMP DUP4 GT PUSH2 0x747 JUMPI PUSH1 0x40 MLOAD PUSH3 0x461BCD PUSH1 0xE5 SHL DUP2 MSTORE PUSH1 0x20 PUSH1 0x4 DUP3 ADD MSTORE PUSH1 0x1E PUSH1 0x24 DUP3 ADD MSTORE PUSH32 0x446561646C696E65206D75737420626520696E20746865206675747572650000 PUSH1 0x44 DUP3 ADD MSTORE PUSH1 0x64 ADD PUSH2 0x6EF JUMP JUMPDEST PUSH1 0x0 DUP3 GT PUSH2 0x797 JUMPI PUSH1 0x40 MLOAD PUSH3 0x461BCD PUSH1 0xE5 SHL DUP2 MSTORE PUSH1 0x20 PUSH1 0x4 DUP3 ADD MSTORE PUSH1 0x1B PUSH1 0x24 DUP3 ADD MSTORE PUSH32 0x50616365206D7573742062652067726561746572207468616E20300000000000 PUSH1 0x44 DUP3 ADD MSTORE PUSH1 0x64 ADD PUSH2 0x6EF JUMP JUMPDEST PUSH1 0x0 PUSH2 0x7B5 DUP7 PUSH1 0x0 ADD MLOAD DUP8 PUSH1 0x20 ADD MLOAD DUP8 PUSH1 0x0 ADD MLOAD DUP9 PUSH1 0x20 ADD MLOAD PUSH2 0x5EE JUMP JUMPDEST DUP7 MLOAD PUSH1 0x20 DUP1 DUP10 ADD MLOAD DUP9 MLOAD DUP10 DUP4 ADD MLOAD PUSH1 0x40 MLOAD PUSH12 0xFFFFFFFFFFFFFFFFFFFFFFFF NOT CALLER PUSH1 0x60 SHL AND SWAP5 DUP2 ADD SWAP5 SWAP1 SWAP5 MSTORE TIMESTAMP PUSH1 0x34 DUP6 ADD MSTORE PUSH1 0x54 DUP5 ADD SWAP5 SWAP1 SWAP5 MSTORE PUSH1 0x74 DUP4 ADD SWAP2 SWAP1 SWAP2 MSTORE PUSH1 0x94 DUP3 ADD MSTORE PUSH1 0xB4 DUP2 ADD SWAP2 SWAP1 SWAP2 MSTORE SWAP1 SWAP2 POP PUSH1 0x0 SWAP1 PUSH1 0xD4 ADD PUSH1 0x40 MLOAD PUSH1 0x20 DUP2 DUP4 SUB SUB DUP2 MSTORE SWAP1 PUSH1 0x40 MSTORE DUP1 MLOAD SWAP1 PUSH1 0x20 ADD KECCAK256 SWAP1 POP PUSH1 0x40 MLOAD DUP1 PUSH2 0x1A0 ADD PUSH1 0x40 MSTORE DUP1 CALLER PUSH1 0x1 PUSH1 0x1 PUSH1 0xA0 SHL SUB AND DUP2 MSTORE PUSH1 0x20 ADD CALLVALUE DUP2 MSTORE PUSH1 0x20 ADD TIMESTAMP DUP2 MSTORE PUSH1 0x20 ADD DUP7 DUP2 MSTORE PUSH1 0x20 ADD DUP9 DUP2 MSTORE PUSH1 0x20 ADD DUP8 DUP2 MSTORE PUSH1 0x20 ADD DUP4 DUP2 MSTORE PUSH1 0x20 ADD DUP6 DUP2 MSTORE PUSH1 0x20 ADD PUSH1 0x0 ISZERO ISZERO DUP2 MSTORE PUSH1 0x20 ADD PUSH1 0x0 ISZERO ISZERO DUP2 MSTORE PUSH1 0x20 ADD PUSH1 0x0 DUP2 MSTORE PUSH1 0x20 ADD PUSH1 0x0 DUP2 MSTORE PUSH1 0x20 ADD PUSH1 0x0 DUP2 MSTORE POP PUSH1 0x0 DUP1 DUP4 DUP2 MSTORE PUSH1 0x20 ADD SWAP1 DUP2 MSTORE PUSH1 0x20 ADD PUSH1 0x0 KECCAK256 PUSH1 0x0 DUP3 ADD MLOAD DUP2 PUSH1 0x0 ADD PUSH1 0x0 PUSH2 0x100 EXP DUP2 SLOAD DUP2 PUSH1 0x1 PUSH1 0x1 PUSH1 0xA0 SHL SUB MUL NOT AND SWAP1 DUP4 PUSH1 0x1 PUSH1 0x1 PUSH1 0xA0 SHL SUB AND MUL OR SWAP1 SSTORE POP PUSH1 0x20 DUP3 ADD MLOAD DUP2 PUSH1 0x1 ADD SSTORE PUSH1 0x40 DUP3 ADD MLOAD DUP2 PUSH1 0x2 ADD SSTORE PUSH1 0x60 DUP3 ADD MLOAD DUP2 PUSH1 0x3 ADD SSTORE PUSH1 0x80 DUP3 ADD MLOAD DUP2 PUSH1 0x4 ADD PUSH1 0x0 DUP3 ADD MLOAD DUP2 PUSH1 0x0 ADD SSTORE PUSH1 0x20 DUP3 ADD MLOAD DUP2 PUSH1 0x1 ADD SSTORE PUSH1 0x40 DUP3 ADD MLOAD DUP2 PUSH1 0x2 ADD SSTORE PUSH1 0x60 DUP3 ADD MLOAD DUP2 PUSH1 0x3 ADD SSTORE POP POP PUSH1 0xA0 DUP3 ADD MLOAD DUP2 PUSH1 0x8 ADD PUSH1 0x0 DUP3 ADD MLOAD DUP2 PUSH1 0x0 ADD SSTORE PUSH1 0x20 DUP3 ADD MLOAD DUP2 PUSH1 0x1 ADD SSTORE PUSH1 0x40 DUP3 ADD MLOAD DUP2 PUSH1 0x2 ADD SSTORE PUSH1 0x60 DUP3 ADD MLOAD DUP2 PUSH1 0x3 ADD SSTORE POP POP PUSH1 0xC0 DUP3 ADD MLOAD DUP2 PUSH1 0xC ADD SSTORE PUSH1 0xE0 DUP3 ADD MLOAD DUP2 PUSH1 0xD ADD SSTORE PUSH2 0x100 DUP3 ADD MLOAD DUP2 PUSH1 0xE ADD PUSH1 0x0 PUSH2 0x100 EXP DUP2 SLOAD DUP2 PUSH1 0xFF MUL NOT AND SWAP1 DUP4 ISZERO ISZERO MUL OR SWAP1 SSTORE POP PUSH2 0x120 DUP3 ADD MLOAD DUP2 PUSH1 0xE ADD PUSH1 0x1 PUSH2 0x100 EXP DUP2 SLOAD DUP2 PUSH1 0xFF MUL NOT AND SWAP1 DUP4 ISZERO ISZERO MUL OR SWAP1 SSTORE POP PUSH2 0x140 DUP3 ADD MLOAD DUP2 PUSH1 0xF ADD SSTORE PUSH2 0x160 DUP3 ADD MLOAD DUP2 PUSH1 0x10 ADD SSTORE PUSH2 0x180 DUP3 ADD MLOAD DUP2 PUSH1 0x11 ADD SSTORE SWAP1 POP POP CALLVALUE PUSH1 0x3 PUSH1 0x0 CALLER PUSH1 0x1 PUSH1 0x1 PUSH1 0xA0 SHL SUB AND PUSH1 0x1 PUSH1 0x1 PUSH1 0xA0 SHL SUB AND DUP2 MSTORE PUSH1 0x20 ADD SWAP1 DUP2 MSTORE PUSH1 0x20 ADD PUSH1 0x0 KECCAK256 PUSH1 0x0 DUP3 DUP3 SLOAD PUSH2 0xA00 SWAP2 SWAP1 PUSH2 0x195B JUMP JUMPDEST SWAP1 SWAP2 SSTORE POP POP CALLER PUSH1 0x0 SWAP1 DUP2 MSTORE PUSH1 0x5 PUSH1 0x20 MSTORE PUSH1 0x40 DUP2 KECCAK256 DUP1 SLOAD SWAP2 PUSH2 0xA20 DUP4 PUSH2 0x1A1B JUMP JUMPDEST SWAP2 SWAP1 POP SSTORE POP CALLER PUSH1 0x1 PUSH1 0x1 PUSH1 0xA0 SHL SUB AND DUP2 PUSH32 0x2AB4D5A74B3917397A7AB399780894F3915D63C66FA75D64882BA219FEA56100 CALLVALUE DUP9 DUP12 DUP12 PUSH1 0x40 MLOAD PUSH2 0xA65 SWAP5 SWAP4 SWAP3 SWAP2 SWAP1 PUSH2 0x1A34 JUMP JUMPDEST PUSH1 0x40 MLOAD DUP1 SWAP2 SUB SWAP1 LOG3 SWAP7 SWAP6 POP POP POP POP POP POP JUMP JUMPDEST PUSH1 0x0 DUP3 DUP2 MSTORE PUSH1 0x20 DUP2 SWAP1 MSTORE PUSH1 0x40 SWAP1 KECCAK256 SLOAD DUP3 SWAP1 PUSH1 0x1 PUSH1 0x1 PUSH1 0xA0 SHL SUB AND PUSH2 0xAD9 JUMPI PUSH1 0x40 MLOAD PUSH3 0x461BCD PUSH1 0xE5 SHL DUP2 MSTORE PUSH1 0x20 PUSH1 0x4 DUP3 ADD MSTORE PUSH1 0x19 PUSH1 0x24 DUP3 ADD MSTORE PUSH25 0x10DBDB5B5A5D1B595B9D08191BD95CC81B9BDD08195E1A5CDD PUSH1 0x3A SHL PUSH1 0x44 DUP3 ADD MSTORE PUSH1 0x64 ADD PUSH2 0x6EF JUMP JUMPDEST PUSH1 0x0 DUP4 DUP2 MSTORE PUSH1 0x20 DUP2 SWAP1 MSTORE PUSH1 0x40 SWAP1 KECCAK256 DUP1 SLOAD PUSH1 0x1 PUSH1 0x1 PUSH1 0xA0 SHL SUB AND CALLER EQ PUSH2 0xB4C JUMPI PUSH1 0x40 MLOAD PUSH3 0x461BCD PUSH1 0xE5 SHL DUP2 MSTORE PUSH1 0x20 PUSH1 0x4 DUP3 ADD MSTORE PUSH1 0x23 PUSH1 0x24 DUP3 ADD MSTORE PUSH32 0x4F6E6C7920636F6D6D69746D656E742063726561746F722063616E2066756C66 PUSH1 0x44 DUP3 ADD MSTORE PUSH3 0x1A5B1B PUSH1 0xEA SHL PUSH1 0x64 DUP3 ADD MSTORE PUSH1 0x84 ADD PUSH2 0x6EF JUMP JUMPDEST PUSH1 0xE DUP2 ADD SLOAD PUSH1 0xFF AND ISZERO PUSH2 0xBA1 JUMPI PUSH1 0x40 MLOAD PUSH3 0x461BCD PUSH1 0xE5 SHL DUP2 MSTORE PUSH1 0x20 PUSH1 0x4 DUP3 ADD MSTORE PUSH1 0x1C PUSH1 0x24 DUP3 ADD MSTORE PUSH32 0x436F6D6D69746D656E7420616C72656164792066756C66696C6C656400000000 PUSH1 0x44 DUP3 ADD MSTORE PUSH1 0x64 ADD PUSH2 0x6EF JUMP JUMPDEST PUSH1 0x0 PUSH2 0xBC5 DUP3 PUSH1 0x8 ADD PUSH1 0x0 ADD SLOAD DUP4 PUSH1 0x8 ADD PUSH1 0x1 ADD SLOAD DUP7 PUSH1 0x0 ADD MLOAD DUP8 PUSH1 0x20 ADD MLOAD PUSH2 0x5EE JUMP JUMPDEST SWAP1 POP PUSH1 0x64 DUP2 GT ISZERO PUSH2 0xC24 JUMPI PUSH1 0x40 MLOAD PUSH3 0x461BCD PUSH1 0xE5 SHL DUP2 MSTORE PUSH1 0x20 PUSH1 0x4 DUP3 ADD MSTORE PUSH1 0x24 DUP1 DUP3 ADD MSTORE PUSH32 0x4172726976616C206C6F636174696F6E20746F6F206661722066726F6D207461 PUSH1 0x44 DUP3 ADD MSTORE PUSH4 0x1C99D95D PUSH1 0xE2 SHL PUSH1 0x64 DUP3 ADD MSTORE PUSH1 0x84 ADD PUSH2 0x6EF JUMP JUMPDEST PUSH1 0x3 DUP3 ADD SLOAD PUSH1 0xE DUP4 ADD DUP1 SLOAD PUSH2 0x100 TIMESTAMP SWAP4 DUP5 GT DUP1 ISZERO SWAP2 DUP3 MUL PUSH2 0xFFFF NOT SWAP1 SWAP4 AND SWAP3 SWAP1 SWAP3 OR PUSH1 0x1 OR SWAP1 SWAP3 SSTORE PUSH1 0xF DUP6 ADD SWAP3 SWAP1 SWAP3 SSTORE SWAP1 PUSH2 0xC93 JUMPI CALLER PUSH1 0x0 SWAP1 DUP2 MSTORE PUSH1 0x4 PUSH1 0x20 MSTORE PUSH1 0x40 DUP2 KECCAK256 DUP1 SLOAD SWAP2 PUSH2 0xC74 DUP4 PUSH2 0x1A1B JUMP JUMPDEST SWAP2 SWAP1 POP SSTORE POP PUSH2 0xC82 CALLER PUSH2 0x545 JUMP JUMPDEST CALLER PUSH1 0x0 SWAP1 DUP2 MSTORE PUSH1 0x2 PUSH1 0x20 MSTORE PUSH1 0x40 SWAP1 KECCAK256 SSTORE JUMPDEST PUSH2 0xC9C DUP7 PUSH2 0x1276 JUMP JUMPDEST CALLER DUP7 PUSH32 0x70CA586FCB861BA47586FA95A762BF13C4E13AEE7699711AC3D3ADB0EF7673F9 DUP4 TIMESTAMP DUP2 PUSH2 0xCCD JUMPI PUSH1 0x0 PUSH2 0xCD3 JUMP JUMPDEST DUP8 PUSH1 0x1 ADD SLOAD JUMPDEST PUSH1 0x40 DUP1 MLOAD SWAP4 ISZERO ISZERO DUP5 MSTORE PUSH1 0x20 DUP5 ADD SWAP3 SWAP1 SWAP3 MSTORE SWAP1 DUP3 ADD MSTORE PUSH1 0x60 ADD PUSH1 0x40 MLOAD DUP1 SWAP2 SUB SWAP1 LOG3 POP POP POP POP POP POP JUMP JUMPDEST PUSH2 0xD03 PUSH2 0x1588 JUMP JUMPDEST POP PUSH1 0x0 SWAP1 DUP2 MSTORE PUSH1 0x20 DUP2 DUP2 MSTORE PUSH1 0x40 SWAP2 DUP3 SWAP1 KECCAK256 DUP3 MLOAD PUSH2 0x1A0 DUP2 ADD DUP5 MSTORE DUP2 SLOAD PUSH1 0x1 PUSH1 0x1 PUSH1 0xA0 SHL SUB AND DUP2 MSTORE PUSH1 0x1 DUP3 ADD SLOAD DUP2 DUP5 ADD MSTORE PUSH1 0x2 DUP3 ADD SLOAD DUP2 DUP6 ADD MSTORE PUSH1 0x3 DUP3 ADD SLOAD PUSH1 0x60 DUP1 DUP4 ADD SWAP2 SWAP1 SWAP2 MSTORE DUP5 MLOAD PUSH1 0x80 DUP2 DUP2 ADD DUP8 MSTORE PUSH1 0x4 DUP6 ADD SLOAD DUP3 MSTORE PUSH1 0x5 DUP6 ADD SLOAD DUP3 DUP8 ADD MSTORE PUSH1 0x6 DUP6 ADD SLOAD DUP3 DUP9 ADD MSTORE PUSH1 0x7 DUP6 ADD SLOAD DUP3 DUP5 ADD MSTORE DUP1 DUP5 ADD SWAP2 SWAP1 SWAP2 MSTORE DUP6 MLOAD SWAP1 DUP2 ADD DUP7 MSTORE PUSH1 0x8 DUP5 ADD SLOAD DUP2 MSTORE PUSH1 0x9 DUP5 ADD SLOAD SWAP5 DUP2 ADD SWAP5 SWAP1 SWAP5 MSTORE PUSH1 0xA DUP4 ADD SLOAD SWAP5 DUP5 ADD SWAP5 SWAP1 SWAP5 MSTORE PUSH1 0xB DUP3 ADD SLOAD SWAP4 DUP4 ADD SWAP4 SWAP1 SWAP4 MSTORE PUSH1 0xA0 DUP4 ADD SWAP2 SWAP1 SWAP2 MSTORE PUSH1 0xC DUP2 ADD SLOAD PUSH1 0xC0 DUP4 ADD MSTORE PUSH1 0xD DUP2 ADD SLOAD PUSH1 0xE0 DUP4 ADD MSTORE PUSH1 0xE DUP2 ADD SLOAD PUSH1 0xFF DUP1 DUP3 AND ISZERO ISZERO PUSH2 0x100 DUP1 DUP7 ADD SWAP2 SWAP1 SWAP2 MSTORE SWAP1 SWAP2 DIV AND ISZERO ISZERO PUSH2 0x120 DUP4 ADD MSTORE PUSH1 0xF DUP2 ADD SLOAD PUSH2 0x140 DUP4 ADD MSTORE PUSH1 0x10 DUP2 ADD SLOAD PUSH2 0x160 DUP4 ADD MSTORE PUSH1 0x11 ADD SLOAD PUSH2 0x180 DUP3 ADD MSTORE SWAP1 JUMP JUMPDEST PUSH1 0x6 SLOAD PUSH1 0x1 PUSH1 0x1 PUSH1 0xA0 SHL SUB AND CALLER EQ PUSH2 0xE74 JUMPI PUSH1 0x40 MLOAD PUSH3 0x461BCD PUSH1 0xE5 SHL DUP2 MSTORE PUSH1 0x20 PUSH1 0x4 DUP3 ADD MSTORE PUSH1 0x22 PUSH1 0x24 DUP3 ADD MSTORE PUSH32 0x4F6E6C79206F776E65722063616E20706572666F726D20746869732061637469 PUSH1 0x44 DUP3 ADD MSTORE PUSH2 0x37B7 PUSH1 0xF1 SHL PUSH1 0x64 DUP3 ADD MSTORE PUSH1 0x84 ADD PUSH2 0x6EF JUMP JUMPDEST PUSH1 0x7 DUP1 SLOAD PUSH1 0x0 SWAP2 DUP3 SWAP1 SSTORE PUSH1 0x6 SLOAD PUSH1 0x40 MLOAD SWAP2 SWAP3 PUSH1 0x1 PUSH1 0x1 PUSH1 0xA0 SHL SUB SWAP1 SWAP2 AND SWAP2 DUP4 ISZERO PUSH2 0x8FC MUL SWAP2 DUP5 SWAP2 SWAP1 DUP2 DUP2 DUP2 DUP6 DUP9 DUP9 CALL SWAP4 POP POP POP POP ISZERO DUP1 ISZERO PUSH2 0xEB9 JUMPI RETURNDATASIZE PUSH1 0x0 DUP1 RETURNDATACOPY RETURNDATASIZE PUSH1 0x0 REVERT JUMPDEST POP POP JUMP JUMPDEST PUSH1 0x1 PUSH1 0x20 MSTORE DUP2 PUSH1 0x0 MSTORE PUSH1 0x40 PUSH1 0x0 KECCAK256 DUP2 DUP2 SLOAD DUP2 LT PUSH2 0xED9 JUMPI PUSH1 0x0 DUP1 REVERT JUMPDEST PUSH1 0x0 SWAP2 DUP3 MSTORE PUSH1 0x20 SWAP1 SWAP2 KECCAK256 PUSH1 0x3 SWAP1 SWAP2 MUL ADD DUP1 SLOAD PUSH1 0x1 DUP3 ADD SLOAD PUSH1 0x2 SWAP1 SWAP3 ADD SLOAD PUSH1 0x1 PUSH1 0x1 PUSH1 0xA0 SHL SUB SWAP1 SWAP2 AND SWAP4 POP SWAP1 SWAP2 POP PUSH1 0xFF DUP1 DUP3 AND SWAP2 PUSH2 0x100 SWAP1 DIV AND DUP5 JUMP JUMPDEST PUSH1 0x0 DUP3 DUP2 MSTORE PUSH1 0x20 DUP2 SWAP1 MSTORE PUSH1 0x40 SWAP1 KECCAK256 SLOAD DUP3 SWAP1 PUSH1 0x1 PUSH1 0x1 PUSH1 0xA0 SHL SUB AND PUSH2 0xF77 JUMPI PUSH1 0x40 MLOAD PUSH3 0x461BCD PUSH1 0xE5 SHL DUP2 MSTORE PUSH1 0x20 PUSH1 0x4 DUP3 ADD MSTORE PUSH1 0x19 PUSH1 0x24 DUP3 ADD MSTORE PUSH25 0x10DBDB5B5A5D1B595B9D08191BD95CC81B9BDD08195E1A5CDD PUSH1 0x3A SHL PUSH1 0x44 DUP3 ADD MSTORE PUSH1 0x64 ADD PUSH2 0x6EF JUMP JUMPDEST PUSH1 0x0 CALLVALUE GT PUSH2 0xFD1 JUMPI PUSH1 0x40 MLOAD PUSH3 0x461BCD PUSH1 0xE5 SHL DUP2 MSTORE PUSH1 0x20 PUSH1 0x4 DUP3 ADD MSTORE PUSH1 0x21 PUSH1 0x24 DUP3 ADD MSTORE PUSH32 0x42657420616D6F756E74206D7573742062652067726561746572207468616E20 PUSH1 0x44 DUP3 ADD MSTORE PUSH1 0x3 PUSH1 0xFC SHL PUSH1 0x64 DUP3 ADD MSTORE PUSH1 0x84 ADD PUSH2 0x6EF JUMP JUMPDEST PUSH1 0x0 DUP4 DUP2 MSTORE PUSH1 0x20 DUP2 SWAP1 MSTORE PUSH1 0x40 SWAP1 KECCAK256 PUSH1 0xE ADD SLOAD PUSH1 0xFF AND ISZERO PUSH2 0x1033 JUMPI PUSH1 0x40 MLOAD PUSH3 0x461BCD PUSH1 0xE5 SHL DUP2 MSTORE PUSH1 0x20 PUSH1 0x4 DUP3 ADD MSTORE PUSH1 0x1C PUSH1 0x24 DUP3 ADD MSTORE PUSH32 0x436F6D6D69746D656E7420616C72656164792066756C66696C6C656400000000 PUSH1 0x44 DUP3 ADD MSTORE PUSH1 0x64 ADD PUSH2 0x6EF JUMP JUMPDEST PUSH1 0x0 DUP4 DUP2 MSTORE PUSH1 0x20 DUP2 SWAP1 MSTORE PUSH1 0x40 SWAP1 KECCAK256 SLOAD CALLER PUSH1 0x1 PUSH1 0x1 PUSH1 0xA0 SHL SUB SWAP1 SWAP2 AND SUB PUSH2 0x109B JUMPI PUSH1 0x40 MLOAD PUSH3 0x461BCD PUSH1 0xE5 SHL DUP2 MSTORE PUSH1 0x20 PUSH1 0x4 DUP3 ADD MSTORE PUSH1 0x1C PUSH1 0x24 DUP3 ADD MSTORE PUSH32 0x43616E6E6F7420626574206F6E206F776E20636F6D6D69746D656E7400000000 PUSH1 0x44 DUP3 ADD MSTORE PUSH1 0x64 ADD PUSH2 0x6EF JUMP JUMPDEST PUSH1 0x0 DUP4 DUP2 MSTORE PUSH1 0x20 DUP2 SWAP1 MSTORE PUSH1 0x40 SWAP1 KECCAK256 PUSH1 0x3 ADD SLOAD TIMESTAMP LT PUSH2 0x10FB JUMPI PUSH1 0x40 MLOAD PUSH3 0x461BCD PUSH1 0xE5 SHL DUP2 MSTORE PUSH1 0x20 PUSH1 0x4 DUP3 ADD MSTORE PUSH1 0x19 PUSH1 0x24 DUP3 ADD MSTORE PUSH32 0x43616E6E6F742062657420616674657220646561646C696E6500000000000000 PUSH1 0x44 DUP3 ADD MSTORE PUSH1 0x64 ADD PUSH2 0x6EF JUMP JUMPDEST PUSH1 0x0 DUP4 DUP2 MSTORE PUSH1 0x1 PUSH1 0x20 DUP2 DUP2 MSTORE PUSH1 0x40 DUP1 DUP5 KECCAK256 DUP2 MLOAD PUSH1 0x80 DUP2 ADD DUP4 MSTORE CALLER DUP2 MSTORE CALLVALUE DUP2 DUP6 ADD SWAP1 DUP2 MSTORE DUP9 ISZERO DUP1 ISZERO SWAP5 DUP4 ADD SWAP5 DUP6 MSTORE PUSH1 0x60 DUP4 ADD DUP9 DUP2 MSTORE DUP5 SLOAD DUP1 DUP10 ADD DUP7 SSTORE SWAP5 DUP10 MSTORE SWAP6 SWAP1 SWAP8 KECCAK256 SWAP2 MLOAD PUSH1 0x3 SWAP1 SWAP4 MUL SWAP1 SWAP2 ADD DUP1 SLOAD PUSH1 0x1 PUSH1 0x1 PUSH1 0xA0 SHL SUB NOT AND PUSH1 0x1 PUSH1 0x1 PUSH1 0xA0 SHL SUB SWAP1 SWAP4 AND SWAP3 SWAP1 SWAP3 OR DUP3 SSTORE MLOAD SWAP4 DUP2 ADD SWAP4 SWAP1 SWAP4 SSTORE MLOAD PUSH1 0x2 SWAP1 SWAP3 ADD DUP1 SLOAD SWAP2 MLOAD PUSH2 0xFFFF NOT SWAP1 SWAP3 AND SWAP3 ISZERO ISZERO PUSH2 0xFF00 NOT AND SWAP3 SWAP1 SWAP3 OR PUSH2 0x100 SWAP2 ISZERO ISZERO SWAP2 SWAP1 SWAP2 MUL OR SWAP1 SSTORE PUSH2 0x11C6 JUMPI PUSH1 0x0 DUP4 DUP2 MSTORE PUSH1 0x20 DUP2 SWAP1 MSTORE PUSH1 0x40 DUP2 KECCAK256 PUSH1 0x10 ADD DUP1 SLOAD CALLVALUE SWAP3 SWAP1 PUSH2 0x11BB SWAP1 DUP5 SWAP1 PUSH2 0x195B JUMP JUMPDEST SWAP1 SWAP2 SSTORE POP PUSH2 0x11ED SWAP1 POP JUMP JUMPDEST PUSH1 0x0 DUP4 DUP2 MSTORE PUSH1 0x20 DUP2 SWAP1 MSTORE PUSH1 0x40 DUP2 KECCAK256 PUSH1 0x11 ADD DUP1 SLOAD CALLVALUE SWAP3 SWAP1 PUSH2 0x11E7 SWAP1 DUP5 SWAP1 PUSH2 0x195B JUMP JUMPDEST SWAP1 SWAP2 SSTORE POP POP JUMPDEST PUSH1 0x40 DUP1 MLOAD CALLVALUE DUP2 MSTORE DUP4 ISZERO ISZERO PUSH1 0x20 DUP3 ADD MSTORE CALLER SWAP2 DUP6 SWAP2 PUSH32 0xD16174E715659DBD1A7C4B7325DC4DEF5852B62256790341072D1BD59758849C SWAP2 ADD PUSH1 0x40 MLOAD DUP1 SWAP2 SUB SWAP1 LOG3 POP POP POP JUMP JUMPDEST PUSH1 0x1 PUSH1 0x1 PUSH1 0xA0 SHL SUB DUP2 AND PUSH1 0x0 SWAP1 DUP2 MSTORE PUSH1 0x2 PUSH1 0x20 MSTORE PUSH1 0x40 DUP2 KECCAK256 SLOAD ISZERO PUSH2 0x126C JUMPI PUSH1 0x1 PUSH1 0x1 PUSH1 0xA0 SHL SUB DUP3 AND PUSH1 0x0 SWAP1 DUP2 MSTORE PUSH1 0x2 PUSH1 0x20 MSTORE PUSH1 0x40 SWAP1 KECCAK256 SLOAD PUSH2 0x1270 JUMP JUMPDEST PUSH2 0x1D4C JUMPDEST SWAP3 SWAP2 POP POP JUMP JUMPDEST PUSH1 0x0 DUP2 DUP2 MSTORE PUSH1 0x20 DUP2 SWAP1 MSTORE PUSH1 0x40 DUP2 KECCAK256 PUSH1 0x1 DUP2 ADD SLOAD SWAP1 SWAP2 SWAP1 PUSH2 0x2710 SWAP1 PUSH2 0x129C SWAP1 PUSH1 0xFA SWAP1 PUSH2 0x191A JUMP JUMPDEST PUSH2 0x12A6 SWAP2 SWAP1 PUSH2 0x1947 JUMP JUMPDEST PUSH1 0xE DUP4 ADD SLOAD SWAP1 SWAP2 POP PUSH2 0x100 SWAP1 DIV PUSH1 0xFF AND ISZERO PUSH2 0x136F JUMPI PUSH1 0x0 DUP2 DUP4 PUSH1 0x1 ADD SLOAD PUSH2 0x12CD SWAP2 SWAP1 PUSH2 0x1AA1 JUMP JUMPDEST PUSH1 0x11 DUP5 ADD SLOAD SWAP1 SWAP2 POP DUP1 ISZERO PUSH2 0x130F JUMPI PUSH1 0x0 PUSH2 0x2710 PUSH2 0x12EB PUSH1 0xFA DUP5 PUSH2 0x191A JUMP JUMPDEST PUSH2 0x12F5 SWAP2 SWAP1 PUSH2 0x1947 JUMP JUMPDEST PUSH2 0x12FF SWAP1 DUP4 PUSH2 0x1AA1 JUMP JUMPDEST SWAP1 POP PUSH2 0x130B DUP2 DUP5 PUSH2 0x195B JUMP JUMPDEST SWAP3 POP POP JUMPDEST DUP4 SLOAD PUSH1 0x40 MLOAD PUSH1 0x1 PUSH1 0x1 PUSH1 0xA0 SHL SUB SWAP1 SWAP2 AND SWAP1 DUP4 ISZERO PUSH2 0x8FC MUL SWAP1 DUP5 SWAP1 PUSH1 0x0 DUP2 DUP2 DUP2 DUP6 DUP9 DUP9 CALL SWAP4 POP POP POP POP ISZERO DUP1 ISZERO PUSH2 0x1348 JUMPI RETURNDATASIZE PUSH1 0x0 DUP1 RETURNDATACOPY RETURNDATASIZE PUSH1 0x0 REVERT JUMPDEST POP PUSH2 0x1368 DUP6 PUSH1 0x1 DUP7 PUSH1 0x11 ADD SLOAD DUP8 PUSH1 0x10 ADD SLOAD PUSH2 0x1363 SWAP2 SWAP1 PUSH2 0x195B JUMP JUMPDEST PUSH2 0x13B4 JUMP JUMPDEST POP POP PUSH2 0x1398 JUMP JUMPDEST PUSH2 0x1398 DUP4 PUSH1 0x0 DUP5 PUSH1 0x11 ADD SLOAD DUP6 PUSH1 0x10 ADD SLOAD DUP7 PUSH1 0x1 ADD SLOAD PUSH2 0x138E SWAP2 SWAP1 PUSH2 0x195B JUMP JUMPDEST PUSH2 0x1363 SWAP2 SWAP1 PUSH2 0x195B JUMP JUMPDEST DUP1 PUSH1 0x7 PUSH1 0x0 DUP3 DUP3 SLOAD PUSH2 0x13AA SWAP2 SWAP1 PUSH2 0x195B JUMP JUMPDEST SWAP1 SWAP2 SSTORE POP POP POP POP POP JUMP JUMPDEST PUSH1 0x0 DUP4 DUP2 MSTORE PUSH1 0x1 PUSH1 0x20 MSTORE PUSH1 0x40 DUP2 KECCAK256 SWAP1 DUP4 PUSH2 0x13DF JUMPI PUSH1 0x0 DUP6 DUP2 MSTORE PUSH1 0x20 DUP2 SWAP1 MSTORE PUSH1 0x40 SWAP1 KECCAK256 PUSH1 0x11 ADD SLOAD PUSH2 0x13F2 JUMP JUMPDEST PUSH1 0x0 DUP6 DUP2 MSTORE PUSH1 0x20 DUP2 SWAP1 MSTORE PUSH1 0x40 SWAP1 KECCAK256 PUSH1 0x10 ADD SLOAD JUMPDEST SWAP1 POP DUP1 PUSH1 0x0 SUB PUSH2 0x1403 JUMPI POP POP POP POP POP JUMP JUMPDEST PUSH1 0x0 JUMPDEST DUP3 SLOAD DUP2 LT ISZERO PUSH2 0x1580 JUMPI DUP5 ISZERO ISZERO DUP4 DUP3 DUP2 SLOAD DUP2 LT PUSH2 0x1424 JUMPI PUSH2 0x1424 PUSH2 0x1AB4 JUMP JUMPDEST PUSH1 0x0 SWAP2 DUP3 MSTORE PUSH1 0x20 SWAP1 SWAP2 KECCAK256 PUSH1 0x2 PUSH1 0x3 SWAP1 SWAP3 MUL ADD ADD SLOAD PUSH1 0xFF AND ISZERO ISZERO EQ DUP1 ISZERO PUSH2 0x1478 JUMPI POP DUP3 DUP2 DUP2 SLOAD DUP2 LT PUSH2 0x1457 JUMPI PUSH2 0x1457 PUSH2 0x1AB4 JUMP JUMPDEST SWAP1 PUSH1 0x0 MSTORE PUSH1 0x20 PUSH1 0x0 KECCAK256 SWAP1 PUSH1 0x3 MUL ADD PUSH1 0x2 ADD PUSH1 0x1 SWAP1 SLOAD SWAP1 PUSH2 0x100 EXP SWAP1 DIV PUSH1 0xFF AND ISZERO JUMPDEST ISZERO PUSH2 0x1578 JUMPI PUSH1 0x0 DUP3 DUP6 DUP6 DUP5 DUP2 SLOAD DUP2 LT PUSH2 0x1493 JUMPI PUSH2 0x1493 PUSH2 0x1AB4 JUMP JUMPDEST SWAP1 PUSH1 0x0 MSTORE PUSH1 0x20 PUSH1 0x0 KECCAK256 SWAP1 PUSH1 0x3 MUL ADD PUSH1 0x1 ADD SLOAD PUSH2 0x14AF SWAP2 SWAP1 PUSH2 0x191A JUMP JUMPDEST PUSH2 0x14B9 SWAP2 SWAP1 PUSH2 0x1947 JUMP JUMPDEST SWAP1 POP PUSH1 0x0 PUSH2 0x2710 PUSH2 0x14CB PUSH1 0xFA DUP5 PUSH2 0x191A JUMP JUMPDEST PUSH2 0x14D5 SWAP2 SWAP1 PUSH2 0x1947 JUMP JUMPDEST PUSH2 0x14DF SWAP1 DUP4 PUSH2 0x1AA1 JUMP JUMPDEST SWAP1 POP PUSH1 0x1 DUP6 DUP5 DUP2 SLOAD DUP2 LT PUSH2 0x14F5 JUMPI PUSH2 0x14F5 PUSH2 0x1AB4 JUMP JUMPDEST SWAP1 PUSH1 0x0 MSTORE PUSH1 0x20 PUSH1 0x0 KECCAK256 SWAP1 PUSH1 0x3 MUL ADD PUSH1 0x2 ADD PUSH1 0x1 PUSH2 0x100 EXP DUP2 SLOAD DUP2 PUSH1 0xFF MUL NOT AND SWAP1 DUP4 ISZERO ISZERO MUL OR SWAP1 SSTORE POP DUP5 DUP4 DUP2 SLOAD DUP2 LT PUSH2 0x152F JUMPI PUSH2 0x152F PUSH2 0x1AB4 JUMP JUMPDEST PUSH1 0x0 SWAP2 DUP3 MSTORE PUSH1 0x20 DUP3 KECCAK256 PUSH1 0x3 SWAP1 SWAP2 MUL ADD SLOAD PUSH1 0x40 MLOAD PUSH1 0x1 PUSH1 0x1 PUSH1 0xA0 SHL SUB SWAP1 SWAP2 AND SWAP2 DUP4 ISZERO PUSH2 0x8FC MUL SWAP2 DUP5 SWAP2 DUP2 DUP2 DUP2 DUP6 DUP9 DUP9 CALL SWAP4 POP POP POP POP ISZERO DUP1 ISZERO PUSH2 0x1574 JUMPI RETURNDATASIZE PUSH1 0x0 DUP1 RETURNDATACOPY RETURNDATASIZE PUSH1 0x0 REVERT JUMPDEST POP POP POP JUMPDEST PUSH1 0x1 ADD PUSH2 0x1406 JUMP JUMPDEST POP POP POP POP POP POP JUMP JUMPDEST PUSH1 0x40 MLOAD DUP1 PUSH2 0x1A0 ADD PUSH1 0x40 MSTORE DUP1 PUSH1 0x0 PUSH1 0x1 PUSH1 0x1 PUSH1 0xA0 SHL SUB AND DUP2 MSTORE PUSH1 0x20 ADD PUSH1 0x0 DUP2 MSTORE PUSH1 0x20 ADD PUSH1 0x0 DUP2 MSTORE PUSH1 0x20 ADD PUSH1 0x0 DUP2 MSTORE PUSH1 0x20 ADD PUSH2 0x15E4 PUSH1 0x40 MLOAD DUP1 PUSH1 0x80 ADD PUSH1 0x40 MSTORE DUP1 PUSH1 0x0 DUP2 MSTORE PUSH1 0x20 ADD PUSH1 0x0 DUP2 MSTORE PUSH1 0x20 ADD PUSH1 0x0 DUP2 MSTORE PUSH1 0x20 ADD PUSH1 0x0 DUP2 MSTORE POP SWAP1 JUMP JUMPDEST DUP2 MSTORE PUSH1 0x20 ADD PUSH2 0x1614 PUSH1 0x40 MLOAD DUP1 PUSH1 0x80 ADD PUSH1 0x40 MSTORE DUP1 PUSH1 0x0 DUP2 MSTORE PUSH1 0x20 ADD PUSH1 0x0 DUP2 MSTORE PUSH1 0x20 ADD PUSH1 0x0 DUP2 MSTORE PUSH1 0x20 ADD PUSH1 0x0 DUP2 MSTORE POP SWAP1 JUMP JUMPDEST DUP2 MSTORE PUSH1 0x20 ADD PUSH1 0x0 DUP2 MSTORE PUSH1 0x20 ADD PUSH1 0x0 DUP2 MSTORE PUSH1 0x20 ADD PUSH1 0x0 ISZERO ISZERO DUP2 MSTORE PUSH1 0x20 ADD PUSH1 0x0 ISZERO ISZERO DUP2 MSTORE PUSH1 0x20 ADD PUSH1 0x0 DUP2 MSTORE PUSH1 0x20 ADD PUSH1 0x0 DUP2 MSTORE PUSH1 0x20 ADD PUSH1 0x0 DUP2 MSTORE POP SWAP1 JUMP JUMPDEST PUSH1 0x0 PUSH1 0x20 DUP3 DUP5 SUB SLT ISZERO PUSH2 0x1661 JUMPI PUSH1 0x0 DUP1 REVERT JUMPDEST DUP2 CALLDATALOAD PUSH1 0x1 PUSH1 0x1 PUSH1 0xA0 SHL SUB DUP2 AND DUP2 EQ PUSH2 0x1678 JUMPI PUSH1 0x0 DUP1 REVERT JUMPDEST SWAP4 SWAP3 POP POP POP JUMP JUMPDEST PUSH1 0x0 DUP1 PUSH1 0x0 DUP1 PUSH1 0x80 DUP6 DUP8 SUB SLT ISZERO PUSH2 0x1695 JUMPI PUSH1 0x0 DUP1 REVERT JUMPDEST POP POP DUP3 CALLDATALOAD SWAP5 PUSH1 0x20 DUP5 ADD CALLDATALOAD SWAP5 POP PUSH1 0x40 DUP5 ADD CALLDATALOAD SWAP4 PUSH1 0x60 ADD CALLDATALOAD SWAP3 POP SWAP1 POP JUMP JUMPDEST PUSH1 0x0 PUSH1 0x80 DUP3 DUP5 SUB SLT ISZERO PUSH2 0x16C3 JUMPI PUSH1 0x0 DUP1 REVERT JUMPDEST PUSH1 0x40 MLOAD PUSH1 0x80 DUP2 ADD DUP2 DUP2 LT PUSH8 0xFFFFFFFFFFFFFFFF DUP3 GT OR ISZERO PUSH2 0x16F4 JUMPI PUSH4 0x4E487B71 PUSH1 0xE0 SHL PUSH1 0x0 MSTORE PUSH1 0x41 PUSH1 0x4 MSTORE PUSH1 0x24 PUSH1 0x0 REVERT JUMPDEST DUP1 PUSH1 0x40 MSTORE POP DUP1 SWAP2 POP DUP3 CALLDATALOAD DUP2 MSTORE PUSH1 0x20 DUP4 ADD CALLDATALOAD PUSH1 0x20 DUP3 ADD MSTORE PUSH1 0x40 DUP4 ADD CALLDATALOAD PUSH1 0x40 DUP3 ADD MSTORE PUSH1 0x60 DUP4 ADD CALLDATALOAD PUSH1 0x60 DUP3 ADD MSTORE POP SWAP3 SWAP2 POP POP JUMP JUMPDEST PUSH1 0x0 DUP1 PUSH1 0x0 DUP1 PUSH2 0x140 DUP6 DUP8 SUB SLT ISZERO PUSH2 0x173C JUMPI PUSH1 0x0 DUP1 REVERT JUMPDEST PUSH2 0x1746 DUP7 DUP7 PUSH2 0x16B1 JUMP JUMPDEST SWAP4 POP PUSH2 0x1755 DUP7 PUSH1 0x80 DUP8 ADD PUSH2 0x16B1 JUMP JUMPDEST SWAP4 SWAP7 SWAP4 SWAP6 POP POP POP POP PUSH2 0x100 DUP3 ADD CALLDATALOAD SWAP2 PUSH2 0x120 ADD CALLDATALOAD SWAP1 JUMP JUMPDEST PUSH1 0x0 DUP1 PUSH1 0xA0 DUP4 DUP6 SUB SLT ISZERO PUSH2 0x177F JUMPI PUSH1 0x0 DUP1 REVERT JUMPDEST DUP3 CALLDATALOAD SWAP2 POP PUSH2 0x1790 DUP5 PUSH1 0x20 DUP6 ADD PUSH2 0x16B1 JUMP JUMPDEST SWAP1 POP SWAP3 POP SWAP3 SWAP1 POP JUMP JUMPDEST PUSH1 0x0 PUSH1 0x20 DUP3 DUP5 SUB SLT ISZERO PUSH2 0x17AB JUMPI PUSH1 0x0 DUP1 REVERT JUMPDEST POP CALLDATALOAD SWAP2 SWAP1 POP JUMP JUMPDEST DUP2 MLOAD PUSH1 0x1 PUSH1 0x1 PUSH1 0xA0 SHL SUB AND DUP2 MSTORE PUSH2 0x260 DUP2 ADD PUSH1 0x20 DUP4 ADD MLOAD PUSH1 0x20 DUP4 ADD MSTORE PUSH1 0x40 DUP4 ADD MLOAD PUSH1 0x40 DUP4 ADD MSTORE PUSH1 0x60 DUP4 ADD MLOAD PUSH1 0x60 DUP4 ADD MSTORE PUSH1 0x80 DUP4 ADD MLOAD PUSH2 0x1815 PUSH1 0x80 DUP5 ADD DUP3 DUP1 MLOAD DUP3 MSTORE PUSH1 0x20 DUP2 ADD MLOAD PUSH1 0x20 DUP4 ADD MSTORE PUSH1 0x40 DUP2 ADD MLOAD PUSH1 0x40 DUP4 ADD MSTORE PUSH1 0x60 DUP2 ADD MLOAD PUSH1 0x60 DUP4 ADD MSTORE POP POP JUMP JUMPDEST POP PUSH1 0xA0 DUP4 ADD MLOAD DUP1 MLOAD PUSH2 0x100 DUP5 DUP2 ADD SWAP2 SWAP1 SWAP2 MSTORE PUSH1 0x20 DUP3 ADD MLOAD PUSH2 0x120 DUP6 ADD MSTORE PUSH1 0x40 DUP3 ADD MLOAD PUSH2 0x140 DUP6 ADD MSTORE PUSH1 0x60 DUP3 ADD MLOAD PUSH2 0x160 DUP6 ADD MSTORE PUSH1 0xC0 DUP6 ADD MLOAD PUSH2 0x180 DUP6 DUP2 ADD SWAP2 SWAP1 SWAP2 MSTORE PUSH1 0xE0 DUP7 ADD MLOAD PUSH2 0x1A0 DUP7 ADD MSTORE DUP2 DUP7 ADD MLOAD DUP1 ISZERO ISZERO PUSH2 0x1C0 DUP8 ADD MSTORE SWAP3 POP PUSH2 0x120 DUP7 ADD MLOAD DUP1 ISZERO ISZERO PUSH2 0x1E0 DUP8 ADD MSTORE SWAP3 POP PUSH2 0x140 DUP7 ADD MLOAD PUSH2 0x200 DUP7 ADD MSTORE PUSH2 0x160 DUP7 ADD MLOAD PUSH2 0x220 DUP7 ADD MSTORE DUP1 DUP7 ADD MLOAD PUSH2 0x240 DUP7 ADD MSTORE POP POP POP SWAP3 SWAP2 POP POP JUMP JUMPDEST PUSH1 0x0 DUP1 PUSH1 0x40 DUP4 DUP6 SUB SLT ISZERO PUSH2 0x18C0 JUMPI PUSH1 0x0 DUP1 REVERT JUMPDEST POP POP DUP1 CALLDATALOAD SWAP3 PUSH1 0x20 SWAP1 SWAP2 ADD CALLDATALOAD SWAP2 POP JUMP JUMPDEST PUSH1 0x0 DUP1 PUSH1 0x40 DUP4 DUP6 SUB SLT ISZERO PUSH2 0x18E2 JUMPI PUSH1 0x0 DUP1 REVERT JUMPDEST DUP3 CALLDATALOAD SWAP2 POP PUSH1 0x20 DUP4 ADD CALLDATALOAD DUP1 ISZERO ISZERO DUP2 EQ PUSH2 0x18F9 JUMPI PUSH1 0x0 DUP1 REVERT JUMPDEST DUP1 SWAP2 POP POP SWAP3 POP SWAP3 SWAP1 POP JUMP JUMPDEST PUSH4 0x4E487B71 PUSH1 0xE0 SHL PUSH1 0x0 MSTORE PUSH1 0x11 PUSH1 0x4 MSTORE PUSH1 0x24 PUSH1 0x0 REVERT JUMPDEST DUP1 DUP3 MUL DUP2 ISZERO DUP3 DUP3 DIV DUP5 EQ OR PUSH2 0x1270 JUMPI PUSH2 0x1270 PUSH2 0x1904 JUMP JUMPDEST PUSH4 0x4E487B71 PUSH1 0xE0 SHL PUSH1 0x0 MSTORE PUSH1 0x12 PUSH1 0x4 MSTORE PUSH1 0x24 PUSH1 0x0 REVERT JUMPDEST PUSH1 0x0 DUP3 PUSH2 0x1956 JUMPI PUSH2 0x1956 PUSH2 0x1931 JUMP JUMPDEST POP DIV SWAP1 JUMP JUMPDEST DUP1 DUP3 ADD DUP1 DUP3 GT ISZERO PUSH2 0x1270 JUMPI PUSH2 0x1270 PUSH2 0x1904 JUMP JUMPDEST DUP2 DUP2 SUB PUSH1 0x0 DUP4 SLT DUP1 ISZERO DUP4 DUP4 SGT AND DUP4 DUP4 SLT DUP3 AND OR ISZERO PUSH2 0x198E JUMPI PUSH2 0x198E PUSH2 0x1904 JUMP JUMPDEST POP SWAP3 SWAP2 POP POP JUMP JUMPDEST DUP1 DUP3 MUL PUSH1 0x0 DUP3 SLT PUSH1 0x1 PUSH1 0xFF SHL DUP5 EQ AND ISZERO PUSH2 0x19B1 JUMPI PUSH2 0x19B1 PUSH2 0x1904 JUMP JUMPDEST DUP2 DUP2 SDIV DUP4 EQ DUP3 ISZERO OR PUSH2 0x1270 JUMPI PUSH2 0x1270 PUSH2 0x1904 JUMP JUMPDEST PUSH1 0x0 DUP3 PUSH2 0x19D4 JUMPI PUSH2 0x19D4 PUSH2 0x1931 JUMP JUMPDEST PUSH1 0x1 PUSH1 0xFF SHL DUP3 EQ PUSH1 0x0 NOT DUP5 EQ AND ISZERO PUSH2 0x19EE JUMPI PUSH2 0x19EE PUSH2 0x1904 JUMP JUMPDEST POP SDIV SWAP1 JUMP JUMPDEST DUP1 DUP3 ADD DUP3 DUP2 SLT PUSH1 0x0 DUP4 SLT DUP1 ISZERO DUP3 AND DUP3 ISZERO DUP3 AND OR ISZERO PUSH2 0x1A13 JUMPI PUSH2 0x1A13 PUSH2 0x1904 JUMP JUMPDEST POP POP SWAP3 SWAP2 POP POP JUMP JUMPDEST PUSH1 0x0 PUSH1 0x1 DUP3 ADD PUSH2 0x1A2D JUMPI PUSH2 0x1A2D PUSH2 0x1904 JUMP JUMPDEST POP PUSH1 0x1 ADD SWAP1 JUMP JUMPDEST DUP5 DUP2 MSTORE PUSH1 0x20 DUP2 ADD DUP5 SWAP1 MSTORE PUSH2 0x140 DUP2 ADD PUSH2 0x1A71 PUSH1 0x40 DUP4 ADD DUP6 DUP1 MLOAD DUP3 MSTORE PUSH1 0x20 DUP2 ADD MLOAD PUSH1 0x20 DUP4 ADD MSTORE PUSH1 0x40 DUP2 ADD MLOAD PUSH1 0x40 DUP4 ADD MSTORE PUSH1 0x60 DUP2 ADD MLOAD PUSH1 0x60 DUP4 ADD MSTORE POP POP JUMP JUMPDEST DUP3 MLOAD PUSH1 0xC0 DUP4 ADD MSTORE PUSH1 0x20 DUP4 ADD MLOAD PUSH1 0xE0 DUP4 ADD MSTORE PUSH1 0x40 DUP4 ADD MLOAD PUSH2 0x100 DUP4 ADD MSTORE PUSH1 0x60 DUP4 ADD MLOAD PUSH2 0x120 DUP4 ADD MSTORE SWAP6 SWAP5 POP POP POP POP POP JUMP JUMPDEST DUP2 DUP2 SUB DUP2 DUP2 GT ISZERO PUSH2 0x1270 JUMPI PUSH2 0x1270 PUSH2 0x1904 JUMP JUMPDEST PUSH4 0x4E487B71 PUSH1 0xE0 SHL PUSH1 0x0 MSTORE PUSH1 0x32 PUSH1 0x4 MSTORE PUSH1 0x24 PUSH1 0x0 REVERT INVALID LOG2 PUSH5 0x6970667358 0x22 SLT KECCAK256 0xB1 CALLDATALOAD 0xDD MULMOD DUP8 0xAE PUSH19 0xFEDD047FAC52991A08444FAD5CA7FEC1D12DD2 DUP2 0xC8 CALLDATALOAD 0x4F SDIV SGT PUSH5 0x736F6C6343 STOP ADDMOD AND STOP CALLER "},"methodIdentifiers":{"EARTH_RADIUS_METERS()":"f873eeab","INITIAL_REPUTATION()":"7b057258","PROTOCOL_FEE()":"0b4501fd","calculateDistance(int256,int256,int256,int256)":"12718525","calculateReputationScore(address)":"0a8fa825","commitmentBets(bytes32,uint256)":"b118174d","commitments(bytes32)":"839df945","createCommitment((int256,int256,uint256,uint256),(int256,int256,uint256,uint256),uint256,uint256)":"192aa9cf","fulfillCommitment(bytes32,(int256,int256,uint256,uint256))":"581ac32d","getCommitment(bytes32)":"7795820c","getUserReputation(address)":"baccbfdb","owner()":"8da5cb5b","placeBet(bytes32,bool)":"b162c6e6","protocolFeeBalance()":"0a22d68c","userReputationScore(address)":"f541d890","userSuccessfulCommitments(address)":"de0c13ca","userTotalCommitments(address)":"9af9338d","userTotalStaked(address)":"719de1ef","withdrawProtocolFees()":"8795cccb"}}}}}