{"contracts/core/PunctualityCore.sol":{"PunctualityCore":{"abi":[{"inputs":[],"stateMutability":"nonpayable","type":"constructor"},{"anonymous":false,"inputs":[{"indexed":true,"internalType":"bytes32","name":"commitmentId","type":"bytes32"},{"indexed":true,"internalType":"address","name":"bettor","type":"address"},{"indexed":false,"internalType":"uint256","name":"betAmount","type":"uint256"},{"indexed":false,"internalType":"bool","name":"bettingFor","type":"bool"}],"name":"BetPlaced","type":"event"},{"anonymous":false,"inputs":[{"indexed":true,"internalType":"bytes32","name":"commitmentId","type":"bytes32"},{"indexed":true,"internalType":"address","name":"user","type":"address"},{"indexed":false,"internalType":"uint256","name":"stakeAmount","type":"uint256"},{"indexed":false,"internalType":"uint256","name":"arrivalDeadline","type":"uint256"},{"components":[{"internalType":"int256","name":"latitude","type":"int256"},{"internalType":"int256","name":"longitude","type":"int256"},{"internalType":"uint256","name":"accuracy","type":"uint256"},{"internalType":"uint256","name":"timestamp","type":"uint256"}],"indexed":false,"internalType":"struct PunctualityCore.LocationData","name":"startLocation","type":"tuple"},{"components":[{"internalType":"int256","name":"latitude","type":"int256"},{"internalType":"int256","name":"longitude","type":"int256"},{"internalType":"uint256","name":"accuracy","type":"uint256"},{"internalType":"uint256","name":"timestamp","type":"uint256"}],"indexed":false,"internalType":"struct PunctualityCore.LocationData","name":"targetLocation","type":"tuple"}],"name":"CommitmentCreated","type":"event"},{"anonymous":false,"inputs":[{"indexed":true,"internalType":"bytes32","name":"commitmentId","type":"bytes32"},{"indexed":true,"internalType":"address","name":"user","type":"address"},{"indexed":false,"internalType":"bool","name":"successful","type":"bool"},{"indexed":false,"internalType":"uint256","name":"actualArrivalTime","type":"uint256"},{"indexed":false,"internalType":"uint256","name":"rewardAmount","type":"uint256"}],"name":"CommitmentFulfilled","type":"event"},{"inputs":[],"name":"EARTH_RADIUS_METERS","outputs":[{"internalType":"uint256","name":"","type":"uint256"}],"stateMutability":"view","type":"function"},{"inputs":[],"name":"INITIAL_REPUTATION","outputs":[{"internalType":"uint256","name":"","type":"uint256"}],"stateMutability":"view","type":"function"},{"inputs":[],"name":"PROTOCOL_FEE","outputs":[{"internalType":"uint256","name":"","type":"uint256"}],"stateMutability":"view","type":"function"},{"inputs":[{"internalType":"int256","name":"lat1","type":"int256"},{"internalType":"int256","name":"lon1","type":"int256"},{"internalType":"int256","name":"lat2","type":"int256"},{"internalType":"int256","name":"lon2","type":"int256"}],"name":"calculateDistance","outputs":[{"internalType":"uint256","name":"","type":"uint256"}],"stateMutability":"pure","type":"function"},{"inputs":[{"internalType":"uint256","name":"distance","type":"uint256"},{"internalType":"uint256","name":"pace","type":"uint256"}],"name":"calculateETA","outputs":[{"internalType":"uint256","name":"","type":"uint256"}],"stateMutability":"pure","type":"function"},{"inputs":[{"internalType":"address","name":"user","type":"address"}],"name":"calculateReputationScore","outputs":[{"internalType":"uint256","name":"","type":"uint256"}],"stateMutability":"view","type":"function"},{"inputs":[{"internalType":"bytes32","name":"","type":"bytes32"},{"internalType":"uint256","name":"","type":"uint256"}],"name":"commitmentBets","outputs":[{"internalType":"address","name":"bettor","type":"address"},{"internalType":"uint256","name":"amount","type":"uint256"},{"internalType":"bool","name":"bettingFor","type":"bool"},{"internalType":"bool","name":"claimed","type":"bool"}],"stateMutability":"view","type":"function"},{"inputs":[{"internalType":"bytes32","name":"","type":"bytes32"}],"name":"commitments","outputs":[{"internalType":"address","name":"user","type":"address"},{"internalType":"uint256","name":"stakeAmount","type":"uint256"},{"internalType":"uint256","name":"commitmentTime","type":"uint256"},{"internalType":"uint256","name":"arrivalDeadline","type":"uint256"},{"components":[{"internalType":"int256","name":"latitude","type":"int256"},{"internalType":"int256","name":"longitude","type":"int256"},{"internalType":"uint256","name":"accuracy","type":"uint256"},{"internalType":"uint256","name":"timestamp","type":"uint256"}],"internalType":"struct PunctualityCore.LocationData","name":"startLocation","type":"tuple"},{"components":[{"internalType":"int256","name":"latitude","type":"int256"},{"internalType":"int256","name":"longitude","type":"int256"},{"internalType":"uint256","name":"accuracy","type":"uint256"},{"internalType":"uint256","name":"timestamp","type":"uint256"}],"internalType":"struct PunctualityCore.LocationData","name":"targetLocation","type":"tuple"},{"internalType":"uint256","name":"estimatedDistance","type":"uint256"},{"internalType":"uint256","name":"estimatedPace","type":"uint256"},{"internalType":"bool","name":"fulfilled","type":"bool"},{"internalType":"bool","name":"successful","type":"bool"},{"internalType":"uint256","name":"actualArrivalTime","type":"uint256"},{"internalType":"uint256","name":"totalBetsFor","type":"uint256"},{"internalType":"uint256","name":"totalBetsAgainst","type":"uint256"}],"stateMutability":"view","type":"function"},{"inputs":[{"components":[{"internalType":"int256","name":"latitude","type":"int256"},{"internalType":"int256","name":"longitude","type":"int256"},{"internalType":"uint256","name":"accuracy","type":"uint256"},{"internalType":"uint256","name":"timestamp","type":"uint256"}],"internalType":"struct PunctualityCore.LocationData","name":"startLocation","type":"tuple"},{"components":[{"internalType":"int256","name":"latitude","type":"int256"},{"internalType":"int256","name":"longitude","type":"int256"},{"internalType":"uint256","name":"accuracy","type":"uint256"},{"internalType":"uint256","name":"timestamp","type":"uint256"}],"internalType":"struct PunctualityCore.LocationData","name":"targetLocation","type":"tuple"},{"internalType":"uint256","name":"arrivalDeadline","type":"uint256"},{"internalType":"uint256","name":"estimatedPace","type":"uint256"}],"name":"createCommitment","outputs":[{"internalType":"bytes32","name":"","type":"bytes32"}],"stateMutability":"payable","type":"function"},{"inputs":[{"internalType":"bytes32","name":"commitmentId","type":"bytes32"},{"components":[{"internalType":"int256","name":"latitude","type":"int256"},{"internalType":"int256","name":"longitude","type":"int256"},{"internalType":"uint256","name":"accuracy","type":"uint256"},{"internalType":"uint256","name":"timestamp","type":"uint256"}],"internalType":"struct PunctualityCore.LocationData","name":"arrivalLocation","type":"tuple"}],"name":"fulfillCommitment","outputs":[],"stateMutability":"nonpayable","type":"function"},{"inputs":[{"internalType":"bytes32","name":"commitmentId","type":"bytes32"}],"name":"getCommitment","outputs":[{"components":[{"internalType":"address","name":"user","type":"address"},{"internalType":"uint256","name":"stakeAmount","type":"uint256"},{"internalType":"uint256","name":"commitmentTime","type":"uint256"},{"internalType":"uint256","name":"arrivalDeadline","type":"uint256"},{"components":[{"internalType":"int256","name":"latitude","type":"int256"},{"internalType":"int256","name":"longitude","type":"int256"},{"internalType":"uint256","name":"accuracy","type":"uint256"},{"internalType":"uint256","name":"timestamp","type":"uint256"}],"internalType":"struct PunctualityCore.LocationData","name":"startLocation","type":"tuple"},{"components":[{"internalType":"int256","name":"latitude","type":"int256"},{"internalType":"int256","name":"longitude","type":"int256"},{"internalType":"uint256","name":"accuracy","type":"uint256"},{"internalType":"uint256","name":"timestamp","type":"uint256"}],"internalType":"struct PunctualityCore.LocationData","name":"targetLocation","type":"tuple"},{"internalType":"uint256","name":"estimatedDistance","type":"uint256"},{"internalType":"uint256","name":"estimatedPace","type":"uint256"},{"internalType":"bool","name":"fulfilled","type":"bool"},{"internalType":"bool","name":"successful","type":"bool"},{"internalType":"uint256","name":"actualArrivalTime","type":"uint256"},{"internalType":"uint256","name":"totalBetsFor","type":"uint256"},{"internalType":"uint256","name":"totalBetsAgainst","type":"uint256"}],"internalType":"struct PunctualityCore.ETACommitment","name":"","type":"tuple"}],"stateMutability":"view","type":"function"},{"inputs":[{"internalType":"address","name":"user","type":"address"}],"name":"getUserReputation","outputs":[{"internalType":"uint256","name":"","type":"uint256"}],"stateMutability":"view","type":"function"},{"inputs":[],"name":"owner","outputs":[{"internalType":"address","name":"","type":"address"}],"stateMutability":"view","type":"function"},{"inputs":[{"internalType":"bytes32","name":"commitmentId","type":"bytes32"},{"internalType":"bool","name":"bettingFor","type":"bool"}],"name":"placeBet","outputs":[],"stateMutability":"payable","type":"function"},{"inputs":[],"name":"protocolFeeBalance","outputs":[{"internalType":"uint256","name":"","type":"uint256"}],"stateMutability":"view","type":"function"},{"inputs":[{"internalType":"address","name":"","type":"address"}],"name":"userReputationScore","outputs":[{"internalType":"uint256","name":"","type":"uint256"}],"stateMutability":"view","type":"function"},{"inputs":[{"internalType":"address","name":"","type":"address"}],"name":"userSuccessfulCommitments","outputs":[{"internalType":"uint256","name":"","type":"uint256"}],"stateMutability":"view","type":"function"},{"inputs":[{"internalType":"address","name":"","type":"address"}],"name":"userTotalCommitments","outputs":[{"internalType":"uint256","name":"","type":"uint256"}],"stateMutability":"view","type":"function"},{"inputs":[{"internalType":"address","name":"","type":"address"}],"name":"userTotalStaked","outputs":[{"internalType":"uint256","name":"","type":"uint256"}],"stateMutability":"view","type":"function"},{"inputs":[],"name":"withdrawProtocolFees","outputs":[],"stateMutability":"nonpayable","type":"function"}],"evm":{"bytecode":{"linkReferences":{},"object":"608060405234801561001057600080fd5b50600680546001600160a01b03191633179055611b45806100326000396000f3fe60806040526004361061011f5760003560e01c80638795cccb116100a0578063baccbfdb11610064578063baccbfdb146104bf578063cab7a45d146104df578063de0c13ca146104ff578063f541d8901461052c578063f873eeab1461055957600080fd5b80638795cccb146103e05780638da5cb5b146103f55780639af9338d1461042d578063b118174d1461045a578063b162c6e6146104ac57600080fd5b8063581ac32d116100e7578063581ac32d146101b5578063719de1ef146101d75780637795820c146102045780637b05725814610231578063839df9451461024757600080fd5b80630a22d68c146101245780630a8fa8251461014d5780630b4501fd1461016d5780631271852514610182578063192aa9cf146101a2575b600080fd5b34801561013057600080fd5b5061013a60075481565b6040519081526020015b60405180910390f35b34801561015957600080fd5b5061013a61016836600461169b565b610570565b34801561017957600080fd5b5061013a60fa81565b34801561018e57600080fd5b5061013a61019d3660046116c4565b610619565b61013a6101b036600461176a565b6106c1565b3480156101c157600080fd5b506101d56101d03660046117b1565b610aa2565b005b3480156101e357600080fd5b5061013a6101f236600461169b565b60036020526000908152604090205481565b34801561021057600080fd5b5061022461021f3660046117de565b610d26565b60405161014491906117f7565b34801561023d57600080fd5b5061013a611d4c81565b34801561025357600080fd5b5061032c6102623660046117de565b600060208181529181526040908190208054600182015460028301546003840154855160808082018852600487015482526005870154828a015260068701548289015260078701546060808401919091528851918201895260088801548252600988015499820199909952600a87015497810197909752600b86015497870197909752600c850154600d860154600e870154600f88015460108901546011909901546001600160a01b039098169a9699959894979394929360ff808416946101009094041692908d565b604080516001600160a01b03909e168e526020808f019d909d528d81019b909b526060808e019a909a52885160808e01528b89015160a08e0152888b015160c08e01529789015160e08d015286516101008d0152998601516101208c0152978501516101408b015295909301516101608901526101808801919091526101a087015215156101c08601529015156101e085015261020084019190915261022083019190915261024082015261026001610144565b3480156103ec57600080fd5b506101d5610e3a565b34801561040157600080fd5b50600654610415906001600160a01b031681565b6040516001600160a01b039091168152602001610144565b34801561043957600080fd5b5061013a61044836600461169b565b60056020526000908152604090205481565b34801561046657600080fd5b5061047a6104753660046118f2565b610ee8565b604080516001600160a01b03909516855260208501939093529015159183019190915215156060820152608001610144565b6101d56104ba366004611914565b610f40565b3480156104cb57600080fd5b5061013a6104da36600461169b565b61125b565b3480156104eb57600080fd5b5061013a6104fa3660046118f2565b6112a1565b34801561050b57600080fd5b5061013a61051a36600461169b565b60046020526000908152604090205481565b34801561053857600080fd5b5061013a61054736600461169b565b60026020526000908152604090205481565b34801561056557600080fd5b5061013a626136b881565b6001600160a01b03811660009081526005602052604081205480820361059a5750611d4c92915050565b6001600160a01b03831660009081526004602052604081205490826105c18361271061195f565b6105cb919061198c565b905080600a83106105e5576105e26101f4826119a0565b90505b603283106105fc576105f96101f4826119a0565b90505b612710811161060b578061060f565b6127105b9695505050505050565b600080621b774061062a87866119b3565b61063690617ab86119da565b6106409190611a0a565b90506000621b774061065287866119b3565b61065e90617ab86119da565b6106689190611a0a565b90506000620f424061067a83806119da565b61068485806119da565b61068e9190611a38565b6106989190611a0a565b9050620f42406106ab626136b88361195f565b6106b5919061198c565b98975050505050505050565b60008034116107235760405162461bcd60e51b815260206004820152602360248201527f5374616b6520616d6f756e74206d75737420626520677265617465722074686160448201526206e20360ec1b60648201526084015b60405180910390fd5b4283116107725760405162461bcd60e51b815260206004820152601e60248201527f446561646c696e65206d75737420626520696e20746865206675747572650000604482015260640161071a565b600082116107c25760405162461bcd60e51b815260206004820152601b60248201527f50616365206d7573742062652067726561746572207468616e20300000000000604482015260640161071a565b60006107e08660000151876020015187600001518860200151610619565b86516020808901518851898301516040516bffffffffffffffffffffffff193360601b169481019490945242603485015260548401949094526074830191909152609482015260b481019190915290915060009060d401604051602081830303815290604052805190602001209050604051806101a00160405280336001600160a01b031681526020013481526020014281526020018681526020018881526020018781526020018381526020018581526020016000151581526020016000151581526020016000815260200160008152602001600081525060008083815260200190815260200160002060008201518160000160006101000a8154816001600160a01b0302191690836001600160a01b0316021790555060208201518160010155604082015181600201556060820151816003015560808201518160040160008201518160000155602082015181600101556040820151816002015560608201518160030155505060a08201518160080160008201518160000155602082015181600101556040820151816002015560608201518160030155505060c082015181600c015560e082015181600d015561010082015181600e0160006101000a81548160ff02191690831515021790555061012082015181600e0160016101000a81548160ff02191690831515021790555061014082015181600f0155610160820151816010015561018082015181601101559050503460036000336001600160a01b03166001600160a01b031681526020019081526020016000206000828254610a2b91906119a0565b9091555050336000908152600560205260408120805491610a4b83611a60565b9190505550336001600160a01b0316817f2ab4d5a74b3917397a7ab399780894f3915d63c66fa75d64882ba219fea5610034888b8b604051610a909493929190611a79565b60405180910390a39695505050505050565b60008281526020819052604090205482906001600160a01b0316610b045760405162461bcd60e51b815260206004820152601960248201527810dbdb5b5a5d1b595b9d08191bd95cc81b9bdd08195e1a5cdd603a1b604482015260640161071a565b600083815260208190526040902080546001600160a01b03163314610b775760405162461bcd60e51b815260206004820152602360248201527f4f6e6c7920636f6d6d69746d656e742063726561746f722063616e2066756c666044820152621a5b1b60ea1b606482015260840161071a565b600e81015460ff1615610bcc5760405162461bcd60e51b815260206004820152601c60248201527f436f6d6d69746d656e7420616c72656164792066756c66696c6c656400000000604482015260640161071a565b6000610bf08260080160000154836008016001015486600001518760200151610619565b90506064811115610c4f5760405162461bcd60e51b8152602060048201526024808201527f4172726976616c206c6f636174696f6e20746f6f206661722066726f6d2074616044820152631c99d95d60e21b606482015260840161071a565b6003820154600e8301805461010042938411801591820261ffff1990931692909217600117909255600f85019290925590610cbe57336000908152600460205260408120805491610c9f83611a60565b9190505550610cad33610570565b336000908152600260205260409020555b610cc7866112c2565b33867f70ca586fcb861ba47586fa95a762bf13c4e13aee7699711ac3d3adb0ef7673f9834281610cf8576000610cfe565b87600101545b60408051931515845260208401929092529082015260600160405180910390a3505050505050565b610d2e6115d4565b506000908152602081815260409182902082516101a08101845281546001600160a01b03168152600182015481840152600282015481850152600382015460608083019190915284516080818101875260048501548252600585015482870152600685015482880152600785015482840152808401919091528551908101865260088401548152600984015494810194909452600a83015494840194909452600b8201549383019390935260a0830191909152600c81015460c0830152600d81015460e0830152600e81015460ff808216151561010080860191909152909104161515610120830152600f81015461014083015260108101546101608301526011015461018082015290565b6006546001600160a01b03163314610e9f5760405162461bcd60e51b815260206004820152602260248201527f4f6e6c79206f776e65722063616e20706572666f726d2074686973206163746960448201526137b760f11b606482015260840161071a565b6007805460009182905560065460405191926001600160a01b039091169183156108fc0291849190818181858888f19350505050158015610ee4573d6000803e3d6000fd5b5050565b60016020528160005260406000208181548110610f0457600080fd5b60009182526020909120600390910201805460018201546002909201546001600160a01b03909116935090915060ff8082169161010090041684565b60008281526020819052604090205482906001600160a01b0316610fa25760405162461bcd60e51b815260206004820152601960248201527810dbdb5b5a5d1b595b9d08191bd95cc81b9bdd08195e1a5cdd603a1b604482015260640161071a565b60003411610ffc5760405162461bcd60e51b815260206004820152602160248201527f42657420616d6f756e74206d7573742062652067726561746572207468616e206044820152600360fc1b606482015260840161071a565b6000838152602081905260409020600e015460ff161561105e5760405162461bcd60e51b815260206004820152601c60248201527f436f6d6d69746d656e7420616c72656164792066756c66696c6c656400000000604482015260640161071a565b600083815260208190526040902054336001600160a01b03909116036110c65760405162461bcd60e51b815260206004820152601c60248201527f43616e6e6f7420626574206f6e206f776e20636f6d6d69746d656e7400000000604482015260640161071a565b60008381526020819052604090206003015442106111265760405162461bcd60e51b815260206004820152601960248201527f43616e6e6f742062657420616674657220646561646c696e6500000000000000604482015260640161071a565b6000838152600160208181526040808420815160808101835233815234818501908152881580159483019485526060830188815284548089018655948952959097209151600390930290910180546001600160a01b0319166001600160a01b0390931692909217825551938101939093555160029092018054915161ffff1990921692151561ff00191692909217610100911515919091021790556111f157600083815260208190526040812060100180543492906111e69084906119a0565b909155506112189050565b600083815260208190526040812060110180543492906112129084906119a0565b90915550505b604080513481528315156020820152339185917fd16174e715659dbd1a7c4b7325dc4def5852b62256790341072d1bd59758849c910160405180910390a3505050565b6001600160a01b03811660009081526002602052604081205415611297576001600160a01b03821660009081526002602052604090205461129b565b611d4c5b92915050565b6000620274a66112b1838561195f565b6112bb919061198c565b9392505050565b60008181526020819052604081206001810154909190612710906112e89060fa9061195f565b6112f2919061198c565b600e830154909150610100900460ff16156113bb5760008183600101546113199190611ae6565b6011840154909150801561135b57600061271061133760fa8461195f565b611341919061198c565b61134b9083611ae6565b905061135781846119a0565b9250505b83546040516001600160a01b039091169083156108fc029084906000818181858888f19350505050158015611394573d6000803e3d6000fd5b506113b4856001866011015487601001546113af91906119a0565b611400565b50506113e4565b6113e48360008460110154856010015486600101546113da91906119a0565b6113af91906119a0565b80600760008282546113f691906119a0565b9091555050505050565b6000838152600160205260408120908361142b5760008581526020819052604090206011015461143e565b6000858152602081905260409020601001545b90508060000361144f575050505050565b60005b82548110156115cc5784151583828154811061147057611470611af9565b600091825260209091206002600390920201015460ff1615151480156114c457508281815481106114a3576114a3611af9565b906000526020600020906003020160020160019054906101000a900460ff16155b156115c457600082858584815481106114df576114df611af9565b9060005260206000209060030201600101546114fb919061195f565b611505919061198c565b9050600061271061151760fa8461195f565b611521919061198c565b61152b9083611ae6565b9050600185848154811061154157611541611af9565b906000526020600020906003020160020160016101000a81548160ff02191690831515021790555084838154811061157b5761157b611af9565b600091825260208220600390910201546040516001600160a01b039091169183156108fc02918491818181858888f193505050501580156115c0573d6000803e3d6000fd5b5050505b600101611452565b505050505050565b604051806101a0016040528060006001600160a01b031681526020016000815260200160008152602001600081526020016116306040518060800160405280600081526020016000815260200160008152602001600081525090565b81526020016116606040518060800160405280600081526020016000815260200160008152602001600081525090565b815260200160008152602001600081526020016000151581526020016000151581526020016000815260200160008152602001600081525090565b6000602082840312156116ad57600080fd5b81356001600160a01b03811681146112bb57600080fd5b600080600080608085870312156116da57600080fd5b5050823594602084013594506040840135936060013592509050565b60006080828403121561170857600080fd5b6040516080810181811067ffffffffffffffff8211171561173957634e487b7160e01b600052604160045260246000fd5b8060405250809150823581526020830135602082015260408301356040820152606083013560608201525092915050565b600080600080610140858703121561178157600080fd5b61178b86866116f6565b935061179a86608087016116f6565b939693955050505061010082013591610120013590565b60008060a083850312156117c457600080fd5b823591506117d584602085016116f6565b90509250929050565b6000602082840312156117f057600080fd5b5035919050565b81516001600160a01b031681526102608101602083015160208301526040830151604083015260608301516060830152608083015161185a6080840182805182526020810151602083015260408101516040830152606081015160608301525050565b5060a083015180516101008481019190915260208201516101208501526040820151610140850152606082015161016085015260c08501516101808581019190915260e08601516101a0860152818601518015156101c087015292506101208601518015156101e087015292506101408601516102008601526101608601516102208601528086015161024086015250505092915050565b6000806040838503121561190557600080fd5b50508035926020909101359150565b6000806040838503121561192757600080fd5b823591506020830135801515811461193e57600080fd5b809150509250929050565b634e487b7160e01b600052601160045260246000fd5b808202811582820484141761129b5761129b611949565b634e487b7160e01b600052601260045260246000fd5b60008261199b5761199b611976565b500490565b8082018082111561129b5761129b611949565b81810360008312801583831316838312821617156119d3576119d3611949565b5092915050565b80820260008212600160ff1b841416156119f6576119f6611949565b818105831482151761129b5761129b611949565b600082611a1957611a19611976565b600160ff1b821460001984141615611a3357611a33611949565b500590565b8082018281126000831280158216821582161715611a5857611a58611949565b505092915050565b600060018201611a7257611a72611949565b5060010190565b848152602081018490526101408101611ab66040830185805182526020810151602083015260408101516040830152606081015160608301525050565b825160c0830152602083015160e08301526040830151610100830152606083015161012083015295945050505050565b8181038181111561129b5761129b611949565b634e487b7160e01b600052603260045260246000fdfea2646970667358221220a881a3db1cf6cef6119a2cc9807bd5e158ba0a5dfde9a26b8dadc486ec42dcb764736f6c63430008160033","opcodes":"PUSH1 0x80 PUSH1 0x40 MSTORE CALLVALUE DUP1 ISZERO PUSH2 0x10 JUMPI PUSH1 0x0 DUP1 REVERT JUMPDEST POP PUSH1 0x6 DUP1 SLOAD PUSH1 0x1 PUSH1 0x1 PUSH1 0xA0 SHL SUB NOT AND CALLER OR SWAP1 SSTORE PUSH2 0x1B45 DUP1 PUSH2 0x32 PUSH1 0x0 CODECOPY PUSH1 0x0 RETURN INVALID PUSH1 0x80 PUSH1 0x40 MSTORE PUSH1 0x4 CALLDATASIZE LT PUSH2 0x11F JUMPI PUSH1 0x0 CALLDATALOAD PUSH1 0xE0 SHR DUP1 PUSH4 0x8795CCCB GT PUSH2 0xA0 JUMPI DUP1 PUSH4 0xBACCBFDB GT PUSH2 0x64 JUMPI DUP1 PUSH4 0xBACCBFDB EQ PUSH2 0x4BF JUMPI DUP1 PUSH4 0xCAB7A45D EQ PUSH2 0x4DF JUMPI DUP1 PUSH4 0xDE0C13CA EQ PUSH2 0x4FF JUMPI DUP1 PUSH4 0xF541D890 EQ PUSH2 0x52C JUMPI DUP1 PUSH4 0xF873EEAB EQ PUSH2 0x559 JUMPI PUSH1 0x0 DUP1 REVERT JUMPDEST DUP1 PUSH4 0x8795CCCB EQ PUSH2 0x3E0 JUMPI DUP1 PUSH4 0x8DA5CB5B EQ PUSH2 0x3F5 JUMPI DUP1 PUSH4 0x9AF9338D EQ PUSH2 0x42D JUMPI DUP1 PUSH4 0xB118174D EQ PUSH2 0x45A JUMPI DUP1 PUSH4 0xB162C6E6 EQ PUSH2 0x4AC JUMPI PUSH1 0x0 DUP1 REVERT JUMPDEST DUP1 PUSH4 0x581AC32D GT PUSH2 0xE7 JUMPI DUP1 PUSH4 0x581AC32D EQ PUSH2 0x1B5 JUMPI DUP1 PUSH4 0x719DE1EF EQ PUSH2 0x1D7 JUMPI DUP1 PUSH4 0x7795820C EQ PUSH2 0x204 JUMPI DUP1 PUSH4 0x7B057258 EQ PUSH2 0x231 JUMPI DUP1 PUSH4 0x839DF945 EQ PUSH2 0x247 JUMPI PUSH1 0x0 DUP1 REVERT JUMPDEST DUP1 PUSH4 0xA22D68C EQ PUSH2 0x124 JUMPI DUP1 PUSH4 0xA8FA825 EQ PUSH2 0x14D JUMPI DUP1 PUSH4 0xB4501FD EQ PUSH2 0x16D JUMPI DUP1 PUSH4 0x12718525 EQ PUSH2 0x182 JUMPI DUP1 PUSH4 0x192AA9CF EQ PUSH2 0x1A2 JUMPI JUMPDEST PUSH1 0x0 DUP1 REVERT JUMPDEST CALLVALUE DUP1 ISZERO PUSH2 0x130 JUMPI PUSH1 0x0 DUP1 REVERT JUMPDEST POP PUSH2 0x13A PUSH1 0x7 SLOAD DUP2 JUMP JUMPDEST PUSH1 0x40 MLOAD SWAP1 DUP2 MSTORE PUSH1 0x20 ADD JUMPDEST PUSH1 0x40 MLOAD DUP1 SWAP2 SUB SWAP1 RETURN JUMPDEST CALLVALUE DUP1 ISZERO PUSH2 0x159 JUMPI PUSH1 0x0 DUP1 REVERT JUMPDEST POP PUSH2 0x13A PUSH2 0x168 CALLDATASIZE PUSH1 0x4 PUSH2 0x169B JUMP JUMPDEST PUSH2 0x570 JUMP JUMPDEST CALLVALUE DUP1 ISZERO PUSH2 0x179 JUMPI PUSH1 0x0 DUP1 REVERT JUMPDEST POP PUSH2 0x13A PUSH1 0xFA DUP2 JUMP JUMPDEST CALLVALUE DUP1 ISZERO PUSH2 0x18E JUMPI PUSH1 0x0 DUP1 REVERT JUMPDEST POP PUSH2 0x13A PUSH2 0x19D CALLDATASIZE PUSH1 0x4 PUSH2 0x16C4 JUMP JUMPDEST PUSH2 0x619 JUMP JUMPDEST PUSH2 0x13A PUSH2 0x1B0 CALLDATASIZE PUSH1 0x4 PUSH2 0x176A JUMP JUMPDEST PUSH2 0x6C1 JUMP JUMPDEST CALLVALUE DUP1 ISZERO PUSH2 0x1C1 JUMPI PUSH1 0x0 DUP1 REVERT JUMPDEST POP PUSH2 0x1D5 PUSH2 0x1D0 CALLDATASIZE PUSH1 0x4 PUSH2 0x17B1 JUMP JUMPDEST PUSH2 0xAA2 JUMP JUMPDEST STOP JUMPDEST CALLVALUE DUP1 ISZERO PUSH2 0x1E3 JUMPI PUSH1 0x0 DUP1 REVERT JUMPDEST POP PUSH2 0x13A PUSH2 0x1F2 CALLDATASIZE PUSH1 0x4 PUSH2 0x169B JUMP JUMPDEST PUSH1 0x3 PUSH1 0x20 MSTORE PUSH1 0x0 SWAP1 DUP2 MSTORE PUSH1 0x40 SWAP1 KECCAK256 SLOAD DUP2 JUMP JUMPDEST CALLVALUE DUP1 ISZERO PUSH2 0x210 JUMPI PUSH1 0x0 DUP1 REVERT JUMPDEST POP PUSH2 0x224 PUSH2 0x21F CALLDATASIZE PUSH1 0x4 PUSH2 0x17DE JUMP JUMPDEST PUSH2 0xD26 JUMP JUMPDEST PUSH1 0x40 MLOAD PUSH2 0x144 SWAP2 SWAP1 PUSH2 0x17F7 JUMP JUMPDEST CALLVALUE DUP1 ISZERO PUSH2 0x23D JUMPI PUSH1 0x0 DUP1 REVERT JUMPDEST POP PUSH2 0x13A PUSH2 0x1D4C DUP2 JUMP JUMPDEST CALLVALUE DUP1 ISZERO PUSH2 0x253 JUMPI PUSH1 0x0 DUP1 REVERT JUMPDEST POP PUSH2 0x32C PUSH2 0x262 CALLDATASIZE PUSH1 0x4 PUSH2 0x17DE JUMP JUMPDEST PUSH1 0x0 PUSH1 0x20 DUP2 DUP2 MSTORE SWAP2 DUP2 MSTORE PUSH1 0x40 SWAP1 DUP2 SWAP1 KECCAK256 DUP1 SLOAD PUSH1 0x1 DUP3 ADD SLOAD PUSH1 0x2 DUP4 ADD SLOAD PUSH1 0x3 DUP5 ADD SLOAD DUP6 MLOAD PUSH1 0x80 DUP1 DUP3 ADD DUP9 MSTORE PUSH1 0x4 DUP8 ADD SLOAD DUP3 MSTORE PUSH1 0x5 DUP8 ADD SLOAD DUP3 DUP11 ADD MSTORE PUSH1 0x6 DUP8 ADD SLOAD DUP3 DUP10 ADD MSTORE PUSH1 0x7 DUP8 ADD SLOAD PUSH1 0x60 DUP1 DUP5 ADD SWAP2 SWAP1 SWAP2 MSTORE DUP9 MLOAD SWAP2 DUP3 ADD DUP10 MSTORE PUSH1 0x8 DUP9 ADD SLOAD DUP3 MSTORE PUSH1 0x9 DUP9 ADD SLOAD SWAP10 DUP3 ADD SWAP10 SWAP1 SWAP10 MSTORE PUSH1 0xA DUP8 ADD SLOAD SWAP8 DUP2 ADD SWAP8 SWAP1 SWAP8 MSTORE PUSH1 0xB DUP7 ADD SLOAD SWAP8 DUP8 ADD SWAP8 SWAP1 SWAP8 MSTORE PUSH1 0xC DUP6 ADD SLOAD PUSH1 0xD DUP7 ADD SLOAD PUSH1 0xE DUP8 ADD SLOAD PUSH1 0xF DUP9 ADD SLOAD PUSH1 0x10 DUP10 ADD SLOAD PUSH1 0x11 SWAP1 SWAP10 ADD SLOAD PUSH1 0x1 PUSH1 0x1 PUSH1 0xA0 SHL SUB SWAP1 SWAP9 AND SWAP11 SWAP7 SWAP10 SWAP6 SWAP9 SWAP5 SWAP8 SWAP4 SWAP5 SWAP3 SWAP4 PUSH1 0xFF DUP1 DUP5 AND SWAP5 PUSH2 0x100 SWAP1 SWAP5 DIV AND SWAP3 SWAP1 DUP14 JUMP JUMPDEST PUSH1 0x40 DUP1 MLOAD PUSH1 0x1 PUSH1 0x1 PUSH1 0xA0 SHL SUB SWAP1 SWAP15 AND DUP15 MSTORE PUSH1 0x20 DUP1 DUP16 ADD SWAP14 SWAP1 SWAP14 MSTORE DUP14 DUP2 ADD SWAP12 SWAP1 SWAP12 MSTORE PUSH1 0x60 DUP1 DUP15 ADD SWAP11 SWAP1 SWAP11 MSTORE DUP9 MLOAD PUSH1 0x80 DUP15 ADD MSTORE DUP12 DUP10 ADD MLOAD PUSH1 0xA0 DUP15 ADD MSTORE DUP9 DUP12 ADD MLOAD PUSH1 0xC0 DUP15 ADD MSTORE SWAP8 DUP10 ADD MLOAD PUSH1 0xE0 DUP14 ADD MSTORE DUP7 MLOAD PUSH2 0x100 DUP14 ADD MSTORE SWAP10 DUP7 ADD MLOAD PUSH2 0x120 DUP13 ADD MSTORE SWAP8 DUP6 ADD MLOAD PUSH2 0x140 DUP12 ADD MSTORE SWAP6 SWAP1 SWAP4 ADD MLOAD PUSH2 0x160 DUP10 ADD MSTORE PUSH2 0x180 DUP9 ADD SWAP2 SWAP1 SWAP2 MSTORE PUSH2 0x1A0 DUP8 ADD MSTORE ISZERO ISZERO PUSH2 0x1C0 DUP7 ADD MSTORE SWAP1 ISZERO ISZERO PUSH2 0x1E0 DUP6 ADD MSTORE PUSH2 0x200 DUP5 ADD SWAP2 SWAP1 SWAP2 MSTORE PUSH2 0x220 DUP4 ADD SWAP2 SWAP1 SWAP2 MSTORE PUSH2 0x240 DUP3 ADD MSTORE PUSH2 0x260 ADD PUSH2 0x144 JUMP JUMPDEST CALLVALUE DUP1 ISZERO PUSH2 0x3EC JUMPI PUSH1 0x0 DUP1 REVERT JUMPDEST POP PUSH2 0x1D5 PUSH2 0xE3A JUMP JUMPDEST CALLVALUE DUP1 ISZERO PUSH2 0x401 JUMPI PUSH1 0x0 DUP1 REVERT JUMPDEST POP PUSH1 0x6 SLOAD PUSH2 0x415 SWAP1 PUSH1 0x1 PUSH1 0x1 PUSH1 0xA0 SHL SUB AND DUP2 JUMP JUMPDEST PUSH1 0x40 MLOAD PUSH1 0x1 PUSH1 0x1 PUSH1 0xA0 SHL SUB SWAP1 SWAP2 AND DUP2 MSTORE PUSH1 0x20 ADD PUSH2 0x144 JUMP JUMPDEST CALLVALUE DUP1 ISZERO PUSH2 0x439 JUMPI PUSH1 0x0 DUP1 REVERT JUMPDEST POP PUSH2 0x13A PUSH2 0x448 CALLDATASIZE PUSH1 0x4 PUSH2 0x169B JUMP JUMPDEST PUSH1 0x5 PUSH1 0x20 MSTORE PUSH1 0x0 SWAP1 DUP2 MSTORE PUSH1 0x40 SWAP1 KECCAK256 SLOAD DUP2 JUMP JUMPDEST CALLVALUE DUP1 ISZERO PUSH2 0x466 JUMPI PUSH1 0x0 DUP1 REVERT JUMPDEST POP PUSH2 0x47A PUSH2 0x475 CALLDATASIZE PUSH1 0x4 PUSH2 0x18F2 JUMP JUMPDEST PUSH2 0xEE8 JUMP JUMPDEST PUSH1 0x40 DUP1 MLOAD PUSH1 0x1 PUSH1 0x1 PUSH1 0xA0 SHL SUB SWAP1 SWAP6 AND DUP6 MSTORE PUSH1 0x20 DUP6 ADD SWAP4 SWAP1 SWAP4 MSTORE SWAP1 ISZERO ISZERO SWAP2 DUP4 ADD SWAP2 SWAP1 SWAP2 MSTORE ISZERO ISZERO PUSH1 0x60 DUP3 ADD MSTORE PUSH1 0x80 ADD PUSH2 0x144 JUMP JUMPDEST PUSH2 0x1D5 PUSH2 0x4BA CALLDATASIZE PUSH1 0x4 PUSH2 0x1914 JUMP JUMPDEST PUSH2 0xF40 JUMP JUMPDEST CALLVALUE DUP1 ISZERO PUSH2 0x4CB JUMPI PUSH1 0x0 DUP1 REVERT JUMPDEST POP PUSH2 0x13A PUSH2 0x4DA CALLDATASIZE PUSH1 0x4 PUSH2 0x169B JUMP JUMPDEST PUSH2 0x125B JUMP JUMPDEST CALLVALUE DUP1 ISZERO PUSH2 0x4EB JUMPI PUSH1 0x0 DUP1 REVERT JUMPDEST POP PUSH2 0x13A PUSH2 0x4FA CALLDATASIZE PUSH1 0x4 PUSH2 0x18F2 JUMP JUMPDEST PUSH2 0x12A1 JUMP JUMPDEST CALLVALUE DUP1 ISZERO PUSH2 0x50B JUMPI PUSH1 0x0 DUP1 REVERT JUMPDEST POP PUSH2 0x13A PUSH2 0x51A CALLDATASIZE PUSH1 0x4 PUSH2 0x169B JUMP JUMPDEST PUSH1 0x4 PUSH1 0x20 MSTORE PUSH1 0x0 SWAP1 DUP2 MSTORE PUSH1 0x40 SWAP1 KECCAK256 SLOAD DUP2 JUMP JUMPDEST CALLVALUE DUP1 ISZERO PUSH2 0x538 JUMPI PUSH1 0x0 DUP1 REVERT JUMPDEST POP PUSH2 0x13A PUSH2 0x547 CALLDATASIZE PUSH1 0x4 PUSH2 0x169B JUMP JUMPDEST PUSH1 0x2 PUSH1 0x20 MSTORE PUSH1 0x0 SWAP1 DUP2 MSTORE PUSH1 0x40 SWAP1 KECCAK256 SLOAD DUP2 JUMP JUMPDEST CALLVALUE DUP1 ISZERO PUSH2 0x565 JUMPI PUSH1 0x0 DUP1 REVERT JUMPDEST POP PUSH2 0x13A PUSH3 0x6136B8 DUP2 JUMP JUMPDEST PUSH1 0x1 PUSH1 0x1 PUSH1 0xA0 SHL SUB DUP2 AND PUSH1 0x0 SWAP1 DUP2 MSTORE PUSH1 0x5 PUSH1 0x20 MSTORE PUSH1 0x40 DUP2 KECCAK256 SLOAD DUP1 DUP3 SUB PUSH2 0x59A JUMPI POP PUSH2 0x1D4C SWAP3 SWAP2 POP POP JUMP JUMPDEST PUSH1 0x1 PUSH1 0x1 PUSH1 0xA0 SHL SUB DUP4 AND PUSH1 0x0 SWAP1 DUP2 MSTORE PUSH1 0x4 PUSH1 0x20 MSTORE PUSH1 0x40 DUP2 KECCAK256 SLOAD SWAP1 DUP3 PUSH2 0x5C1 DUP4 PUSH2 0x2710 PUSH2 0x195F JUMP JUMPDEST PUSH2 0x5CB SWAP2 SWAP1 PUSH2 0x198C JUMP JUMPDEST SWAP1 POP DUP1 PUSH1 0xA DUP4 LT PUSH2 0x5E5 JUMPI PUSH2 0x5E2 PUSH2 0x1F4 DUP3 PUSH2 0x19A0 JUMP JUMPDEST SWAP1 POP JUMPDEST PUSH1 0x32 DUP4 LT PUSH2 0x5FC JUMPI PUSH2 0x5F9 PUSH2 0x1F4 DUP3 PUSH2 0x19A0 JUMP JUMPDEST SWAP1 POP JUMPDEST PUSH2 0x2710 DUP2 GT PUSH2 0x60B JUMPI DUP1 PUSH2 0x60F JUMP JUMPDEST PUSH2 0x2710 JUMPDEST SWAP7 SWAP6 POP POP POP POP POP POP JUMP JUMPDEST PUSH1 0x0 DUP1 PUSH3 0x1B7740 PUSH2 0x62A DUP8 DUP7 PUSH2 0x19B3 JUMP JUMPDEST PUSH2 0x636 SWAP1 PUSH2 0x7AB8 PUSH2 0x19DA JUMP JUMPDEST PUSH2 0x640 SWAP2 SWAP1 PUSH2 0x1A0A JUMP JUMPDEST SWAP1 POP PUSH1 0x0 PUSH3 0x1B7740 PUSH2 0x652 DUP8 DUP7 PUSH2 0x19B3 JUMP JUMPDEST PUSH2 0x65E SWAP1 PUSH2 0x7AB8 PUSH2 0x19DA JUMP JUMPDEST PUSH2 0x668 SWAP2 SWAP1 PUSH2 0x1A0A JUMP JUMPDEST SWAP1 POP PUSH1 0x0 PUSH3 0xF4240 PUSH2 0x67A DUP4 DUP1 PUSH2 0x19DA JUMP JUMPDEST PUSH2 0x684 DUP6 DUP1 PUSH2 0x19DA JUMP JUMPDEST PUSH2 0x68E SWAP2 SWAP1 PUSH2 0x1A38 JUMP JUMPDEST PUSH2 0x698 SWAP2 SWAP1 PUSH2 0x1A0A JUMP JUMPDEST SWAP1 POP PUSH3 0xF4240 PUSH2 0x6AB PUSH3 0x6136B8 DUP4 PUSH2 0x195F JUMP JUMPDEST PUSH2 0x6B5 SWAP2 SWAP1 PUSH2 0x198C JUMP JUMPDEST SWAP9 SWAP8 POP POP POP POP POP POP POP POP JUMP JUMPDEST PUSH1 0x0 DUP1 CALLVALUE GT PUSH2 0x723 JUMPI PUSH1 0x40 MLOAD PUSH3 0x461BCD PUSH1 0xE5 SHL DUP2 MSTORE PUSH1 0x20 PUSH1 0x4 DUP3 ADD MSTORE PUSH1 0x23 PUSH1 0x24 DUP3 ADD MSTORE PUSH32 0x5374616B6520616D6F756E74206D757374206265206772656174657220746861 PUSH1 0x44 DUP3 ADD MSTORE PUSH3 0x6E203 PUSH1 0xEC SHL PUSH1 0x64 DUP3 ADD MSTORE PUSH1 0x84 ADD JUMPDEST PUSH1 0x40 MLOAD DUP1 SWAP2 SUB SWAP1 REVERT JUMPDEST TIMESTAMP DUP4 GT PUSH2 0x772 JUMPI PUSH1 0x40 MLOAD PUSH3 0x461BCD PUSH1 0xE5 SHL DUP2 MSTORE PUSH1 0x20 PUSH1 0x4 DUP3 ADD MSTORE PUSH1 0x1E PUSH1 0x24 DUP3 ADD MSTORE PUSH32 0x446561646C696E65206D75737420626520696E20746865206675747572650000 PUSH1 0x44 DUP3 ADD MSTORE PUSH1 0x64 ADD PUSH2 0x71A JUMP JUMPDEST PUSH1 0x0 DUP3 GT PUSH2 0x7C2 JUMPI PUSH1 0x40 MLOAD PUSH3 0x461BCD PUSH1 0xE5 SHL DUP2 MSTORE PUSH1 0x20 PUSH1 0x4 DUP3 ADD MSTORE PUSH1 0x1B PUSH1 0x24 DUP3 ADD MSTORE PUSH32 0x50616365206D7573742062652067726561746572207468616E20300000000000 PUSH1 0x44 DUP3 ADD MSTORE PUSH1 0x64 ADD PUSH2 0x71A JUMP JUMPDEST PUSH1 0x0 PUSH2 0x7E0 DUP7 PUSH1 0x0 ADD MLOAD DUP8 PUSH1 0x20 ADD MLOAD DUP8 PUSH1 0x0 ADD MLOAD DUP9 PUSH1 0x20 ADD MLOAD PUSH2 0x619 JUMP JUMPDEST DUP7 MLOAD PUSH1 0x20 DUP1 DUP10 ADD MLOAD DUP9 MLOAD DUP10 DUP4 ADD MLOAD PUSH1 0x40 MLOAD PUSH12 0xFFFFFFFFFFFFFFFFFFFFFFFF NOT CALLER PUSH1 0x60 SHL AND SWAP5 DUP2 ADD SWAP5 SWAP1 SWAP5 MSTORE TIMESTAMP PUSH1 0x34 DUP6 ADD MSTORE PUSH1 0x54 DUP5 ADD SWAP5 SWAP1 SWAP5 MSTORE PUSH1 0x74 DUP4 ADD SWAP2 SWAP1 SWAP2 MSTORE PUSH1 0x94 DUP3 ADD MSTORE PUSH1 0xB4 DUP2 ADD SWAP2 SWAP1 SWAP2 MSTORE SWAP1 SWAP2 POP PUSH1 0x0 SWAP1 PUSH1 0xD4 ADD PUSH1 0x40 MLOAD PUSH1 0x20 DUP2 DUP4 SUB SUB DUP2 MSTORE SWAP1 PUSH1 0x40 MSTORE DUP1 MLOAD SWAP1 PUSH1 0x20 ADD KECCAK256 SWAP1 POP PUSH1 0x40 MLOAD DUP1 PUSH2 0x1A0 ADD PUSH1 0x40 MSTORE DUP1 CALLER PUSH1 0x1 PUSH1 0x1 PUSH1 0xA0 SHL SUB AND DUP2 MSTORE PUSH1 0x20 ADD CALLVALUE DUP2 MSTORE PUSH1 0x20 ADD TIMESTAMP DUP2 MSTORE PUSH1 0x20 ADD DUP7 DUP2 MSTORE PUSH1 0x20 ADD DUP9 DUP2 MSTORE PUSH1 0x20 ADD DUP8 DUP2 MSTORE PUSH1 0x20 ADD DUP4 DUP2 MSTORE PUSH1 0x20 ADD DUP6 DUP2 MSTORE PUSH1 0x20 ADD PUSH1 0x0 ISZERO ISZERO DUP2 MSTORE PUSH1 0x20 ADD PUSH1 0x0 ISZERO ISZERO DUP2 MSTORE PUSH1 0x20 ADD PUSH1 0x0 DUP2 MSTORE PUSH1 0x20 ADD PUSH1 0x0 DUP2 MSTORE PUSH1 0x20 ADD PUSH1 0x0 DUP2 MSTORE POP PUSH1 0x0 DUP1 DUP4 DUP2 MSTORE PUSH1 0x20 ADD SWAP1 DUP2 MSTORE PUSH1 0x20 ADD PUSH1 0x0 KECCAK256 PUSH1 0x0 DUP3 ADD MLOAD DUP2 PUSH1 0x0 ADD PUSH1 0x0 PUSH2 0x100 EXP DUP2 SLOAD DUP2 PUSH1 0x1 PUSH1 0x1 PUSH1 0xA0 SHL SUB MUL NOT AND SWAP1 DUP4 PUSH1 0x1 PUSH1 0x1 PUSH1 0xA0 SHL SUB AND MUL OR SWAP1 SSTORE POP PUSH1 0x20 DUP3 ADD MLOAD DUP2 PUSH1 0x1 ADD SSTORE PUSH1 0x40 DUP3 ADD MLOAD DUP2 PUSH1 0x2 ADD SSTORE PUSH1 0x60 DUP3 ADD MLOAD DUP2 PUSH1 0x3 ADD SSTORE PUSH1 0x80 DUP3 ADD MLOAD DUP2 PUSH1 0x4 ADD PUSH1 0x0 DUP3 ADD MLOAD DUP2 PUSH1 0x0 ADD SSTORE PUSH1 0x20 DUP3 ADD MLOAD DUP2 PUSH1 0x1 ADD SSTORE PUSH1 0x40 DUP3 ADD MLOAD DUP2 PUSH1 0x2 ADD SSTORE PUSH1 0x60 DUP3 ADD MLOAD DUP2 PUSH1 0x3 ADD SSTORE POP POP PUSH1 0xA0 DUP3 ADD MLOAD DUP2 PUSH1 0x8 ADD PUSH1 0x0 DUP3 ADD MLOAD DUP2 PUSH1 0x0 ADD SSTORE PUSH1 0x20 DUP3 ADD MLOAD DUP2 PUSH1 0x1 ADD SSTORE PUSH1 0x40 DUP3 ADD MLOAD DUP2 PUSH1 0x2 ADD SSTORE PUSH1 0x60 DUP3 ADD MLOAD DUP2 PUSH1 0x3 ADD SSTORE POP POP PUSH1 0xC0 DUP3 ADD MLOAD DUP2 PUSH1 0xC ADD SSTORE PUSH1 0xE0 DUP3 ADD MLOAD DUP2 PUSH1 0xD ADD SSTORE PUSH2 0x100 DUP3 ADD MLOAD DUP2 PUSH1 0xE ADD PUSH1 0x0 PUSH2 0x100 EXP DUP2 SLOAD DUP2 PUSH1 0xFF MUL NOT AND SWAP1 DUP4 ISZERO ISZERO MUL OR SWAP1 SSTORE POP PUSH2 0x120 DUP3 ADD MLOAD DUP2 PUSH1 0xE ADD PUSH1 0x1 PUSH2 0x100 EXP DUP2 SLOAD DUP2 PUSH1 0xFF MUL NOT AND SWAP1 DUP4 ISZERO ISZERO MUL OR SWAP1 SSTORE POP PUSH2 0x140 DUP3 ADD MLOAD DUP2 PUSH1 0xF ADD SSTORE PUSH2 0x160 DUP3 ADD MLOAD DUP2 PUSH1 0x10 ADD SSTORE PUSH2 0x180 DUP3 ADD MLOAD DUP2 PUSH1 0x11 ADD SSTORE SWAP1 POP POP CALLVALUE PUSH1 0x3 PUSH1 0x0 CALLER PUSH1 0x1 PUSH1 0x1 PUSH1 0xA0 SHL SUB AND PUSH1 0x1 PUSH1 0x1 PUSH1 0xA0 SHL SUB AND DUP2 MSTORE PUSH1 0x20 ADD SWAP1 DUP2 MSTORE PUSH1 0x20 ADD PUSH1 0x0 KECCAK256 PUSH1 0x0 DUP3 DUP3 SLOAD PUSH2 0xA2B SWAP2 SWAP1 PUSH2 0x19A0 JUMP JUMPDEST SWAP1 SWAP2 SSTORE POP POP CALLER PUSH1 0x0 SWAP1 DUP2 MSTORE PUSH1 0x5 PUSH1 0x20 MSTORE PUSH1 0x40 DUP2 KECCAK256 DUP1 SLOAD SWAP2 PUSH2 0xA4B DUP4 PUSH2 0x1A60 JUMP JUMPDEST SWAP2 SWAP1 POP SSTORE POP CALLER PUSH1 0x1 PUSH1 0x1 PUSH1 0xA0 SHL SUB AND DUP2 PUSH32 0x2AB4D5A74B3917397A7AB399780894F3915D63C66FA75D64882BA219FEA56100 CALLVALUE DUP9 DUP12 DUP12 PUSH1 0x40 MLOAD PUSH2 0xA90 SWAP5 SWAP4 SWAP3 SWAP2 SWAP1 PUSH2 0x1A79 JUMP JUMPDEST PUSH1 0x40 MLOAD DUP1 SWAP2 SUB SWAP1 LOG3 SWAP7 SWAP6 POP POP POP POP POP POP JUMP JUMPDEST PUSH1 0x0 DUP3 DUP2 MSTORE PUSH1 0x20 DUP2 SWAP1 MSTORE PUSH1 0x40 SWAP1 KECCAK256 SLOAD DUP3 SWAP1 PUSH1 0x1 PUSH1 0x1 PUSH1 0xA0 SHL SUB AND PUSH2 0xB04 JUMPI PUSH1 0x40 MLOAD PUSH3 0x461BCD PUSH1 0xE5 SHL DUP2 MSTORE PUSH1 0x20 PUSH1 0x4 DUP3 ADD MSTORE PUSH1 0x19 PUSH1 0x24 DUP3 ADD MSTORE PUSH25 0x10DBDB5B5A5D1B595B9D08191BD95CC81B9BDD08195E1A5CDD PUSH1 0x3A SHL PUSH1 0x44 DUP3 ADD MSTORE PUSH1 0x64 ADD PUSH2 0x71A JUMP JUMPDEST PUSH1 0x0 DUP4 DUP2 MSTORE PUSH1 0x20 DUP2 SWAP1 MSTORE PUSH1 0x40 SWAP1 KECCAK256 DUP1 SLOAD PUSH1 0x1 PUSH1 0x1 PUSH1 0xA0 SHL SUB AND CALLER EQ PUSH2 0xB77 JUMPI PUSH1 0x40 MLOAD PUSH3 0x461BCD PUSH1 0xE5 SHL DUP2 MSTORE PUSH1 0x20 PUSH1 0x4 DUP3 ADD MSTORE PUSH1 0x23 PUSH1 0x24 DUP3 ADD MSTORE PUSH32 0x4F6E6C7920636F6D6D69746D656E742063726561746F722063616E2066756C66 PUSH1 0x44 DUP3 ADD MSTORE PUSH3 0x1A5B1B PUSH1 0xEA SHL PUSH1 0x64 DUP3 ADD MSTORE PUSH1 0x84 ADD PUSH2 0x71A JUMP JUMPDEST PUSH1 0xE DUP2 ADD SLOAD PUSH1 0xFF AND ISZERO PUSH2 0xBCC JUMPI PUSH1 0x40 MLOAD PUSH3 0x461BCD PUSH1 0xE5 SHL DUP2 MSTORE PUSH1 0x20 PUSH1 0x4 DUP3 ADD MSTORE PUSH1 0x1C PUSH1 0x24 DUP3 ADD MSTORE PUSH32 0x436F6D6D69746D656E7420616C72656164792066756C66696C6C656400000000 PUSH1 0x44 DUP3 ADD MSTORE PUSH1 0x64 ADD PUSH2 0x71A JUMP JUMPDEST PUSH1 0x0 PUSH2 0xBF0 DUP3 PUSH1 0x8 ADD PUSH1 0x0 ADD SLOAD DUP4 PUSH1 0x8 ADD PUSH1 0x1 ADD SLOAD DUP7 PUSH1 0x0 ADD MLOAD DUP8 PUSH1 0x20 ADD MLOAD PUSH2 0x619 JUMP JUMPDEST SWAP1 POP PUSH1 0x64 DUP2 GT ISZERO PUSH2 0xC4F JUMPI PUSH1 0x40 MLOAD PUSH3 0x461BCD PUSH1 0xE5 SHL DUP2 MSTORE PUSH1 0x20 PUSH1 0x4 DUP3 ADD MSTORE PUSH1 0x24 DUP1 DUP3 ADD MSTORE PUSH32 0x4172726976616C206C6F636174696F6E20746F6F206661722066726F6D207461 PUSH1 0x44 DUP3 ADD MSTORE PUSH4 0x1C99D95D PUSH1 0xE2 SHL PUSH1 0x64 DUP3 ADD MSTORE PUSH1 0x84 ADD PUSH2 0x71A JUMP JUMPDEST PUSH1 0x3 DUP3 ADD SLOAD PUSH1 0xE DUP4 ADD DUP1 SLOAD PUSH2 0x100 TIMESTAMP SWAP4 DUP5 GT DUP1 ISZERO SWAP2 DUP3 MUL PUSH2 0xFFFF NOT SWAP1 SWAP4 AND SWAP3 SWAP1 SWAP3 OR PUSH1 0x1 OR SWAP1 SWAP3 SSTORE PUSH1 0xF DUP6 ADD SWAP3 SWAP1 SWAP3 SSTORE SWAP1 PUSH2 0xCBE JUMPI CALLER PUSH1 0x0 SWAP1 DUP2 MSTORE PUSH1 0x4 PUSH1 0x20 MSTORE PUSH1 0x40 DUP2 KECCAK256 DUP1 SLOAD SWAP2 PUSH2 0xC9F DUP4 PUSH2 0x1A60 JUMP JUMPDEST SWAP2 SWAP1 POP SSTORE POP PUSH2 0xCAD CALLER PUSH2 0x570 JUMP JUMPDEST CALLER PUSH1 0x0 SWAP1 DUP2 MSTORE PUSH1 0x2 PUSH1 0x20 MSTORE PUSH1 0x40 SWAP1 KECCAK256 SSTORE JUMPDEST PUSH2 0xCC7 DUP7 PUSH2 0x12C2 JUMP JUMPDEST CALLER DUP7 PUSH32 0x70CA586FCB861BA47586FA95A762BF13C4E13AEE7699711AC3D3ADB0EF7673F9 DUP4 TIMESTAMP DUP2 PUSH2 0xCF8 JUMPI PUSH1 0x0 PUSH2 0xCFE JUMP JUMPDEST DUP8 PUSH1 0x1 ADD SLOAD JUMPDEST PUSH1 0x40 DUP1 MLOAD SWAP4 ISZERO ISZERO DUP5 MSTORE PUSH1 0x20 DUP5 ADD SWAP3 SWAP1 SWAP3 MSTORE SWAP1 DUP3 ADD MSTORE PUSH1 0x60 ADD PUSH1 0x40 MLOAD DUP1 SWAP2 SUB SWAP1 LOG3 POP POP POP POP POP POP JUMP JUMPDEST PUSH2 0xD2E PUSH2 0x15D4 JUMP JUMPDEST POP PUSH1 0x0 SWAP1 DUP2 MSTORE PUSH1 0x20 DUP2 DUP2 MSTORE PUSH1 0x40 SWAP2 DUP3 SWAP1 KECCAK256 DUP3 MLOAD PUSH2 0x1A0 DUP2 ADD DUP5 MSTORE DUP2 SLOAD PUSH1 0x1 PUSH1 0x1 PUSH1 0xA0 SHL SUB AND DUP2 MSTORE PUSH1 0x1 DUP3 ADD SLOAD DUP2 DUP5 ADD MSTORE PUSH1 0x2 DUP3 ADD SLOAD DUP2 DUP6 ADD MSTORE PUSH1 0x3 DUP3 ADD SLOAD PUSH1 0x60 DUP1 DUP4 ADD SWAP2 SWAP1 SWAP2 MSTORE DUP5 MLOAD PUSH1 0x80 DUP2 DUP2 ADD DUP8 MSTORE PUSH1 0x4 DUP6 ADD SLOAD DUP3 MSTORE PUSH1 0x5 DUP6 ADD SLOAD DUP3 DUP8 ADD MSTORE PUSH1 0x6 DUP6 ADD SLOAD DUP3 DUP9 ADD MSTORE PUSH1 0x7 DUP6 ADD SLOAD DUP3 DUP5 ADD MSTORE DUP1 DUP5 ADD SWAP2 SWAP1 SWAP2 MSTORE DUP6 MLOAD SWAP1 DUP2 ADD DUP7 MSTORE PUSH1 0x8 DUP5 ADD SLOAD DUP2 MSTORE PUSH1 0x9 DUP5 ADD SLOAD SWAP5 DUP2 ADD SWAP5 SWAP1 SWAP5 MSTORE PUSH1 0xA DUP4 ADD SLOAD SWAP5 DUP5 ADD SWAP5 SWAP1 SWAP5 MSTORE PUSH1 0xB DUP3 ADD SLOAD SWAP4 DUP4 ADD SWAP4 SWAP1 SWAP4 MSTORE PUSH1 0xA0 DUP4 ADD SWAP2 SWAP1 SWAP2 MSTORE PUSH1 0xC DUP2 ADD SLOAD PUSH1 0xC0 DUP4 ADD MSTORE PUSH1 0xD DUP2 ADD SLOAD PUSH1 0xE0 DUP4 ADD MSTORE PUSH1 0xE DUP2 ADD SLOAD PUSH1 0xFF DUP1 DUP3 AND ISZERO ISZERO PUSH2 0x100 DUP1 DUP7 ADD SWAP2 SWAP1 SWAP2 MSTORE SWAP1 SWAP2 DIV AND ISZERO ISZERO PUSH2 0x120 DUP4 ADD MSTORE PUSH1 0xF DUP2 ADD SLOAD PUSH2 0x140 DUP4 ADD MSTORE PUSH1 0x10 DUP2 ADD SLOAD PUSH2 0x160 DUP4 ADD MSTORE PUSH1 0x11 ADD SLOAD PUSH2 0x180 DUP3 ADD MSTORE SWAP1 JUMP JUMPDEST PUSH1 0x6 SLOAD PUSH1 0x1 PUSH1 0x1 PUSH1 0xA0 SHL SUB AND CALLER EQ PUSH2 0xE9F JUMPI PUSH1 0x40 MLOAD PUSH3 0x461BCD PUSH1 0xE5 SHL DUP2 MSTORE PUSH1 0x20 PUSH1 0x4 DUP3 ADD MSTORE PUSH1 0x22 PUSH1 0x24 DUP3 ADD MSTORE PUSH32 0x4F6E6C79206F776E65722063616E20706572666F726D20746869732061637469 PUSH1 0x44 DUP3 ADD MSTORE PUSH2 0x37B7 PUSH1 0xF1 SHL PUSH1 0x64 DUP3 ADD MSTORE PUSH1 0x84 ADD PUSH2 0x71A JUMP JUMPDEST PUSH1 0x7 DUP1 SLOAD PUSH1 0x0 SWAP2 DUP3 SWAP1 SSTORE PUSH1 0x6 SLOAD PUSH1 0x40 MLOAD SWAP2 SWAP3 PUSH1 0x1 PUSH1 0x1 PUSH1 0xA0 SHL SUB SWAP1 SWAP2 AND SWAP2 DUP4 ISZERO PUSH2 0x8FC MUL SWAP2 DUP5 SWAP2 SWAP1 DUP2 DUP2 DUP2 DUP6 DUP9 DUP9 CALL SWAP4 POP POP POP POP ISZERO DUP1 ISZERO PUSH2 0xEE4 JUMPI RETURNDATASIZE PUSH1 0x0 DUP1 RETURNDATACOPY RETURNDATASIZE PUSH1 0x0 REVERT JUMPDEST POP POP JUMP JUMPDEST PUSH1 0x1 PUSH1 0x20 MSTORE DUP2 PUSH1 0x0 MSTORE PUSH1 0x40 PUSH1 0x0 KECCAK256 DUP2 DUP2 SLOAD DUP2 LT PUSH2 0xF04 JUMPI PUSH1 0x0 DUP1 REVERT JUMPDEST PUSH1 0x0 SWAP2 DUP3 MSTORE PUSH1 0x20 SWAP1 SWAP2 KECCAK256 PUSH1 0x3 SWAP1 SWAP2 MUL ADD DUP1 SLOAD PUSH1 0x1 DUP3 ADD SLOAD PUSH1 0x2 SWAP1 SWAP3 ADD SLOAD PUSH1 0x1 PUSH1 0x1 PUSH1 0xA0 SHL SUB SWAP1 SWAP2 AND SWAP4 POP SWAP1 SWAP2 POP PUSH1 0xFF DUP1 DUP3 AND SWAP2 PUSH2 0x100 SWAP1 DIV AND DUP5 JUMP JUMPDEST PUSH1 0x0 DUP3 DUP2 MSTORE PUSH1 0x20 DUP2 SWAP1 MSTORE PUSH1 0x40 SWAP1 KECCAK256 SLOAD DUP3 SWAP1 PUSH1 0x1 PUSH1 0x1 PUSH1 0xA0 SHL SUB AND PUSH2 0xFA2 JUMPI PUSH1 0x40 MLOAD PUSH3 0x461BCD PUSH1 0xE5 SHL DUP2 MSTORE PUSH1 0x20 PUSH1 0x4 DUP3 ADD MSTORE PUSH1 0x19 PUSH1 0x24 DUP3 ADD MSTORE PUSH25 0x10DBDB5B5A5D1B595B9D08191BD95CC81B9BDD08195E1A5CDD PUSH1 0x3A SHL PUSH1 0x44 DUP3 ADD MSTORE PUSH1 0x64 ADD PUSH2 0x71A JUMP JUMPDEST PUSH1 0x0 CALLVALUE GT PUSH2 0xFFC JUMPI PUSH1 0x40 MLOAD PUSH3 0x461BCD PUSH1 0xE5 SHL DUP2 MSTORE PUSH1 0x20 PUSH1 0x4 DUP3 ADD MSTORE PUSH1 0x21 PUSH1 0x24 DUP3 ADD MSTORE PUSH32 0x42657420616D6F756E74206D7573742062652067726561746572207468616E20 PUSH1 0x44 DUP3 ADD MSTORE PUSH1 0x3 PUSH1 0xFC SHL PUSH1 0x64 DUP3 ADD MSTORE PUSH1 0x84 ADD PUSH2 0x71A JUMP JUMPDEST PUSH1 0x0 DUP4 DUP2 MSTORE PUSH1 0x20 DUP2 SWAP1 MSTORE PUSH1 0x40 SWAP1 KECCAK256 PUSH1 0xE ADD SLOAD PUSH1 0xFF AND ISZERO PUSH2 0x105E JUMPI PUSH1 0x40 MLOAD PUSH3 0x461BCD PUSH1 0xE5 SHL DUP2 MSTORE PUSH1 0x20 PUSH1 0x4 DUP3 ADD MSTORE PUSH1 0x1C PUSH1 0x24 DUP3 ADD MSTORE PUSH32 0x436F6D6D69746D656E7420616C72656164792066756C66696C6C656400000000 PUSH1 0x44 DUP3 ADD MSTORE PUSH1 0x64 ADD PUSH2 0x71A JUMP JUMPDEST PUSH1 0x0 DUP4 DUP2 MSTORE PUSH1 0x20 DUP2 SWAP1 MSTORE PUSH1 0x40 SWAP1 KECCAK256 SLOAD CALLER PUSH1 0x1 PUSH1 0x1 PUSH1 0xA0 SHL SUB SWAP1 SWAP2 AND SUB PUSH2 0x10C6 JUMPI PUSH1 0x40 MLOAD PUSH3 0x461BCD PUSH1 0xE5 SHL DUP2 MSTORE PUSH1 0x20 PUSH1 0x4 DUP3 ADD MSTORE PUSH1 0x1C PUSH1 0x24 DUP3 ADD MSTORE PUSH32 0x43616E6E6F7420626574206F6E206F776E20636F6D6D69746D656E7400000000 PUSH1 0x44 DUP3 ADD MSTORE PUSH1 0x64 ADD PUSH2 0x71A JUMP JUMPDEST PUSH1 0x0 DUP4 DUP2 MSTORE PUSH1 0x20 DUP2 SWAP1 MSTORE PUSH1 0x40 SWAP1 KECCAK256 PUSH1 0x3 ADD SLOAD TIMESTAMP LT PUSH2 0x1126 JUMPI PUSH1 0x40 MLOAD PUSH3 0x461BCD PUSH1 0xE5 SHL DUP2 MSTORE PUSH1 0x20 PUSH1 0x4 DUP3 ADD MSTORE PUSH1 0x19 PUSH1 0x24 DUP3 ADD MSTORE PUSH32 0x43616E6E6F742062657420616674657220646561646C696E6500000000000000 PUSH1 0x44 DUP3 ADD MSTORE PUSH1 0x64 ADD PUSH2 0x71A JUMP JUMPDEST PUSH1 0x0 DUP4 DUP2 MSTORE PUSH1 0x1 PUSH1 0x20 DUP2 DUP2 MSTORE PUSH1 0x40 DUP1 DUP5 KECCAK256 DUP2 MLOAD PUSH1 0x80 DUP2 ADD DUP4 MSTORE CALLER DUP2 MSTORE CALLVALUE DUP2 DUP6 ADD SWAP1 DUP2 MSTORE DUP9 ISZERO DUP1 ISZERO SWAP5 DUP4 ADD SWAP5 DUP6 MSTORE PUSH1 0x60 DUP4 ADD DUP9 DUP2 MSTORE DUP5 SLOAD DUP1 DUP10 ADD DUP7 SSTORE SWAP5 DUP10 MSTORE SWAP6 SWAP1 SWAP8 KECCAK256 SWAP2 MLOAD PUSH1 0x3 SWAP1 SWAP4 MUL SWAP1 SWAP2 ADD DUP1 SLOAD PUSH1 0x1 PUSH1 0x1 PUSH1 0xA0 SHL SUB NOT AND PUSH1 0x1 PUSH1 0x1 PUSH1 0xA0 SHL SUB SWAP1 SWAP4 AND SWAP3 SWAP1 SWAP3 OR DUP3 SSTORE MLOAD SWAP4 DUP2 ADD SWAP4 SWAP1 SWAP4 SSTORE MLOAD PUSH1 0x2 SWAP1 SWAP3 ADD DUP1 SLOAD SWAP2 MLOAD PUSH2 0xFFFF NOT SWAP1 SWAP3 AND SWAP3 ISZERO ISZERO PUSH2 0xFF00 NOT AND SWAP3 SWAP1 SWAP3 OR PUSH2 0x100 SWAP2 ISZERO ISZERO SWAP2 SWAP1 SWAP2 MUL OR SWAP1 SSTORE PUSH2 0x11F1 JUMPI PUSH1 0x0 DUP4 DUP2 MSTORE PUSH1 0x20 DUP2 SWAP1 MSTORE PUSH1 0x40 DUP2 KECCAK256 PUSH1 0x10 ADD DUP1 SLOAD CALLVALUE SWAP3 SWAP1 PUSH2 0x11E6 SWAP1 DUP5 SWAP1 PUSH2 0x19A0 JUMP JUMPDEST SWAP1 SWAP2 SSTORE POP PUSH2 0x1218 SWAP1 POP JUMP JUMPDEST PUSH1 0x0 DUP4 DUP2 MSTORE PUSH1 0x20 DUP2 SWAP1 MSTORE PUSH1 0x40 DUP2 KECCAK256 PUSH1 0x11 ADD DUP1 SLOAD CALLVALUE SWAP3 SWAP1 PUSH2 0x1212 SWAP1 DUP5 SWAP1 PUSH2 0x19A0 JUMP JUMPDEST SWAP1 SWAP2 SSTORE POP POP JUMPDEST PUSH1 0x40 DUP1 MLOAD CALLVALUE DUP2 MSTORE DUP4 ISZERO ISZERO PUSH1 0x20 DUP3 ADD MSTORE CALLER SWAP2 DUP6 SWAP2 PUSH32 0xD16174E715659DBD1A7C4B7325DC4DEF5852B62256790341072D1BD59758849C SWAP2 ADD PUSH1 0x40 MLOAD DUP1 SWAP2 SUB SWAP1 LOG3 POP POP POP JUMP JUMPDEST PUSH1 0x1 PUSH1 0x1 PUSH1 0xA0 SHL SUB DUP2 AND PUSH1 0x0 SWAP1 DUP2 MSTORE PUSH1 0x2 PUSH1 0x20 MSTORE PUSH1 0x40 DUP2 KECCAK256 SLOAD ISZERO PUSH2 0x1297 JUMPI PUSH1 0x1 PUSH1 0x1 PUSH1 0xA0 SHL SUB DUP3 AND PUSH1 0x0 SWAP1 DUP2 MSTORE PUSH1 0x2 PUSH1 0x20 MSTORE PUSH1 0x40 SWAP1 KECCAK256 SLOAD PUSH2 0x129B JUMP JUMPDEST PUSH2 0x1D4C JUMPDEST SWAP3 SWAP2 POP POP JUMP JUMPDEST PUSH1 0x0 PUSH3 0x274A6 PUSH2 0x12B1 DUP4 DUP6 PUSH2 0x195F JUMP JUMPDEST PUSH2 0x12BB SWAP2 SWAP1 PUSH2 0x198C JUMP JUMPDEST SWAP4 SWAP3 POP POP POP JUMP JUMPDEST PUSH1 0x0 DUP2 DUP2 MSTORE PUSH1 0x20 DUP2 SWAP1 MSTORE PUSH1 0x40 DUP2 KECCAK256 PUSH1 0x1 DUP2 ADD SLOAD SWAP1 SWAP2 SWAP1 PUSH2 0x2710 SWAP1 PUSH2 0x12E8 SWAP1 PUSH1 0xFA SWAP1 PUSH2 0x195F JUMP JUMPDEST PUSH2 0x12F2 SWAP2 SWAP1 PUSH2 0x198C JUMP JUMPDEST PUSH1 0xE DUP4 ADD SLOAD SWAP1 SWAP2 POP PUSH2 0x100 SWAP1 DIV PUSH1 0xFF AND ISZERO PUSH2 0x13BB JUMPI PUSH1 0x0 DUP2 DUP4 PUSH1 0x1 ADD SLOAD PUSH2 0x1319 SWAP2 SWAP1 PUSH2 0x1AE6 JUMP JUMPDEST PUSH1 0x11 DUP5 ADD SLOAD SWAP1 SWAP2 POP DUP1 ISZERO PUSH2 0x135B JUMPI PUSH1 0x0 PUSH2 0x2710 PUSH2 0x1337 PUSH1 0xFA DUP5 PUSH2 0x195F JUMP JUMPDEST PUSH2 0x1341 SWAP2 SWAP1 PUSH2 0x198C JUMP JUMPDEST PUSH2 0x134B SWAP1 DUP4 PUSH2 0x1AE6 JUMP JUMPDEST SWAP1 POP PUSH2 0x1357 DUP2 DUP5 PUSH2 0x19A0 JUMP JUMPDEST SWAP3 POP POP JUMPDEST DUP4 SLOAD PUSH1 0x40 MLOAD PUSH1 0x1 PUSH1 0x1 PUSH1 0xA0 SHL SUB SWAP1 SWAP2 AND SWAP1 DUP4 ISZERO PUSH2 0x8FC MUL SWAP1 DUP5 SWAP1 PUSH1 0x0 DUP2 DUP2 DUP2 DUP6 DUP9 DUP9 CALL SWAP4 POP POP POP POP ISZERO DUP1 ISZERO PUSH2 0x1394 JUMPI RETURNDATASIZE PUSH1 0x0 DUP1 RETURNDATACOPY RETURNDATASIZE PUSH1 0x0 REVERT JUMPDEST POP PUSH2 0x13B4 DUP6 PUSH1 0x1 DUP7 PUSH1 0x11 ADD SLOAD DUP8 PUSH1 0x10 ADD SLOAD PUSH2 0x13AF SWAP2 SWAP1 PUSH2 0x19A0 JUMP JUMPDEST PUSH2 0x1400 JUMP JUMPDEST POP POP PUSH2 0x13E4 JUMP JUMPDEST PUSH2 0x13E4 DUP4 PUSH1 0x0 DUP5 PUSH1 0x11 ADD SLOAD DUP6 PUSH1 0x10 ADD SLOAD DUP7 PUSH1 0x1 ADD SLOAD PUSH2 0x13DA SWAP2 SWAP1 PUSH2 0x19A0 JUMP JUMPDEST PUSH2 0x13AF SWAP2 SWAP1 PUSH2 0x19A0 JUMP JUMPDEST DUP1 PUSH1 0x7 PUSH1 0x0 DUP3 DUP3 SLOAD PUSH2 0x13F6 SWAP2 SWAP1 PUSH2 0x19A0 JUMP JUMPDEST SWAP1 SWAP2 SSTORE POP POP POP POP POP JUMP JUMPDEST PUSH1 0x0 DUP4 DUP2 MSTORE PUSH1 0x1 PUSH1 0x20 MSTORE PUSH1 0x40 DUP2 KECCAK256 SWAP1 DUP4 PUSH2 0x142B JUMPI PUSH1 0x0 DUP6 DUP2 MSTORE PUSH1 0x20 DUP2 SWAP1 MSTORE PUSH1 0x40 SWAP1 KECCAK256 PUSH1 0x11 ADD SLOAD PUSH2 0x143E JUMP JUMPDEST PUSH1 0x0 DUP6 DUP2 MSTORE PUSH1 0x20 DUP2 SWAP1 MSTORE PUSH1 0x40 SWAP1 KECCAK256 PUSH1 0x10 ADD SLOAD JUMPDEST SWAP1 POP DUP1 PUSH1 0x0 SUB PUSH2 0x144F JUMPI POP POP POP POP POP JUMP JUMPDEST PUSH1 0x0 JUMPDEST DUP3 SLOAD DUP2 LT ISZERO PUSH2 0x15CC JUMPI DUP5 ISZERO ISZERO DUP4 DUP3 DUP2 SLOAD DUP2 LT PUSH2 0x1470 JUMPI PUSH2 0x1470 PUSH2 0x1AF9 JUMP JUMPDEST PUSH1 0x0 SWAP2 DUP3 MSTORE PUSH1 0x20 SWAP1 SWAP2 KECCAK256 PUSH1 0x2 PUSH1 0x3 SWAP1 SWAP3 MUL ADD ADD SLOAD PUSH1 0xFF AND ISZERO ISZERO EQ DUP1 ISZERO PUSH2 0x14C4 JUMPI POP DUP3 DUP2 DUP2 SLOAD DUP2 LT PUSH2 0x14A3 JUMPI PUSH2 0x14A3 PUSH2 0x1AF9 JUMP JUMPDEST SWAP1 PUSH1 0x0 MSTORE PUSH1 0x20 PUSH1 0x0 KECCAK256 SWAP1 PUSH1 0x3 MUL ADD PUSH1 0x2 ADD PUSH1 0x1 SWAP1 SLOAD SWAP1 PUSH2 0x100 EXP SWAP1 DIV PUSH1 0xFF AND ISZERO JUMPDEST ISZERO PUSH2 0x15C4 JUMPI PUSH1 0x0 DUP3 DUP6 DUP6 DUP5 DUP2 SLOAD DUP2 LT PUSH2 0x14DF JUMPI PUSH2 0x14DF PUSH2 0x1AF9 JUMP JUMPDEST SWAP1 PUSH1 0x0 MSTORE PUSH1 0x20 PUSH1 0x0 KECCAK256 SWAP1 PUSH1 0x3 MUL ADD PUSH1 0x1 ADD SLOAD PUSH2 0x14FB SWAP2 SWAP1 PUSH2 0x195F JUMP JUMPDEST PUSH2 0x1505 SWAP2 SWAP1 PUSH2 0x198C JUMP JUMPDEST SWAP1 POP PUSH1 0x0 PUSH2 0x2710 PUSH2 0x1517 PUSH1 0xFA DUP5 PUSH2 0x195F JUMP JUMPDEST PUSH2 0x1521 SWAP2 SWAP1 PUSH2 0x198C JUMP JUMPDEST PUSH2 0x152B SWAP1 DUP4 PUSH2 0x1AE6 JUMP JUMPDEST SWAP1 POP PUSH1 0x1 DUP6 DUP5 DUP2 SLOAD DUP2 LT PUSH2 0x1541 JUMPI PUSH2 0x1541 PUSH2 0x1AF9 JUMP JUMPDEST SWAP1 PUSH1 0x0 MSTORE PUSH1 0x20 PUSH1 0x0 KECCAK256 SWAP1 PUSH1 0x3 MUL ADD PUSH1 0x2 ADD PUSH1 0x1 PUSH2 0x100 EXP DUP2 SLOAD DUP2 PUSH1 0xFF MUL NOT AND SWAP1 DUP4 ISZERO ISZERO MUL OR SWAP1 SSTORE POP DUP5 DUP4 DUP2 SLOAD DUP2 LT PUSH2 0x157B JUMPI PUSH2 0x157B PUSH2 0x1AF9 JUMP JUMPDEST PUSH1 0x0 SWAP2 DUP3 MSTORE PUSH1 0x20 DUP3 KECCAK256 PUSH1 0x3 SWAP1 SWAP2 MUL ADD SLOAD PUSH1 0x40 MLOAD PUSH1 0x1 PUSH1 0x1 PUSH1 0xA0 SHL SUB SWAP1 SWAP2 AND SWAP2 DUP4 ISZERO PUSH2 0x8FC MUL SWAP2 DUP5 SWAP2 DUP2 DUP2 DUP2 DUP6 DUP9 DUP9 CALL SWAP4 POP POP POP POP ISZERO DUP1 ISZERO PUSH2 0x15C0 JUMPI RETURNDATASIZE PUSH1 0x0 DUP1 RETURNDATACOPY RETURNDATASIZE PUSH1 0x0 REVERT JUMPDEST POP POP POP JUMPDEST PUSH1 0x1 ADD PUSH2 0x1452 JUMP JUMPDEST POP POP POP POP POP POP JUMP JUMPDEST PUSH1 0x40 MLOAD DUP1 PUSH2 0x1A0 ADD PUSH1 0x40 MSTORE DUP1 PUSH1 0x0 PUSH1 0x1 PUSH1 0x1 PUSH1 0xA0 SHL SUB AND DUP2 MSTORE PUSH1 0x20 ADD PUSH1 0x0 DUP2 MSTORE PUSH1 0x20 ADD PUSH1 0x0 DUP2 MSTORE PUSH1 0x20 ADD PUSH1 0x0 DUP2 MSTORE PUSH1 0x20 ADD PUSH2 0x1630 PUSH1 0x40 MLOAD DUP1 PUSH1 0x80 ADD PUSH1 0x40 MSTORE DUP1 PUSH1 0x0 DUP2 MSTORE PUSH1 0x20 ADD PUSH1 0x0 DUP2 MSTORE PUSH1 0x20 ADD PUSH1 0x0 DUP2 MSTORE PUSH1 0x20 ADD PUSH1 0x0 DUP2 MSTORE POP SWAP1 JUMP JUMPDEST DUP2 MSTORE PUSH1 0x20 ADD PUSH2 0x1660 PUSH1 0x40 MLOAD DUP1 PUSH1 0x80 ADD PUSH1 0x40 MSTORE DUP1 PUSH1 0x0 DUP2 MSTORE PUSH1 0x20 ADD PUSH1 0x0 DUP2 MSTORE PUSH1 0x20 ADD PUSH1 0x0 DUP2 MSTORE PUSH1 0x20 ADD PUSH1 0x0 DUP2 MSTORE POP SWAP1 JUMP JUMPDEST DUP2 MSTORE PUSH1 0x20 ADD PUSH1 0x0 DUP2 MSTORE PUSH1 0x20 ADD PUSH1 0x0 DUP2 MSTORE PUSH1 0x20 ADD PUSH1 0x0 ISZERO ISZERO DUP2 MSTORE PUSH1 0x20 ADD PUSH1 0x0 ISZERO ISZERO DUP2 MSTORE PUSH1 0x20 ADD PUSH1 0x0 DUP2 MSTORE PUSH1 0x20 ADD PUSH1 0x0 DUP2 MSTORE PUSH1 0x20 ADD PUSH1 0x0 DUP2 MSTORE POP SWAP1 JUMP JUMPDEST PUSH1 0x0 PUSH1 0x20 DUP3 DUP5 SUB SLT ISZERO PUSH2 0x16AD JUMPI PUSH1 0x0 DUP1 REVERT JUMPDEST DUP2 CALLDATALOAD PUSH1 0x1 PUSH1 0x1 PUSH1 0xA0 SHL SUB DUP2 AND DUP2 EQ PUSH2 0x12BB JUMPI PUSH1 0x0 DUP1 REVERT JUMPDEST PUSH1 0x0 DUP1 PUSH1 0x0 DUP1 PUSH1 0x80 DUP6 DUP8 SUB SLT ISZERO PUSH2 0x16DA JUMPI PUSH1 0x0 DUP1 REVERT JUMPDEST POP POP DUP3 CALLDATALOAD SWAP5 PUSH1 0x20 DUP5 ADD CALLDATALOAD SWAP5 POP PUSH1 0x40 DUP5 ADD CALLDATALOAD SWAP4 PUSH1 0x60 ADD CALLDATALOAD SWAP3 POP SWAP1 POP JUMP JUMPDEST PUSH1 0x0 PUSH1 0x80 DUP3 DUP5 SUB SLT ISZERO PUSH2 0x1708 JUMPI PUSH1 0x0 DUP1 REVERT JUMPDEST PUSH1 0x40 MLOAD PUSH1 0x80 DUP2 ADD DUP2 DUP2 LT PUSH8 0xFFFFFFFFFFFFFFFF DUP3 GT OR ISZERO PUSH2 0x1739 JUMPI PUSH4 0x4E487B71 PUSH1 0xE0 SHL PUSH1 0x0 MSTORE PUSH1 0x41 PUSH1 0x4 MSTORE PUSH1 0x24 PUSH1 0x0 REVERT JUMPDEST DUP1 PUSH1 0x40 MSTORE POP DUP1 SWAP2 POP DUP3 CALLDATALOAD DUP2 MSTORE PUSH1 0x20 DUP4 ADD CALLDATALOAD PUSH1 0x20 DUP3 ADD MSTORE PUSH1 0x40 DUP4 ADD CALLDATALOAD PUSH1 0x40 DUP3 ADD MSTORE PUSH1 0x60 DUP4 ADD CALLDATALOAD PUSH1 0x60 DUP3 ADD MSTORE POP SWAP3 SWAP2 POP POP JUMP JUMPDEST PUSH1 0x0 DUP1 PUSH1 0x0 DUP1 PUSH2 0x140 DUP6 DUP8 SUB SLT ISZERO PUSH2 0x1781 JUMPI PUSH1 0x0 DUP1 REVERT JUMPDEST PUSH2 0x178B DUP7 DUP7 PUSH2 0x16F6 JUMP JUMPDEST SWAP4 POP PUSH2 0x179A DUP7 PUSH1 0x80 DUP8 ADD PUSH2 0x16F6 JUMP JUMPDEST SWAP4 SWAP7 SWAP4 SWAP6 POP POP POP POP PUSH2 0x100 DUP3 ADD CALLDATALOAD SWAP2 PUSH2 0x120 ADD CALLDATALOAD SWAP1 JUMP JUMPDEST PUSH1 0x0 DUP1 PUSH1 0xA0 DUP4 DUP6 SUB SLT ISZERO PUSH2 0x17C4 JUMPI PUSH1 0x0 DUP1 REVERT JUMPDEST DUP3 CALLDATALOAD SWAP2 POP PUSH2 0x17D5 DUP5 PUSH1 0x20 DUP6 ADD PUSH2 0x16F6 JUMP JUMPDEST SWAP1 POP SWAP3 POP SWAP3 SWAP1 POP JUMP JUMPDEST PUSH1 0x0 PUSH1 0x20 DUP3 DUP5 SUB SLT ISZERO PUSH2 0x17F0 JUMPI PUSH1 0x0 DUP1 REVERT JUMPDEST POP CALLDATALOAD SWAP2 SWAP1 POP JUMP JUMPDEST DUP2 MLOAD PUSH1 0x1 PUSH1 0x1 PUSH1 0xA0 SHL SUB AND DUP2 MSTORE PUSH2 0x260 DUP2 ADD PUSH1 0x20 DUP4 ADD MLOAD PUSH1 0x20 DUP4 ADD MSTORE PUSH1 0x40 DUP4 ADD MLOAD PUSH1 0x40 DUP4 ADD MSTORE PUSH1 0x60 DUP4 ADD MLOAD PUSH1 0x60 DUP4 ADD MSTORE PUSH1 0x80 DUP4 ADD MLOAD PUSH2 0x185A PUSH1 0x80 DUP5 ADD DUP3 DUP1 MLOAD DUP3 MSTORE PUSH1 0x20 DUP2 ADD MLOAD PUSH1 0x20 DUP4 ADD MSTORE PUSH1 0x40 DUP2 ADD MLOAD PUSH1 0x40 DUP4 ADD MSTORE PUSH1 0x60 DUP2 ADD MLOAD PUSH1 0x60 DUP4 ADD MSTORE POP POP JUMP JUMPDEST POP PUSH1 0xA0 DUP4 ADD MLOAD DUP1 MLOAD PUSH2 0x100 DUP5 DUP2 ADD SWAP2 SWAP1 SWAP2 MSTORE PUSH1 0x20 DUP3 ADD MLOAD PUSH2 0x120 DUP6 ADD MSTORE PUSH1 0x40 DUP3 ADD MLOAD PUSH2 0x140 DUP6 ADD MSTORE PUSH1 0x60 DUP3 ADD MLOAD PUSH2 0x160 DUP6 ADD MSTORE PUSH1 0xC0 DUP6 ADD MLOAD PUSH2 0x180 DUP6 DUP2 ADD SWAP2 SWAP1 SWAP2 MSTORE PUSH1 0xE0 DUP7 ADD MLOAD PUSH2 0x1A0 DUP7 ADD MSTORE DUP2 DUP7 ADD MLOAD DUP1 ISZERO ISZERO PUSH2 0x1C0 DUP8 ADD MSTORE SWAP3 POP PUSH2 0x120 DUP7 ADD MLOAD DUP1 ISZERO ISZERO PUSH2 0x1E0 DUP8 ADD MSTORE SWAP3 POP PUSH2 0x140 DUP7 ADD MLOAD PUSH2 0x200 DUP7 ADD MSTORE PUSH2 0x160 DUP7 ADD MLOAD PUSH2 0x220 DUP7 ADD MSTORE DUP1 DUP7 ADD MLOAD PUSH2 0x240 DUP7 ADD MSTORE POP POP POP SWAP3 SWAP2 POP POP JUMP JUMPDEST PUSH1 0x0 DUP1 PUSH1 0x40 DUP4 DUP6 SUB SLT ISZERO PUSH2 0x1905 JUMPI PUSH1 0x0 DUP1 REVERT JUMPDEST POP POP DUP1 CALLDATALOAD SWAP3 PUSH1 0x20 SWAP1 SWAP2 ADD CALLDATALOAD SWAP2 POP JUMP JUMPDEST PUSH1 0x0 DUP1 PUSH1 0x40 DUP4 DUP6 SUB SLT ISZERO PUSH2 0x1927 JUMPI PUSH1 0x0 DUP1 REVERT JUMPDEST DUP3 CALLDATALOAD SWAP2 POP PUSH1 0x20 DUP4 ADD CALLDATALOAD DUP1 ISZERO ISZERO DUP2 EQ PUSH2 0x193E JUMPI PUSH1 0x0 DUP1 REVERT JUMPDEST DUP1 SWAP2 POP POP SWAP3 POP SWAP3 SWAP1 POP JUMP JUMPDEST PUSH4 0x4E487B71 PUSH1 0xE0 SHL PUSH1 0x0 MSTORE PUSH1 0x11 PUSH1 0x4 MSTORE PUSH1 0x24 PUSH1 0x0 REVERT JUMPDEST DUP1 DUP3 MUL DUP2 ISZERO DUP3 DUP3 DIV DUP5 EQ OR PUSH2 0x129B JUMPI PUSH2 0x129B PUSH2 0x1949 JUMP JUMPDEST PUSH4 0x4E487B71 PUSH1 0xE0 SHL PUSH1 0x0 MSTORE PUSH1 0x12 PUSH1 0x4 MSTORE PUSH1 0x24 PUSH1 0x0 REVERT JUMPDEST PUSH1 0x0 DUP3 PUSH2 0x199B JUMPI PUSH2 0x199B PUSH2 0x1976 JUMP JUMPDEST POP DIV SWAP1 JUMP JUMPDEST DUP1 DUP3 ADD DUP1 DUP3 GT ISZERO PUSH2 0x129B JUMPI PUSH2 0x129B PUSH2 0x1949 JUMP JUMPDEST DUP2 DUP2 SUB PUSH1 0x0 DUP4 SLT DUP1 ISZERO DUP4 DUP4 SGT AND DUP4 DUP4 SLT DUP3 AND OR ISZERO PUSH2 0x19D3 JUMPI PUSH2 0x19D3 PUSH2 0x1949 JUMP JUMPDEST POP SWAP3 SWAP2 POP POP JUMP JUMPDEST DUP1 DUP3 MUL PUSH1 0x0 DUP3 SLT PUSH1 0x1 PUSH1 0xFF SHL DUP5 EQ AND ISZERO PUSH2 0x19F6 JUMPI PUSH2 0x19F6 PUSH2 0x1949 JUMP JUMPDEST DUP2 DUP2 SDIV DUP4 EQ DUP3 ISZERO OR PUSH2 0x129B JUMPI PUSH2 0x129B PUSH2 0x1949 JUMP JUMPDEST PUSH1 0x0 DUP3 PUSH2 0x1A19 JUMPI PUSH2 0x1A19 PUSH2 0x1976 JUMP JUMPDEST PUSH1 0x1 PUSH1 0xFF SHL DUP3 EQ PUSH1 0x0 NOT DUP5 EQ AND ISZERO PUSH2 0x1A33 JUMPI PUSH2 0x1A33 PUSH2 0x1949 JUMP JUMPDEST POP SDIV SWAP1 JUMP JUMPDEST DUP1 DUP3 ADD DUP3 DUP2 SLT PUSH1 0x0 DUP4 SLT DUP1 ISZERO DUP3 AND DUP3 ISZERO DUP3 AND OR ISZERO PUSH2 0x1A58 JUMPI PUSH2 0x1A58 PUSH2 0x1949 JUMP JUMPDEST POP POP SWAP3 SWAP2 POP POP JUMP JUMPDEST PUSH1 0x0 PUSH1 0x1 DUP3 ADD PUSH2 0x1A72 JUMPI PUSH2 0x1A72 PUSH2 0x1949 JUMP JUMPDEST POP PUSH1 0x1 ADD SWAP1 JUMP JUMPDEST DUP5 DUP2 MSTORE PUSH1 0x20 DUP2 ADD DUP5 SWAP1 MSTORE PUSH2 0x140 DUP2 ADD PUSH2 0x1AB6 PUSH1 0x40 DUP4 ADD DUP6 DUP1 MLOAD DUP3 MSTORE PUSH1 0x20 DUP2 ADD MLOAD PUSH1 0x20 DUP4 ADD MSTORE PUSH1 0x40 DUP2 ADD MLOAD PUSH1 0x40 DUP4 ADD MSTORE PUSH1 0x60 DUP2 ADD MLOAD PUSH1 0x60 DUP4 ADD MSTORE POP POP JUMP JUMPDEST DUP3 MLOAD PUSH1 0xC0 DUP4 ADD MSTORE PUSH1 0x20 DUP4 ADD MLOAD PUSH1 0xE0 DUP4 ADD MSTORE PUSH1 0x40 DUP4 ADD MLOAD PUSH2 0x100 DUP4 ADD MSTORE PUSH1 0x60 DUP4 ADD MLOAD PUSH2 0x120 DUP4 ADD MSTORE SWAP6 SWAP5 POP POP POP POP POP JUMP JUMPDEST DUP2 DUP2 SUB DUP2 DUP2 GT ISZERO PUSH2 0x129B JUMPI PUSH2 0x129B PUSH2 0x1949 JUMP JUMPDEST PUSH4 0x4E487B71 PUSH1 0xE0 SHL PUSH1 0x0 MSTORE PUSH1 0x32 PUSH1 0x4 MSTORE PUSH1 0x24 PUSH1 0x0 REVERT INVALID LOG2 PUSH5 0x6970667358 0x22 SLT KECCAK256 0xA8 DUP2 LOG3 0xDB SHR 0xF6 0xCE 0xF6 GT SWAP11 0x2C 0xC9 DUP1 PUSH28 0xD5E158BA0A5DFDE9A26B8DADC486EC42DCB764736F6C634300081600 CALLER "},"methodIdentifiers":{"EARTH_RADIUS_METERS()":"f873eeab","INITIAL_REPUTATION()":"7b057258","PROTOCOL_FEE()":"0b4501fd","calculateDistance(int256,int256,int256,int256)":"12718525","calculateETA(uint256,uint256)":"cab7a45d","calculateReputationScore(address)":"0a8fa825","commitmentBets(bytes32,uint256)":"b118174d","commitments(bytes32)":"839df945","createCommitment((int256,int256,uint256,uint256),(int256,int256,uint256,uint256),uint256,uint256)":"192aa9cf","fulfillCommitment(bytes32,(int256,int256,uint256,uint256))":"581ac32d","getCommitment(bytes32)":"7795820c","getUserReputation(address)":"baccbfdb","owner()":"8da5cb5b","placeBet(bytes32,bool)":"b162c6e6","protocolFeeBalance()":"0a22d68c","userReputationScore(address)":"f541d890","userSuccessfulCommitments(address)":"de0c13ca","userTotalCommitments(address)":"9af9338d","userTotalStaked(address)":"719de1ef","withdrawProtocolFees()":"8795cccb"}}}}}