{
  "_format": "hh-sol-artifact-1",
  "contractName": "PunctualityCore",
  "sourceName": "contracts/core/PunctualityCore.sol",
  "abi": [
    {
      "inputs": [],
      "stateMutability": "nonpayable",
      "type": "constructor"
    },
    {
      "inputs": [],
      "name": "AlreadyBet",
      "type": "error"
    },
    {
      "inputs": [],
      "name": "CannotBetOnSelf",
      "type": "error"
    },
    {
      "inputs": [],
      "name": "CommitmentAlreadyFulfilled",
      "type": "error"
    },
    {
      "inputs": [],
      "name": "CommitmentNotFound",
      "type": "error"
    },
    {
      "inputs": [],
      "name": "DeadlineInPast",
      "type": "error"
    },
    {
      "inputs": [],
      "name": "DeadlinePassed",
      "type": "error"
    },
    {
      "inputs": [],
      "name": "FailedEthTransfer",
      "type": "error"
    },
    {
      "inputs": [],
      "name": "NotCommitmentCreator",
      "type": "error"
    },
    {
      "inputs": [],
      "name": "OnlyOwner",
      "type": "error"
    },
    {
      "inputs": [],
      "name": "ZeroAddressRecipient",
      "type": "error"
    },
    {
      "inputs": [],
      "name": "ZeroBet",
      "type": "error"
    },
    {
      "inputs": [],
      "name": "ZeroPace",
      "type": "error"
    },
    {
      "inputs": [],
      "name": "ZeroStake",
      "type": "error"
    },
    {
      "anonymous": false,
      "inputs": [
        {
          "indexed": true,
          "internalType": "bytes32",
          "name": "commitmentId",
          "type": "bytes32"
        },
        {
          "indexed": true,
          "internalType": "address",
          "name": "bettor",
          "type": "address"
        },
        {
          "indexed": false,
          "internalType": "uint256",
          "name": "betAmount",
          "type": "uint256"
        },
        {
          "indexed": false,
          "internalType": "bool",
          "name": "bettingFor",
          "type": "bool"
        }
      ],
      "name": "BetPlaced",
      "type": "event"
    },
    {
      "anonymous": false,
      "inputs": [
        {
          "indexed": true,
          "internalType": "bytes32",
          "name": "commitmentId",
          "type": "bytes32"
        },
        {
          "indexed": true,
          "internalType": "address",
          "name": "user",
          "type": "address"
        },
        {
          "indexed": false,
          "internalType": "uint256",
          "name": "stakeAmount",
          "type": "uint256"
        },
        {
          "indexed": false,
          "internalType": "uint256",
          "name": "arrivalDeadline",
          "type": "uint256"
        },
        {
          "components": [
            {
              "internalType": "int256",
              "name": "latitude",
              "type": "int256"
            },
            {
              "internalType": "int256",
              "name": "longitude",
              "type": "int256"
            },
            {
              "internalType": "uint256",
              "name": "accuracy",
              "type": "uint256"
            },
            {
              "internalType": "uint256",
              "name": "timestamp",
              "type": "uint256"
            }
          ],
          "indexed": false,
          "internalType": "struct IPunctualityProtocol.LocationData",
          "name": "startLocation",
          "type": "tuple"
        },
        {
          "components": [
            {
              "internalType": "int256",
              "name": "latitude",
              "type": "int256"
            },
            {
              "internalType": "int256",
              "name": "longitude",
              "type": "int256"
            },
            {
              "internalType": "uint256",
              "name": "accuracy",
              "type": "uint256"
            },
            {
              "internalType": "uint256",
              "name": "timestamp",
              "type": "uint256"
            }
          ],
          "indexed": false,
          "internalType": "struct IPunctualityProtocol.LocationData",
          "name": "targetLocation",
          "type": "tuple"
        }
      ],
      "name": "CommitmentCreated",
      "type": "event"
    },
    {
      "anonymous": false,
      "inputs": [
        {
          "indexed": true,
          "internalType": "bytes32",
          "name": "commitmentId",
          "type": "bytes32"
        },
        {
          "indexed": true,
          "internalType": "address",
          "name": "user",
          "type": "address"
        },
        {
          "indexed": false,
          "internalType": "bool",
          "name": "successful",
          "type": "bool"
        },
        {
          "indexed": false,
          "internalType": "uint256",
          "name": "actualArrivalTime",
          "type": "uint256"
        },
        {
          "indexed": false,
          "internalType": "uint256",
          "name": "rewardAmount",
          "type": "uint256"
        }
      ],
      "name": "CommitmentFulfilled",
      "type": "event"
    },
    {
      "anonymous": false,
      "inputs": [
        {
          "indexed": true,
          "internalType": "address",
          "name": "deployer",
          "type": "address"
        },
        {
          "indexed": false,
          "internalType": "uint256",
          "name": "timestamp",
          "type": "uint256"
        }
      ],
      "name": "ContractDeployed",
      "type": "event"
    },
    {
      "anonymous": false,
      "inputs": [
        {
          "indexed": true,
          "internalType": "address",
          "name": "currentOwner",
          "type": "address"
        },
        {
          "indexed": true,
          "internalType": "address",
          "name": "pendingOwner",
          "type": "address"
        }
      ],
      "name": "OwnershipTransferStarted",
      "type": "event"
    },
    {
      "anonymous": false,
      "inputs": [
        {
          "indexed": true,
          "internalType": "address",
          "name": "previousOwner",
          "type": "address"
        },
        {
          "indexed": true,
          "internalType": "address",
          "name": "newOwner",
          "type": "address"
        }
      ],
      "name": "OwnershipTransferred",
      "type": "event"
    },
    {
      "inputs": [],
      "name": "LOCATION_TOLERANCE",
      "outputs": [
        {
          "internalType": "uint256",
          "name": "",
          "type": "uint256"
        }
      ],
      "stateMutability": "view",
      "type": "function"
    },
    {
      "inputs": [],
      "name": "REPUTATION_BASE",
      "outputs": [
        {
          "internalType": "uint256",
          "name": "",
          "type": "uint256"
        }
      ],
      "stateMutability": "view",
      "type": "function"
    },
    {
      "inputs": [],
      "name": "REPUTATION_MAX",
      "outputs": [
        {
          "internalType": "uint256",
          "name": "",
          "type": "uint256"
        }
      ],
      "stateMutability": "view",
      "type": "function"
    },
    {
      "inputs": [],
      "name": "REPUTATION_MIN",
      "outputs": [
        {
          "internalType": "uint256",
          "name": "",
          "type": "uint256"
        }
      ],
      "stateMutability": "view",
      "type": "function"
    },
    {
      "inputs": [
        {
          "internalType": "bytes32",
          "name": "",
          "type": "bytes32"
        }
      ],
      "name": "_pendingWithdrawals",
      "outputs": [
        {
          "internalType": "uint256",
          "name": "",
          "type": "uint256"
        }
      ],
      "stateMutability": "view",
      "type": "function"
    },
    {
      "inputs": [],
      "name": "acceptOwnership",
      "outputs": [],
      "stateMutability": "nonpayable",
      "type": "function"
    },
    {
      "inputs": [
        {
          "internalType": "bytes32",
          "name": "",
          "type": "bytes32"
        },
        {
          "internalType": "address",
          "name": "",
          "type": "address"
        }
      ],
      "name": "betsPlaced",
      "outputs": [
        {
          "internalType": "bool",
          "name": "",
          "type": "bool"
        }
      ],
      "stateMutability": "view",
      "type": "function"
    },
    {
      "inputs": [
        {
          "internalType": "int256",
          "name": "lat1",
          "type": "int256"
        },
        {
          "internalType": "int256",
          "name": "lon1",
          "type": "int256"
        },
        {
          "internalType": "int256",
          "name": "lat2",
          "type": "int256"
        },
        {
          "internalType": "int256",
          "name": "lon2",
          "type": "int256"
        }
      ],
      "name": "calculateDistance",
      "outputs": [
        {
          "internalType": "uint256",
          "name": "",
          "type": "uint256"
        }
      ],
      "stateMutability": "pure",
      "type": "function"
    },
    {
      "inputs": [
        {
          "internalType": "uint256",
          "name": "distance",
          "type": "uint256"
        },
        {
          "internalType": "uint256",
          "name": "pace",
          "type": "uint256"
        }
      ],
      "name": "calculateETA",
      "outputs": [
        {
          "internalType": "uint256",
          "name": "",
          "type": "uint256"
        }
      ],
      "stateMutability": "pure",
      "type": "function"
    },
    {
      "inputs": [
        {
          "internalType": "bytes32",
          "name": "commitmentId",
          "type": "bytes32"
        }
      ],
      "name": "claimWinnings",
      "outputs": [],
      "stateMutability": "nonpayable",
      "type": "function"
    },
    {
      "inputs": [
        {
          "internalType": "bytes32",
          "name": "",
          "type": "bytes32"
        }
      ],
      "name": "commitments",
      "outputs": [
        {
          "internalType": "address",
          "name": "user",
          "type": "address"
        },
        {
          "internalType": "uint256",
          "name": "stakeAmount",
          "type": "uint256"
        },
        {
          "internalType": "uint256",
          "name": "commitmentTime",
          "type": "uint256"
        },
        {
          "internalType": "uint256",
          "name": "arrivalDeadline",
          "type": "uint256"
        },
        {
          "components": [
            {
              "internalType": "int256",
              "name": "latitude",
              "type": "int256"
            },
            {
              "internalType": "int256",
              "name": "longitude",
              "type": "int256"
            },
            {
              "internalType": "uint256",
              "name": "accuracy",
              "type": "uint256"
            },
            {
              "internalType": "uint256",
              "name": "timestamp",
              "type": "uint256"
            }
          ],
          "internalType": "struct IPunctualityProtocol.LocationData",
          "name": "startLocation",
          "type": "tuple"
        },
        {
          "components": [
            {
              "internalType": "int256",
              "name": "latitude",
              "type": "int256"
            },
            {
              "internalType": "int256",
              "name": "longitude",
              "type": "int256"
            },
            {
              "internalType": "uint256",
              "name": "accuracy",
              "type": "uint256"
            },
            {
              "internalType": "uint256",
              "name": "timestamp",
              "type": "uint256"
            }
          ],
          "internalType": "struct IPunctualityProtocol.LocationData",
          "name": "targetLocation",
          "type": "tuple"
        },
        {
          "internalType": "uint256",
          "name": "estimatedDistance",
          "type": "uint256"
        },
        {
          "internalType": "uint256",
          "name": "estimatedPace",
          "type": "uint256"
        },
        {
          "internalType": "bool",
          "name": "fulfilled",
          "type": "bool"
        },
        {
          "internalType": "bool",
          "name": "successful",
          "type": "bool"
        },
        {
          "internalType": "uint256",
          "name": "actualArrivalTime",
          "type": "uint256"
        },
        {
          "internalType": "uint256",
          "name": "totalBetsFor",
          "type": "uint256"
        },
        {
          "internalType": "uint256",
          "name": "totalBetsAgainst",
          "type": "uint256"
        }
      ],
      "stateMutability": "view",
      "type": "function"
    },
    {
      "inputs": [
        {
          "components": [
            {
              "internalType": "int256",
              "name": "latitude",
              "type": "int256"
            },
            {
              "internalType": "int256",
              "name": "longitude",
              "type": "int256"
            },
            {
              "internalType": "uint256",
              "name": "accuracy",
              "type": "uint256"
            },
            {
              "internalType": "uint256",
              "name": "timestamp",
              "type": "uint256"
            }
          ],
          "internalType": "struct IPunctualityProtocol.LocationData",
          "name": "startLocation",
          "type": "tuple"
        },
        {
          "components": [
            {
              "internalType": "int256",
              "name": "latitude",
              "type": "int256"
            },
            {
              "internalType": "int256",
              "name": "longitude",
              "type": "int256"
            },
            {
              "internalType": "uint256",
              "name": "accuracy",
              "type": "uint256"
            },
            {
              "internalType": "uint256",
              "name": "timestamp",
              "type": "uint256"
            }
          ],
          "internalType": "struct IPunctualityProtocol.LocationData",
          "name": "targetLocation",
          "type": "tuple"
        },
        {
          "internalType": "uint256",
          "name": "arrivalDeadline",
          "type": "uint256"
        },
        {
          "internalType": "uint256",
          "name": "estimatedPace",
          "type": "uint256"
        }
      ],
      "name": "createCommitment",
      "outputs": [
        {
          "internalType": "bytes32",
          "name": "",
          "type": "bytes32"
        }
      ],
      "stateMutability": "payable",
      "type": "function"
    },
    {
      "inputs": [
        {
          "internalType": "bytes32",
          "name": "commitmentId",
          "type": "bytes32"
        },
        {
          "components": [
            {
              "internalType": "int256",
              "name": "latitude",
              "type": "int256"
            },
            {
              "internalType": "int256",
              "name": "longitude",
              "type": "int256"
            },
            {
              "internalType": "uint256",
              "name": "accuracy",
              "type": "uint256"
            },
            {
              "internalType": "uint256",
              "name": "timestamp",
              "type": "uint256"
            }
          ],
          "internalType": "struct IPunctualityProtocol.LocationData",
          "name": "arrivalLocation",
          "type": "tuple"
        }
      ],
      "name": "fulfillCommitment",
      "outputs": [],
      "stateMutability": "nonpayable",
      "type": "function"
    },
    {
      "inputs": [
        {
          "internalType": "bytes32",
          "name": "commitmentId",
          "type": "bytes32"
        }
      ],
      "name": "getCommitment",
      "outputs": [
        {
          "components": [
            {
              "internalType": "address",
              "name": "user",
              "type": "address"
            },
            {
              "internalType": "uint256",
              "name": "stakeAmount",
              "type": "uint256"
            },
            {
              "internalType": "uint256",
              "name": "commitmentTime",
              "type": "uint256"
            },
            {
              "internalType": "uint256",
              "name": "arrivalDeadline",
              "type": "uint256"
            },
            {
              "components": [
                {
                  "internalType": "int256",
                  "name": "latitude",
                  "type": "int256"
                },
                {
                  "internalType": "int256",
                  "name": "longitude",
                  "type": "int256"
                },
                {
                  "internalType": "uint256",
                  "name": "accuracy",
                  "type": "uint256"
                },
                {
                  "internalType": "uint256",
                  "name": "timestamp",
                  "type": "uint256"
                }
              ],
              "internalType": "struct IPunctualityProtocol.LocationData",
              "name": "startLocation",
              "type": "tuple"
            },
            {
              "components": [
                {
                  "internalType": "int256",
                  "name": "latitude",
                  "type": "int256"
                },
                {
                  "internalType": "int256",
                  "name": "longitude",
                  "type": "int256"
                },
                {
                  "internalType": "uint256",
                  "name": "accuracy",
                  "type": "uint256"
                },
                {
                  "internalType": "uint256",
                  "name": "timestamp",
                  "type": "uint256"
                }
              ],
              "internalType": "struct IPunctualityProtocol.LocationData",
              "name": "targetLocation",
              "type": "tuple"
            },
            {
              "internalType": "uint256",
              "name": "estimatedDistance",
              "type": "uint256"
            },
            {
              "internalType": "uint256",
              "name": "estimatedPace",
              "type": "uint256"
            },
            {
              "internalType": "bool",
              "name": "fulfilled",
              "type": "bool"
            },
            {
              "internalType": "bool",
              "name": "successful",
              "type": "bool"
            },
            {
              "internalType": "uint256",
              "name": "actualArrivalTime",
              "type": "uint256"
            },
            {
              "internalType": "uint256",
              "name": "totalBetsFor",
              "type": "uint256"
            },
            {
              "internalType": "uint256",
              "name": "totalBetsAgainst",
              "type": "uint256"
            }
          ],
          "internalType": "struct IPunctualityProtocol.ETACommitment",
          "name": "",
          "type": "tuple"
        }
      ],
      "stateMutability": "view",
      "type": "function"
    },
    {
      "inputs": [
        {
          "internalType": "address",
          "name": "user",
          "type": "address"
        }
      ],
      "name": "getUserReputation",
      "outputs": [
        {
          "internalType": "uint256",
          "name": "",
          "type": "uint256"
        }
      ],
      "stateMutability": "view",
      "type": "function"
    },
    {
      "inputs": [],
      "name": "owner",
      "outputs": [
        {
          "internalType": "address",
          "name": "",
          "type": "address"
        }
      ],
      "stateMutability": "view",
      "type": "function"
    },
    {
      "inputs": [],
      "name": "pendingOwner",
      "outputs": [
        {
          "internalType": "address",
          "name": "",
          "type": "address"
        }
      ],
      "stateMutability": "view",
      "type": "function"
    },
    {
      "inputs": [
        {
          "internalType": "bytes32",
          "name": "commitmentId",
          "type": "bytes32"
        },
        {
          "internalType": "bool",
          "name": "bettingFor",
          "type": "bool"
        }
      ],
      "name": "placeBet",
      "outputs": [],
      "stateMutability": "payable",
      "type": "function"
    },
    {
      "inputs": [
        {
          "internalType": "address",
          "name": "user",
          "type": "address"
        },
        {
          "internalType": "uint256",
          "name": "value",
          "type": "uint256"
        }
      ],
      "name": "setReputation",
      "outputs": [],
      "stateMutability": "nonpayable",
      "type": "function"
    },
    {
      "inputs": [
        {
          "internalType": "address",
          "name": "newOwner",
          "type": "address"
        }
      ],
      "name": "transferOwnership",
      "outputs": [],
      "stateMutability": "nonpayable",
      "type": "function"
    },
    {
      "inputs": [
        {
          "internalType": "address",
          "name": "",
          "type": "address"
        }
      ],
      "name": "userReputations",
      "outputs": [
        {
          "internalType": "uint256",
          "name": "",
          "type": "uint256"
        }
      ],
      "stateMutability": "view",
      "type": "function"
    }
  ],
  "bytecode": "0x60806040526001600055348015601457600080fd5b50600580546001600160a01b03191633908117909155600081815260026020526040908190206113889055517f836641082a104c21a747f2896a189cda6d34502edf7de2f98afc4460d0720bfa90606e9042815260200190565b60405180910390a26116a2806100856000396000f3fe60806040526004361061012a5760003560e01c8063b120c16a116100ab578063e30c39781161006f578063e30c39781461040c578063e49b606c1461042a578063f2fde38b1461044a578063f62a55c41461046a578063f64b2de414610497578063f8b11691146104ad57600080fd5b8063b120c16a14610383578063b162c6e6146103a3578063baccbfdb146103b6578063c809232b146103d6578063cab7a45d146103ec57600080fd5b80637795820c116100f25780637795820c146101f857806379ba5097146102255780637fde37611461023a578063839df9451461024f5780638da5cb5b1461035157600080fd5b8063045db6851461012f5780631271852514610158578063192aa9cf1461017857806352f614981461018b578063581ac32d146101d6575b600080fd5b34801561013b57600080fd5b506101456103e881565b6040519081526020015b60405180910390f35b34801561016457600080fd5b50610145610173366004611176565b6104da565b610145610186366004611219565b610532565b34801561019757600080fd5b506101c66101a636600461127c565b600360209081526000928352604080842090915290825290205460ff1681565b604051901515815260200161014f565b3480156101e257600080fd5b506101f66101f13660046112a8565b610844565b005b34801561020457600080fd5b506102186102133660046112cc565b610afb565b60405161014f919061130b565b34801561023157600080fd5b506101f6610c0f565b34801561024657600080fd5b50610145606481565b34801561025b57600080fd5b5061033861026a3660046112cc565b60016020818152600092835260409283902080549281015460028201546003830154865160808082018952600486015482526005860154828801526006860154828a0152600786015460608084019190915289519182018a5260088701548252600987015497820197909752600a86015498810198909852600b85015495880195909552600c840154600d850154600e860154600f87015460108801546011909801546001600160a01b03909a169a9699959894979496959394929360ff808416946101009094041692908d565b60405161014f9d9c9b9a999897969594939291906113be565b34801561035d57600080fd5b506005546001600160a01b03165b6040516001600160a01b03909116815260200161014f565b34801561038f57600080fd5b506101f661039e366004611440565b610c92565b6101f66103b136600461146a565b610cd9565b3480156103c257600080fd5b506101456103d136600461149f565b610eb1565b3480156103e257600080fd5b5061014561271081565b3480156103f857600080fd5b506101456104073660046114ba565b610ee1565b34801561041857600080fd5b506006546001600160a01b031661036b565b34801561043657600080fd5b506101f66104453660046112cc565b610ef4565b34801561045657600080fd5b506101f661046536600461149f565b610f6d565b34801561047657600080fd5b506101456104853660046112cc565b60076020526000908152604090205481565b3480156104a357600080fd5b5061014561138881565b3480156104b957600080fd5b506101456104c836600461149f565b60026020526000908152604090205481565b6000806104e786856114f2565b905060006104f586856114f2565b905060006105038280611519565b61050d8480611519565b6105179190611549565b9050610526620f424082611571565b98975050505050505050565b600060026000540361055f5760405162461bcd60e51b8152600401610556906115ad565b60405180910390fd5b600260009081553490036105865760405163150a67e960e01b815260040160405180910390fd5b4283116105a65760405163017d800b60e71b815260040160405180910390fd5b816000036105c757604051633521da9560e11b815260040160405180910390fd5b6004805460009133914391846105dc836115e4565b9091555060405160609390931b6bffffffffffffffffffffffff1916602084015260348301919091526054820152607401604051602081830303815290604052805190602001209050600061064387600001518860200151886000015189602001516104da565b9050604051806101a00160405280336001600160a01b03168152602001348152602001428152602001868152602001888152602001878152602001828152602001858152602001600015158152602001600015158152602001600081526020016000815260200160008152506001600084815260200190815260200160002060008201518160000160006101000a8154816001600160a01b0302191690836001600160a01b0316021790555060208201518160010155604082015181600201556060820151816003015560808201518160040160008201518160000155602082015181600101556040820151816002015560608201518160030155505060a08201518160080160008201518160000155602082015181600101556040820151816002015560608201518160030155505060c082015181600c015560e082015181600d015561010082015181600e0160006101000a81548160ff02191690831515021790555061012082015181600e0160016101000a81548160ff02191690831515021790555061014082015181600f015561016082015181601001556101808201518160110155905050336001600160a01b0316827f2ab4d5a74b3917397a7ab399780894f3915d63c66fa75d64882ba219fea5610034888b8b60405161082d94939291906115fd565b60405180910390a350600160005595945050505050565b6002600054036108665760405162461bcd60e51b8152600401610556906115ad565b6002600090815582815260016020526040902080546001600160a01b03166108a157604051635b34156960e11b815260040160405180910390fd5b600e81015460ff16156108c757604051631f69ce9b60e31b815260040160405180910390fd5b80546001600160a01b031633146108f15760405163d31a23b160e01b815260040160405180910390fd5b600e8101805460ff1916600117905542600f820181905560038201548351602085015160088501546009860154939094111593600093610933939291906104da565b905060648111158280156109445750805b600e8501805461ff0019166101009215158302179081905560009160ff910416156109f2578460110154856001015461097d919061162f565b8554909150610995906001600160a01b031682611011565b84546001600160a01b0316600090815260026020526040812054908190036109bc57506113885b6109d26127106109cd83606461162f565b61108a565b86546001600160a01b031660009081526002602052604090205550610a8f565b600085601001548660010154610a08919061162f565b905060008660110154118015610a1e5750600081115b15610a355760008881526007602052604090208190555b85546001600160a01b031660009081526002602052604081205490819003610a5c57506113885b610a726103e8610a6d606484611642565b6110a0565b87546001600160a01b031660009081526002602052604090205550505b8454600e8601546040805161010090920460ff161515825242602083015281018390526001600160a01b039091169088907f70ca586fcb861ba47586fa95a762bf13c4e13aee7699711ac3d3adb0ef7673f99060600160405180910390a3505060016000555050505050565b610b036110af565b5060009081526001602081815260409283902083516101a08101855281546001600160a01b031681529281015483830152600281015483850152600381015460608085019190915284516080818101875260048401548252600584015482860152600684015482880152600784015482840152808601919091528551908101865260088301548152600983015493810193909352600a82015494830194909452600b8101549382019390935260a0820152600c82015460c0820152600d82015460e0820152600e82015460ff808216151561010080850191909152909104161515610120820152600f820154610140820152601082015461016082015260119091015461018082015290565b6006546001600160a01b03163314610c3a57604051635fc483c560e01b815260040160405180910390fd5b60055460405133916001600160a01b0316907f8be0079c531659141344cd1fd0a4f28419497f9722a3daafe3b4186f6b6457e090600090a3600580546001600160a01b03199081163317909155600680549091169055565b6005546001600160a01b03163314610cbd57604051635fc483c560e01b815260040160405180910390fd5b6001600160a01b03909116600090815260026020526040902055565b600260005403610cfb5760405162461bcd60e51b8152600401610556906115ad565b6002600090815582815260016020526040902080546001600160a01b0316610d3657604051635b34156960e11b815260040160405180910390fd5b600e81015460ff1615610d5c57604051631f69ce9b60e31b815260040160405180910390fd5b80600301544210610d805760405163387b2e5560e11b815260040160405180910390fd5b34600003610da1576040516306400ccd60e41b815260040160405180910390fd5b80546001600160a01b03163303610dcb576040516375f4b33160e01b815260040160405180910390fd5b600083815260036020908152604080832033845290915290205460ff1615610e06576040516354103a1760e11b815260040160405180910390fd5b60008381526003602090815260408083203384529091529020805460ff191660011790558115610e4f5734816010016000828254610e44919061162f565b90915550610e699050565b34816011016000828254610e63919061162f565b90915550505b604080513481528315156020820152339185917fd16174e715659dbd1a7c4b7325dc4def5852b62256790341072d1bd59758849c910160405180910390a35050600160005550565b6001600160a01b038116600090815260026020526040812054808203610edb575061138892915050565b92915050565b6000610eed8284611655565b9392505050565b600260005403610f165760405162461bcd60e51b8152600401610556906115ad565b600260009081558181526007602052604081205490819003610f4b57604051635b34156960e11b815260040160405180910390fd5b600082815260076020526040812055610f643382611011565b50506001600055565b6005546001600160a01b03163314610f9857604051635fc483c560e01b815260040160405180910390fd5b6001600160a01b038116610fbf576040516308c9926560e31b815260040160405180910390fd5b600680546001600160a01b0319166001600160a01b03838116918217909255600554604051919216907f38d16b8cac22d99fc7c124b9cd0de2d3fa1faef420bfe791d8c362d765e2270090600090a350565b6000826001600160a01b03168260405160006040518083038185875af1925050503d806000811461105e576040519150601f19603f3d011682016040523d82523d6000602084013e611063565b606091505b5050905080611085576040516379f7895d60e01b815260040160405180910390fd5b505050565b60008183106110995781610eed565b5090919050565b60008183116110995781610eed565b604051806101a0016040528060006001600160a01b0316815260200160008152602001600081526020016000815260200161110b6040518060800160405280600081526020016000815260200160008152602001600081525090565b815260200161113b6040518060800160405280600081526020016000815260200160008152602001600081525090565b815260200160008152602001600081526020016000151581526020016000151581526020016000815260200160008152602001600081525090565b6000806000806080858703121561118c57600080fd5b5050823594602084013594506040840135936060013592509050565b6000608082840312156111ba57600080fd5b6040516080810181811067ffffffffffffffff821117156111eb57634e487b7160e01b600052604160045260246000fd5b6040908152833582526020808501359083015283810135908201526060928301359281019290925250919050565b600080600080610140858703121561123057600080fd5b61123a86866111a8565b935061124986608087016111a8565b939693955050505061010082013591610120013590565b80356001600160a01b038116811461127757600080fd5b919050565b6000806040838503121561128f57600080fd5b8235915061129f60208401611260565b90509250929050565b60008060a083850312156112bb57600080fd5b8235915061129f84602085016111a8565b6000602082840312156112de57600080fd5b5035919050565b805182526020810151602083015260408101516040830152606081015160608301525050565b81516001600160a01b031681526102608101602083015160208301526040830151604083015260608301516060830152608083015161134d60808401826112e5565b5060a08301516113616101008401826112e5565b5060c08301516101808381019190915260e08401516101a084015261010084015115156101c084015261012084015115156101e0840152610140840151610200840152610160840151610220840152909201516102409091015290565b6001600160a01b038e168152602081018d9052604081018c9052606081018b905261026081016113f1608083018c6112e5565b6113ff61010083018b6112e5565b6101808201989098526101a08101969096529315156101c08601529115156101e0850152610200840152610220830152610240909101529695505050505050565b6000806040838503121561145357600080fd5b61145c83611260565b946020939093013593505050565b6000806040838503121561147d57600080fd5b823591506020830135801515811461149457600080fd5b809150509250929050565b6000602082840312156114b157600080fd5b610eed82611260565b600080604083850312156114cd57600080fd5b50508035926020909101359150565b634e487b7160e01b600052601160045260246000fd5b8181036000831280158383131683831282161715611512576115126114dc565b5092915050565b80820260008212600160ff1b84141615611535576115356114dc565b8181058314821517610edb57610edb6114dc565b8082018281126000831280158216821582161715611569576115696114dc565b505092915050565b60008261158e57634e487b7160e01b600052601260045260246000fd5b600160ff1b8214600019841416156115a8576115a86114dc565b500590565b6020808252601f908201527f5265656e7472616e637947756172643a207265656e7472616e742063616c6c00604082015260600190565b6000600182016115f6576115f66114dc565b5060010190565b84815260208101849052610140810161161960408301856112e5565b61162660c08301846112e5565b95945050505050565b80820180821115610edb57610edb6114dc565b81810381811115610edb57610edb6114dc565b8082028115828204841417610edb57610edb6114dc56fea2646970667358221220517d11e191feacbb8b4a627c35d90f8beaf7d9aa254b653ae4731557b46024d664736f6c634300081e0033",
  "linkReferences": {},
  "deployedLinkReferences": {}
}