{
  "_format": "hh-sol-artifact-1",
  "contractName": "PunctualityCore",
  "sourceName": "contracts/core/PunctualityCore.sol",
  "abi": [
    {
      "inputs": [],
      "stateMutability": "nonpayable",
      "type": "constructor"
    },
    {
      "anonymous": false,
      "inputs": [
        {
          "indexed": true,
          "internalType": "bytes32",
          "name": "commitmentId",
          "type": "bytes32"
        },
        {
          "indexed": true,
          "internalType": "address",
          "name": "bettor",
          "type": "address"
        },
        {
          "indexed": false,
          "internalType": "uint256",
          "name": "betAmount",
          "type": "uint256"
        },
        {
          "indexed": false,
          "internalType": "bool",
          "name": "bettingFor",
          "type": "bool"
        }
      ],
      "name": "BetPlaced",
      "type": "event"
    },
    {
      "anonymous": false,
      "inputs": [
        {
          "indexed": true,
          "internalType": "bytes32",
          "name": "commitmentId",
          "type": "bytes32"
        },
        {
          "indexed": true,
          "internalType": "address",
          "name": "user",
          "type": "address"
        },
        {
          "indexed": false,
          "internalType": "uint256",
          "name": "stakeAmount",
          "type": "uint256"
        },
        {
          "indexed": false,
          "internalType": "uint256",
          "name": "arrivalDeadline",
          "type": "uint256"
        },
        {
          "components": [
            {
              "internalType": "int256",
              "name": "latitude",
              "type": "int256"
            },
            {
              "internalType": "int256",
              "name": "longitude",
              "type": "int256"
            },
            {
              "internalType": "uint256",
              "name": "accuracy",
              "type": "uint256"
            },
            {
              "internalType": "uint256",
              "name": "timestamp",
              "type": "uint256"
            }
          ],
          "indexed": false,
          "internalType": "struct IPunctualityProtocol.LocationData",
          "name": "startLocation",
          "type": "tuple"
        },
        {
          "components": [
            {
              "internalType": "int256",
              "name": "latitude",
              "type": "int256"
            },
            {
              "internalType": "int256",
              "name": "longitude",
              "type": "int256"
            },
            {
              "internalType": "uint256",
              "name": "accuracy",
              "type": "uint256"
            },
            {
              "internalType": "uint256",
              "name": "timestamp",
              "type": "uint256"
            }
          ],
          "indexed": false,
          "internalType": "struct IPunctualityProtocol.LocationData",
          "name": "targetLocation",
          "type": "tuple"
        }
      ],
      "name": "CommitmentCreated",
      "type": "event"
    },
    {
      "anonymous": false,
      "inputs": [
        {
          "indexed": true,
          "internalType": "bytes32",
          "name": "commitmentId",
          "type": "bytes32"
        },
        {
          "indexed": true,
          "internalType": "address",
          "name": "user",
          "type": "address"
        },
        {
          "indexed": false,
          "internalType": "bool",
          "name": "successful",
          "type": "bool"
        },
        {
          "indexed": false,
          "internalType": "uint256",
          "name": "actualArrivalTime",
          "type": "uint256"
        },
        {
          "indexed": false,
          "internalType": "uint256",
          "name": "rewardAmount",
          "type": "uint256"
        }
      ],
      "name": "CommitmentFulfilled",
      "type": "event"
    },
    {
      "anonymous": false,
      "inputs": [
        {
          "indexed": true,
          "internalType": "address",
          "name": "deployer",
          "type": "address"
        },
        {
          "indexed": false,
          "internalType": "uint256",
          "name": "timestamp",
          "type": "uint256"
        }
      ],
      "name": "ContractDeployed",
      "type": "event"
    },
    {
      "inputs": [],
      "name": "LOCATION_TOLERANCE",
      "outputs": [
        {
          "internalType": "uint256",
          "name": "",
          "type": "uint256"
        }
      ],
      "stateMutability": "view",
      "type": "function"
    },
    {
      "inputs": [],
      "name": "REPUTATION_BASE",
      "outputs": [
        {
          "internalType": "uint256",
          "name": "",
          "type": "uint256"
        }
      ],
      "stateMutability": "view",
      "type": "function"
    },
    {
      "inputs": [],
      "name": "REPUTATION_MAX",
      "outputs": [
        {
          "internalType": "uint256",
          "name": "",
          "type": "uint256"
        }
      ],
      "stateMutability": "view",
      "type": "function"
    },
    {
      "inputs": [],
      "name": "REPUTATION_MIN",
      "outputs": [
        {
          "internalType": "uint256",
          "name": "",
          "type": "uint256"
        }
      ],
      "stateMutability": "view",
      "type": "function"
    },
    {
      "inputs": [
        {
          "internalType": "bytes32",
          "name": "",
          "type": "bytes32"
        },
        {
          "internalType": "address",
          "name": "",
          "type": "address"
        }
      ],
      "name": "betsPlaced",
      "outputs": [
        {
          "internalType": "bool",
          "name": "",
          "type": "bool"
        }
      ],
      "stateMutability": "view",
      "type": "function"
    },
    {
      "inputs": [
        {
          "internalType": "int256",
          "name": "lat1",
          "type": "int256"
        },
        {
          "internalType": "int256",
          "name": "lon1",
          "type": "int256"
        },
        {
          "internalType": "int256",
          "name": "lat2",
          "type": "int256"
        },
        {
          "internalType": "int256",
          "name": "lon2",
          "type": "int256"
        }
      ],
      "name": "calculateDistance",
      "outputs": [
        {
          "internalType": "uint256",
          "name": "",
          "type": "uint256"
        }
      ],
      "stateMutability": "pure",
      "type": "function"
    },
    {
      "inputs": [
        {
          "internalType": "uint256",
          "name": "distance",
          "type": "uint256"
        },
        {
          "internalType": "uint256",
          "name": "pace",
          "type": "uint256"
        }
      ],
      "name": "calculateETA",
      "outputs": [
        {
          "internalType": "uint256",
          "name": "",
          "type": "uint256"
        }
      ],
      "stateMutability": "pure",
      "type": "function"
    },
    {
      "inputs": [
        {
          "internalType": "bytes32",
          "name": "",
          "type": "bytes32"
        }
      ],
      "name": "commitments",
      "outputs": [
        {
          "internalType": "address",
          "name": "user",
          "type": "address"
        },
        {
          "internalType": "uint256",
          "name": "stakeAmount",
          "type": "uint256"
        },
        {
          "internalType": "uint256",
          "name": "commitmentTime",
          "type": "uint256"
        },
        {
          "internalType": "uint256",
          "name": "arrivalDeadline",
          "type": "uint256"
        },
        {
          "components": [
            {
              "internalType": "int256",
              "name": "latitude",
              "type": "int256"
            },
            {
              "internalType": "int256",
              "name": "longitude",
              "type": "int256"
            },
            {
              "internalType": "uint256",
              "name": "accuracy",
              "type": "uint256"
            },
            {
              "internalType": "uint256",
              "name": "timestamp",
              "type": "uint256"
            }
          ],
          "internalType": "struct IPunctualityProtocol.LocationData",
          "name": "startLocation",
          "type": "tuple"
        },
        {
          "components": [
            {
              "internalType": "int256",
              "name": "latitude",
              "type": "int256"
            },
            {
              "internalType": "int256",
              "name": "longitude",
              "type": "int256"
            },
            {
              "internalType": "uint256",
              "name": "accuracy",
              "type": "uint256"
            },
            {
              "internalType": "uint256",
              "name": "timestamp",
              "type": "uint256"
            }
          ],
          "internalType": "struct IPunctualityProtocol.LocationData",
          "name": "targetLocation",
          "type": "tuple"
        },
        {
          "internalType": "uint256",
          "name": "estimatedDistance",
          "type": "uint256"
        },
        {
          "internalType": "uint256",
          "name": "estimatedPace",
          "type": "uint256"
        },
        {
          "internalType": "bool",
          "name": "fulfilled",
          "type": "bool"
        },
        {
          "internalType": "bool",
          "name": "successful",
          "type": "bool"
        },
        {
          "internalType": "uint256",
          "name": "actualArrivalTime",
          "type": "uint256"
        },
        {
          "internalType": "uint256",
          "name": "totalBetsFor",
          "type": "uint256"
        },
        {
          "internalType": "uint256",
          "name": "totalBetsAgainst",
          "type": "uint256"
        }
      ],
      "stateMutability": "view",
      "type": "function"
    },
    {
      "inputs": [
        {
          "components": [
            {
              "internalType": "int256",
              "name": "latitude",
              "type": "int256"
            },
            {
              "internalType": "int256",
              "name": "longitude",
              "type": "int256"
            },
            {
              "internalType": "uint256",
              "name": "accuracy",
              "type": "uint256"
            },
            {
              "internalType": "uint256",
              "name": "timestamp",
              "type": "uint256"
            }
          ],
          "internalType": "struct IPunctualityProtocol.LocationData",
          "name": "startLocation",
          "type": "tuple"
        },
        {
          "components": [
            {
              "internalType": "int256",
              "name": "latitude",
              "type": "int256"
            },
            {
              "internalType": "int256",
              "name": "longitude",
              "type": "int256"
            },
            {
              "internalType": "uint256",
              "name": "accuracy",
              "type": "uint256"
            },
            {
              "internalType": "uint256",
              "name": "timestamp",
              "type": "uint256"
            }
          ],
          "internalType": "struct IPunctualityProtocol.LocationData",
          "name": "targetLocation",
          "type": "tuple"
        },
        {
          "internalType": "uint256",
          "name": "arrivalDeadline",
          "type": "uint256"
        },
        {
          "internalType": "uint256",
          "name": "estimatedPace",
          "type": "uint256"
        }
      ],
      "name": "createCommitment",
      "outputs": [
        {
          "internalType": "bytes32",
          "name": "",
          "type": "bytes32"
        }
      ],
      "stateMutability": "payable",
      "type": "function"
    },
    {
      "inputs": [
        {
          "internalType": "bytes32",
          "name": "commitmentId",
          "type": "bytes32"
        },
        {
          "components": [
            {
              "internalType": "int256",
              "name": "latitude",
              "type": "int256"
            },
            {
              "internalType": "int256",
              "name": "longitude",
              "type": "int256"
            },
            {
              "internalType": "uint256",
              "name": "accuracy",
              "type": "uint256"
            },
            {
              "internalType": "uint256",
              "name": "timestamp",
              "type": "uint256"
            }
          ],
          "internalType": "struct IPunctualityProtocol.LocationData",
          "name": "arrivalLocation",
          "type": "tuple"
        }
      ],
      "name": "fulfillCommitment",
      "outputs": [],
      "stateMutability": "nonpayable",
      "type": "function"
    },
    {
      "inputs": [
        {
          "internalType": "bytes32",
          "name": "commitmentId",
          "type": "bytes32"
        }
      ],
      "name": "getCommitment",
      "outputs": [
        {
          "components": [
            {
              "internalType": "address",
              "name": "user",
              "type": "address"
            },
            {
              "internalType": "uint256",
              "name": "stakeAmount",
              "type": "uint256"
            },
            {
              "internalType": "uint256",
              "name": "commitmentTime",
              "type": "uint256"
            },
            {
              "internalType": "uint256",
              "name": "arrivalDeadline",
              "type": "uint256"
            },
            {
              "components": [
                {
                  "internalType": "int256",
                  "name": "latitude",
                  "type": "int256"
                },
                {
                  "internalType": "int256",
                  "name": "longitude",
                  "type": "int256"
                },
                {
                  "internalType": "uint256",
                  "name": "accuracy",
                  "type": "uint256"
                },
                {
                  "internalType": "uint256",
                  "name": "timestamp",
                  "type": "uint256"
                }
              ],
              "internalType": "struct IPunctualityProtocol.LocationData",
              "name": "startLocation",
              "type": "tuple"
            },
            {
              "components": [
                {
                  "internalType": "int256",
                  "name": "latitude",
                  "type": "int256"
                },
                {
                  "internalType": "int256",
                  "name": "longitude",
                  "type": "int256"
                },
                {
                  "internalType": "uint256",
                  "name": "accuracy",
                  "type": "uint256"
                },
                {
                  "internalType": "uint256",
                  "name": "timestamp",
                  "type": "uint256"
                }
              ],
              "internalType": "struct IPunctualityProtocol.LocationData",
              "name": "targetLocation",
              "type": "tuple"
            },
            {
              "internalType": "uint256",
              "name": "estimatedDistance",
              "type": "uint256"
            },
            {
              "internalType": "uint256",
              "name": "estimatedPace",
              "type": "uint256"
            },
            {
              "internalType": "bool",
              "name": "fulfilled",
              "type": "bool"
            },
            {
              "internalType": "bool",
              "name": "successful",
              "type": "bool"
            },
            {
              "internalType": "uint256",
              "name": "actualArrivalTime",
              "type": "uint256"
            },
            {
              "internalType": "uint256",
              "name": "totalBetsFor",
              "type": "uint256"
            },
            {
              "internalType": "uint256",
              "name": "totalBetsAgainst",
              "type": "uint256"
            }
          ],
          "internalType": "struct IPunctualityProtocol.ETACommitment",
          "name": "",
          "type": "tuple"
        }
      ],
      "stateMutability": "view",
      "type": "function"
    },
    {
      "inputs": [
        {
          "internalType": "address",
          "name": "user",
          "type": "address"
        }
      ],
      "name": "getUserReputation",
      "outputs": [
        {
          "internalType": "uint256",
          "name": "",
          "type": "uint256"
        }
      ],
      "stateMutability": "view",
      "type": "function"
    },
    {
      "inputs": [],
      "name": "owner",
      "outputs": [
        {
          "internalType": "address",
          "name": "",
          "type": "address"
        }
      ],
      "stateMutability": "view",
      "type": "function"
    },
    {
      "inputs": [
        {
          "internalType": "bytes32",
          "name": "commitmentId",
          "type": "bytes32"
        },
        {
          "internalType": "bool",
          "name": "bettingFor",
          "type": "bool"
        }
      ],
      "name": "placeBet",
      "outputs": [],
      "stateMutability": "payable",
      "type": "function"
    },
    {
      "inputs": [
        {
          "internalType": "address",
          "name": "newOwner",
          "type": "address"
        }
      ],
      "name": "transferOwnership",
      "outputs": [],
      "stateMutability": "nonpayable",
      "type": "function"
    },
    {
      "inputs": [
        {
          "internalType": "address",
          "name": "",
          "type": "address"
        }
      ],
      "name": "userReputations",
      "outputs": [
        {
          "internalType": "uint256",
          "name": "",
          "type": "uint256"
        }
      ],
      "stateMutability": "view",
      "type": "function"
    }
  ],
  "bytecode": "0x6080604052348015600f57600080fd5b50600380546001600160a01b03191633908117909155600081815260016020526040908190206113889055517f836641082a104c21a747f2896a189cda6d34502edf7de2f98afc4460d0720bfa9060699042815260200190565b60405180910390a26116a4806100806000396000f3fe6080604052600436106100f35760003560e01c80638da5cb5b1161008a578063cab7a45d11610059578063cab7a45d1461040d578063f2fde38b1461042d578063f64b2de41461044d578063f8b116911461046357600080fd5b80638da5cb5b1461039c578063b162c6e6146103c4578063baccbfdb146103d7578063c809232b146103f757600080fd5b8063581ac32d116100c6578063581ac32d1461019f5780637795820c146101c15780637fde3761146101ee578063839df9451461020357600080fd5b8063045db685146100f85780631271852514610121578063192aa9cf1461014157806352f6149814610154575b600080fd5b34801561010457600080fd5b5061010e6103e881565b6040519081526020015b60405180910390f35b34801561012d57600080fd5b5061010e61013c366004611204565b610490565b61010e61014f3660046112a7565b6104f2565b34801561016057600080fd5b5061018f61016f36600461130a565b600260209081526000928352604080842090915290825290205460ff1681565b6040519015158152602001610118565b3480156101ab57600080fd5b506101bf6101ba366004611336565b61085f565b005b3480156101cd57600080fd5b506101e16101dc36600461135a565b610c01565b6040516101189190611373565b3480156101fa57600080fd5b5061010e606481565b34801561020f57600080fd5b506102e861021e36600461135a565b600060208181529181526040908190208054600182015460028301546003840154855160808082018852600487015482526005870154828a015260068701548289015260078701546060808401919091528851918201895260088801548252600988015499820199909952600a87015497810197909752600b86015497870197909752600c850154600d860154600e870154600f88015460108901546011909901546001600160a01b039098169a9699959894979394929360ff808416946101009094041692908d565b604080516001600160a01b03909e168e526020808f019d909d528d81019b909b526060808e019a909a52885160808e01528b89015160a08e0152888b015160c08e01529789015160e08d015286516101008d0152998601516101208c0152978501516101408b015295909301516101608901526101808801919091526101a087015215156101c08601529015156101e085015261020084019190915261022083019190915261024082015261026001610118565b3480156103a857600080fd5b506003546040516001600160a01b039091168152602001610118565b6101bf6103d2366004611465565b610d15565b3480156103e357600080fd5b5061010e6103f236600461149a565b610ff9565b34801561040357600080fd5b5061010e61271081565b34801561041957600080fd5b5061010e6104283660046114b5565b611029565b34801561043957600080fd5b506101bf61044836600461149a565b61103c565b34801561045957600080fd5b5061010e61138881565b34801561046f57600080fd5b5061010e61047e36600461149a565b60016020526000908152604090205481565b60008061049d86856114ed565b905060006104ab86856114ed565b905060006104b98380611514565b905060006104c78380611514565b905060006104d58284611544565b90506104e4620f424082611582565b9a9950505050505050505050565b60008034116105545760405162461bcd60e51b815260206004820152602360248201527f5374616b6520616d6f756e74206d75737420626520677265617465722074686160448201526206e20360ec1b60648201526084015b60405180910390fd5b4283116105a35760405162461bcd60e51b815260206004820152601e60248201527f446561646c696e65206d75737420626520696e20746865206675747572650000604482015260640161054b565b600082116106015760405162461bcd60e51b815260206004820152602560248201527f457374696d617465642070616365206d75737420626520677265617465722074604482015264068616e20360dc1b606482015260840161054b565b6040516bffffffffffffffffffffffff193360601b16602082015242603482015244605482015260009060740160405160208183030381529060405280519060200120905060006106648760000151886020015188600001518960200151610490565b9050604051806101a00160405280336001600160a01b031681526020013481526020014281526020018681526020018881526020018781526020018281526020018581526020016000151581526020016000151581526020016000815260200160008152602001600081525060008084815260200190815260200160002060008201518160000160006101000a8154816001600160a01b0302191690836001600160a01b0316021790555060208201518160010155604082015181600201556060820151816003015560808201518160040160008201518160000155602082015181600101556040820151816002015560608201518160030155505060a08201518160080160008201518160000155602082015181600101556040820151816002015560608201518160030155505060c082015181600c015560e082015181600d015561010082015181600e0160006101000a81548160ff02191690831515021790555061012082015181600e0160016101000a81548160ff02191690831515021790555061014082015181600f015561016082015181601001556101808201518160110155905050336001600160a01b0316827f2ab4d5a74b3917397a7ab399780894f3915d63c66fa75d64882ba219fea5610034888b8b60405161084d94939291906115b0565b60405180910390a35095945050505050565b600082815260208190526040902080546001600160a01b03166108c05760405162461bcd60e51b815260206004820152601960248201527810dbdb5b5a5d1b595b9d08191bd95cc81b9bdd08195e1a5cdd603a1b604482015260640161054b565b600e81015460ff16156109155760405162461bcd60e51b815260206004820152601c60248201527f436f6d6d69746d656e7420616c72656164792066756c66696c6c656400000000604482015260640161054b565b80546001600160a01b0316331461097a5760405162461bcd60e51b815260206004820152602360248201527f4f6e6c7920636f6d6d69746d656e742063726561746f722063616e2066756c666044820152621a5b1b60ea1b606482015260840161054b565b600e8101805460ff1916600117905542600f8201819055600382015483516020850151600885015460098601549390941115936000936109bc93929190610490565b905060648111158280156109cd5750805b600e8501805461ff0019166101009215158302179081905560009160ff91041615610a9f57506001840154601185015415610a14576011850154610a11908261161d565b90505b84546040516001600160a01b039091169082156108fc029083906000818181858888f19350505050158015610a4d573d6000803e3d6000fd5b5084546001600160a01b0316600090815260016020526040902054610a809061271090610a7b90606461161d565b611118565b85546001600160a01b0316600090815260016020526040902055610b9a565b60008560100154118015610ab7575060008560110154115b15610b4c57600085601001548660010154610ad2919061161d565b9050600086601101548760100154610aea919061161d565b828860110154610afa9190611630565b610b049190611647565b6003549091506001600160a01b03166108fc610b20838561165b565b6040518115909202916000818181858888f19350505050158015610b48573d6000803e3d6000fd5b5050505b84546001600160a01b0316600090815260016020526040902054610b7f906103e890610b7a9060649061165b565b61112e565b85546001600160a01b03166000908152600160205260409020555b8454600e8601546040805161010090920460ff161515825242602083015281018390526001600160a01b039091169088907f70ca586fcb861ba47586fa95a762bf13c4e13aee7699711ac3d3adb0ef7673f99060600160405180910390a350505050505050565b610c0961113d565b506000908152602081815260409182902082516101a08101845281546001600160a01b03168152600182015481840152600282015481850152600382015460608083019190915284516080818101875260048501548252600585015482870152600685015482880152600785015482840152808401919091528551908101865260088401548152600984015494810194909452600a83015494840194909452600b8201549383019390935260a0830191909152600c81015460c0830152600d81015460e0830152600e81015460ff808216151561010080860191909152909104161515610120830152600f81015461014083015260108101546101608301526011015461018082015290565b600082815260208190526040902080546001600160a01b0316610d765760405162461bcd60e51b815260206004820152601960248201527810dbdb5b5a5d1b595b9d08191bd95cc81b9bdd08195e1a5cdd603a1b604482015260640161054b565b600e81015460ff1615610dcb5760405162461bcd60e51b815260206004820152601c60248201527f436f6d6d69746d656e7420616c72656164792066756c66696c6c656400000000604482015260640161054b565b80600301544210610e1e5760405162461bcd60e51b815260206004820152601a60248201527f436f6d6d69746d656e7420646561646c696e6520706173736564000000000000604482015260640161054b565b60003411610e785760405162461bcd60e51b815260206004820152602160248201527f42657420616d6f756e74206d7573742062652067726561746572207468616e206044820152600360fc1b606482015260840161054b565b80546001600160a01b03163303610edb5760405162461bcd60e51b815260206004820152602160248201527f43616e6e6f7420626574206f6e20796f7572206f776e20636f6d6d69746d656e6044820152601d60fa1b606482015260840161054b565b600083815260026020908152604080832033845290915290205460ff1615610f535760405162461bcd60e51b815260206004820152602560248201527f416c726561647920706c6163656420626574206f6e207468697320636f6d6d696044820152641d1b595b9d60da1b606482015260840161054b565b60008381526002602090815260408083203384529091529020805460ff191660011790558115610f9c5734816010016000828254610f91919061161d565b90915550610fb69050565b34816011016000828254610fb0919061161d565b90915550505b604080513481528315156020820152339185917fd16174e715659dbd1a7c4b7325dc4def5852b62256790341072d1bd59758849c910160405180910390a3505050565b6001600160a01b038116600090815260016020526040812054808203611023575061138892915050565b92915050565b60006110358284611630565b9392505050565b6003546001600160a01b031633146110a05760405162461bcd60e51b815260206004820152602160248201527f4f6e6c79206f776e65722063616e2063616c6c20746869732066756e6374696f6044820152603760f91b606482015260840161054b565b6001600160a01b0381166110f65760405162461bcd60e51b815260206004820152601d60248201527f4e6577206f776e657220697320746865207a65726f2061646472657373000000604482015260640161054b565b600380546001600160a01b0319166001600160a01b0392909216919091179055565b60008183106111275781611035565b5090919050565b60008183116111275781611035565b604051806101a0016040528060006001600160a01b031681526020016000815260200160008152602001600081526020016111996040518060800160405280600081526020016000815260200160008152602001600081525090565b81526020016111c96040518060800160405280600081526020016000815260200160008152602001600081525090565b815260200160008152602001600081526020016000151581526020016000151581526020016000815260200160008152602001600081525090565b6000806000806080858703121561121a57600080fd5b5050823594602084013594506040840135936060013592509050565b60006080828403121561124857600080fd5b6040516080810181811067ffffffffffffffff8211171561127957634e487b7160e01b600052604160045260246000fd5b6040908152833582526020808501359083015283810135908201526060928301359281019290925250919050565b60008060008061014085870312156112be57600080fd5b6112c88686611236565b93506112d78660808701611236565b939693955050505061010082013591610120013590565b80356001600160a01b038116811461130557600080fd5b919050565b6000806040838503121561131d57600080fd5b8235915061132d602084016112ee565b90509250929050565b60008060a0838503121561134957600080fd5b8235915061132d8460208501611236565b60006020828403121561136c57600080fd5b5035919050565b81516001600160a01b03168152610260810160208301516020830152604083015160408301526060830151606083015260808301516113d66080840182805182526020810151602083015260408101516040830152606081015160608301525050565b5060a083015180516101008401526020810151610120840152604081015161014084015260608101516101608401525060c083015161018083015260e08301516101a08301526101008301518015156101c0840152506101208301518015156101e084015250610140830151610200830152610160830151610220830152610180909201516102409091015290565b6000806040838503121561147857600080fd5b823591506020830135801515811461148f57600080fd5b809150509250929050565b6000602082840312156114ac57600080fd5b611035826112ee565b600080604083850312156114c857600080fd5b50508035926020909101359150565b634e487b7160e01b600052601160045260246000fd5b818103600083128015838313168383128216171561150d5761150d6114d7565b5092915050565b80820260008212600160ff1b84141615611530576115306114d7565b8181058314821517611023576110236114d7565b8082018281126000831280158216821582161715611564576115646114d7565b505092915050565b634e487b7160e01b600052601260045260246000fd5b6000826115915761159161156c565b600160ff1b8214600019841416156115ab576115ab6114d7565b500590565b8481526020810184905261014081016115ed6040830185805182526020810151602083015260408101516040830152606081015160608301525050565b825160c0830152602083015160e08301526040830151610100830152606083015161012083015295945050505050565b80820180821115611023576110236114d7565b8082028115828204841417611023576110236114d7565b6000826116565761165661156c565b500490565b81810381811115611023576110236114d756fea2646970667358221220195d10ce36edffb87dd7365139253caa07bc9d4c9e82f2413a47f284ea7f278f64736f6c634300081e0033",
  "linkReferences": {},
  "deployedLinkReferences": {}
}