{
  "_format": "hh-sol-artifact-1",
  "contractName": "PunctualityCore",
  "sourceName": "contracts/hardhat/PunctualityCore.sol",
  "abi": [
    {
      "inputs": [],
      "stateMutability": "nonpayable",
      "type": "constructor"
    },
    {
      "anonymous": false,
      "inputs": [
        {
          "indexed": true,
          "internalType": "bytes32",
          "name": "commitmentId",
          "type": "bytes32"
        },
        {
          "indexed": true,
          "internalType": "address",
          "name": "bettor",
          "type": "address"
        },
        {
          "indexed": false,
          "internalType": "uint256",
          "name": "betAmount",
          "type": "uint256"
        },
        {
          "indexed": false,
          "internalType": "bool",
          "name": "bettingFor",
          "type": "bool"
        }
      ],
      "name": "BetPlaced",
      "type": "event"
    },
    {
      "anonymous": false,
      "inputs": [
        {
          "indexed": true,
          "internalType": "bytes32",
          "name": "commitmentId",
          "type": "bytes32"
        },
        {
          "indexed": true,
          "internalType": "address",
          "name": "user",
          "type": "address"
        },
        {
          "indexed": false,
          "internalType": "uint256",
          "name": "stakeAmount",
          "type": "uint256"
        },
        {
          "indexed": false,
          "internalType": "uint256",
          "name": "arrivalDeadline",
          "type": "uint256"
        },
        {
          "components": [
            {
              "internalType": "int256",
              "name": "latitude",
              "type": "int256"
            },
            {
              "internalType": "int256",
              "name": "longitude",
              "type": "int256"
            },
            {
              "internalType": "uint256",
              "name": "accuracy",
              "type": "uint256"
            },
            {
              "internalType": "uint256",
              "name": "timestamp",
              "type": "uint256"
            }
          ],
          "indexed": false,
          "internalType": "struct PunctualityCore.LocationData",
          "name": "startLocation",
          "type": "tuple"
        },
        {
          "components": [
            {
              "internalType": "int256",
              "name": "latitude",
              "type": "int256"
            },
            {
              "internalType": "int256",
              "name": "longitude",
              "type": "int256"
            },
            {
              "internalType": "uint256",
              "name": "accuracy",
              "type": "uint256"
            },
            {
              "internalType": "uint256",
              "name": "timestamp",
              "type": "uint256"
            }
          ],
          "indexed": false,
          "internalType": "struct PunctualityCore.LocationData",
          "name": "targetLocation",
          "type": "tuple"
        }
      ],
      "name": "CommitmentCreated",
      "type": "event"
    },
    {
      "anonymous": false,
      "inputs": [
        {
          "indexed": true,
          "internalType": "bytes32",
          "name": "commitmentId",
          "type": "bytes32"
        },
        {
          "indexed": true,
          "internalType": "address",
          "name": "user",
          "type": "address"
        },
        {
          "indexed": false,
          "internalType": "bool",
          "name": "successful",
          "type": "bool"
        },
        {
          "indexed": false,
          "internalType": "uint256",
          "name": "actualArrivalTime",
          "type": "uint256"
        },
        {
          "indexed": false,
          "internalType": "uint256",
          "name": "rewardAmount",
          "type": "uint256"
        }
      ],
      "name": "CommitmentFulfilled",
      "type": "event"
    },
    {
      "inputs": [],
      "name": "EARTH_RADIUS_METERS",
      "outputs": [
        {
          "internalType": "uint256",
          "name": "",
          "type": "uint256"
        }
      ],
      "stateMutability": "view",
      "type": "function"
    },
    {
      "inputs": [],
      "name": "INITIAL_REPUTATION",
      "outputs": [
        {
          "internalType": "uint256",
          "name": "",
          "type": "uint256"
        }
      ],
      "stateMutability": "view",
      "type": "function"
    },
    {
      "inputs": [],
      "name": "PROTOCOL_FEE",
      "outputs": [
        {
          "internalType": "uint256",
          "name": "",
          "type": "uint256"
        }
      ],
      "stateMutability": "view",
      "type": "function"
    },
    {
      "inputs": [
        {
          "internalType": "int256",
          "name": "lat1",
          "type": "int256"
        },
        {
          "internalType": "int256",
          "name": "lon1",
          "type": "int256"
        },
        {
          "internalType": "int256",
          "name": "lat2",
          "type": "int256"
        },
        {
          "internalType": "int256",
          "name": "lon2",
          "type": "int256"
        }
      ],
      "name": "calculateDistance",
      "outputs": [
        {
          "internalType": "uint256",
          "name": "",
          "type": "uint256"
        }
      ],
      "stateMutability": "pure",
      "type": "function"
    },
    {
      "inputs": [
        {
          "internalType": "uint256",
          "name": "distance",
          "type": "uint256"
        },
        {
          "internalType": "uint256",
          "name": "pace",
          "type": "uint256"
        }
      ],
      "name": "calculateETA",
      "outputs": [
        {
          "internalType": "uint256",
          "name": "",
          "type": "uint256"
        }
      ],
      "stateMutability": "pure",
      "type": "function"
    },
    {
      "inputs": [
        {
          "internalType": "address",
          "name": "user",
          "type": "address"
        }
      ],
      "name": "calculateReputationScore",
      "outputs": [
        {
          "internalType": "uint256",
          "name": "",
          "type": "uint256"
        }
      ],
      "stateMutability": "view",
      "type": "function"
    },
    {
      "inputs": [
        {
          "internalType": "bytes32",
          "name": "",
          "type": "bytes32"
        },
        {
          "internalType": "uint256",
          "name": "",
          "type": "uint256"
        }
      ],
      "name": "commitmentBets",
      "outputs": [
        {
          "internalType": "address",
          "name": "bettor",
          "type": "address"
        },
        {
          "internalType": "uint256",
          "name": "amount",
          "type": "uint256"
        },
        {
          "internalType": "bool",
          "name": "bettingFor",
          "type": "bool"
        },
        {
          "internalType": "bool",
          "name": "claimed",
          "type": "bool"
        }
      ],
      "stateMutability": "view",
      "type": "function"
    },
    {
      "inputs": [
        {
          "internalType": "bytes32",
          "name": "",
          "type": "bytes32"
        }
      ],
      "name": "commitments",
      "outputs": [
        {
          "internalType": "address",
          "name": "user",
          "type": "address"
        },
        {
          "internalType": "uint256",
          "name": "stakeAmount",
          "type": "uint256"
        },
        {
          "internalType": "uint256",
          "name": "commitmentTime",
          "type": "uint256"
        },
        {
          "internalType": "uint256",
          "name": "arrivalDeadline",
          "type": "uint256"
        },
        {
          "components": [
            {
              "internalType": "int256",
              "name": "latitude",
              "type": "int256"
            },
            {
              "internalType": "int256",
              "name": "longitude",
              "type": "int256"
            },
            {
              "internalType": "uint256",
              "name": "accuracy",
              "type": "uint256"
            },
            {
              "internalType": "uint256",
              "name": "timestamp",
              "type": "uint256"
            }
          ],
          "internalType": "struct PunctualityCore.LocationData",
          "name": "startLocation",
          "type": "tuple"
        },
        {
          "components": [
            {
              "internalType": "int256",
              "name": "latitude",
              "type": "int256"
            },
            {
              "internalType": "int256",
              "name": "longitude",
              "type": "int256"
            },
            {
              "internalType": "uint256",
              "name": "accuracy",
              "type": "uint256"
            },
            {
              "internalType": "uint256",
              "name": "timestamp",
              "type": "uint256"
            }
          ],
          "internalType": "struct PunctualityCore.LocationData",
          "name": "targetLocation",
          "type": "tuple"
        },
        {
          "internalType": "uint256",
          "name": "estimatedDistance",
          "type": "uint256"
        },
        {
          "internalType": "uint256",
          "name": "estimatedPace",
          "type": "uint256"
        },
        {
          "internalType": "bool",
          "name": "fulfilled",
          "type": "bool"
        },
        {
          "internalType": "bool",
          "name": "successful",
          "type": "bool"
        },
        {
          "internalType": "uint256",
          "name": "actualArrivalTime",
          "type": "uint256"
        },
        {
          "internalType": "uint256",
          "name": "totalBetsFor",
          "type": "uint256"
        },
        {
          "internalType": "uint256",
          "name": "totalBetsAgainst",
          "type": "uint256"
        }
      ],
      "stateMutability": "view",
      "type": "function"
    },
    {
      "inputs": [
        {
          "components": [
            {
              "internalType": "int256",
              "name": "latitude",
              "type": "int256"
            },
            {
              "internalType": "int256",
              "name": "longitude",
              "type": "int256"
            },
            {
              "internalType": "uint256",
              "name": "accuracy",
              "type": "uint256"
            },
            {
              "internalType": "uint256",
              "name": "timestamp",
              "type": "uint256"
            }
          ],
          "internalType": "struct PunctualityCore.LocationData",
          "name": "startLocation",
          "type": "tuple"
        },
        {
          "components": [
            {
              "internalType": "int256",
              "name": "latitude",
              "type": "int256"
            },
            {
              "internalType": "int256",
              "name": "longitude",
              "type": "int256"
            },
            {
              "internalType": "uint256",
              "name": "accuracy",
              "type": "uint256"
            },
            {
              "internalType": "uint256",
              "name": "timestamp",
              "type": "uint256"
            }
          ],
          "internalType": "struct PunctualityCore.LocationData",
          "name": "targetLocation",
          "type": "tuple"
        },
        {
          "internalType": "uint256",
          "name": "arrivalDeadline",
          "type": "uint256"
        },
        {
          "internalType": "uint256",
          "name": "estimatedPace",
          "type": "uint256"
        }
      ],
      "name": "createCommitment",
      "outputs": [
        {
          "internalType": "bytes32",
          "name": "",
          "type": "bytes32"
        }
      ],
      "stateMutability": "payable",
      "type": "function"
    },
    {
      "inputs": [
        {
          "internalType": "bytes32",
          "name": "commitmentId",
          "type": "bytes32"
        },
        {
          "components": [
            {
              "internalType": "int256",
              "name": "latitude",
              "type": "int256"
            },
            {
              "internalType": "int256",
              "name": "longitude",
              "type": "int256"
            },
            {
              "internalType": "uint256",
              "name": "accuracy",
              "type": "uint256"
            },
            {
              "internalType": "uint256",
              "name": "timestamp",
              "type": "uint256"
            }
          ],
          "internalType": "struct PunctualityCore.LocationData",
          "name": "arrivalLocation",
          "type": "tuple"
        }
      ],
      "name": "fulfillCommitment",
      "outputs": [],
      "stateMutability": "nonpayable",
      "type": "function"
    },
    {
      "inputs": [
        {
          "internalType": "bytes32",
          "name": "commitmentId",
          "type": "bytes32"
        }
      ],
      "name": "getCommitment",
      "outputs": [
        {
          "components": [
            {
              "internalType": "address",
              "name": "user",
              "type": "address"
            },
            {
              "internalType": "uint256",
              "name": "stakeAmount",
              "type": "uint256"
            },
            {
              "internalType": "uint256",
              "name": "commitmentTime",
              "type": "uint256"
            },
            {
              "internalType": "uint256",
              "name": "arrivalDeadline",
              "type": "uint256"
            },
            {
              "components": [
                {
                  "internalType": "int256",
                  "name": "latitude",
                  "type": "int256"
                },
                {
                  "internalType": "int256",
                  "name": "longitude",
                  "type": "int256"
                },
                {
                  "internalType": "uint256",
                  "name": "accuracy",
                  "type": "uint256"
                },
                {
                  "internalType": "uint256",
                  "name": "timestamp",
                  "type": "uint256"
                }
              ],
              "internalType": "struct PunctualityCore.LocationData",
              "name": "startLocation",
              "type": "tuple"
            },
            {
              "components": [
                {
                  "internalType": "int256",
                  "name": "latitude",
                  "type": "int256"
                },
                {
                  "internalType": "int256",
                  "name": "longitude",
                  "type": "int256"
                },
                {
                  "internalType": "uint256",
                  "name": "accuracy",
                  "type": "uint256"
                },
                {
                  "internalType": "uint256",
                  "name": "timestamp",
                  "type": "uint256"
                }
              ],
              "internalType": "struct PunctualityCore.LocationData",
              "name": "targetLocation",
              "type": "tuple"
            },
            {
              "internalType": "uint256",
              "name": "estimatedDistance",
              "type": "uint256"
            },
            {
              "internalType": "uint256",
              "name": "estimatedPace",
              "type": "uint256"
            },
            {
              "internalType": "bool",
              "name": "fulfilled",
              "type": "bool"
            },
            {
              "internalType": "bool",
              "name": "successful",
              "type": "bool"
            },
            {
              "internalType": "uint256",
              "name": "actualArrivalTime",
              "type": "uint256"
            },
            {
              "internalType": "uint256",
              "name": "totalBetsFor",
              "type": "uint256"
            },
            {
              "internalType": "uint256",
              "name": "totalBetsAgainst",
              "type": "uint256"
            }
          ],
          "internalType": "struct PunctualityCore.ETACommitment",
          "name": "",
          "type": "tuple"
        }
      ],
      "stateMutability": "view",
      "type": "function"
    },
    {
      "inputs": [
        {
          "internalType": "address",
          "name": "user",
          "type": "address"
        }
      ],
      "name": "getUserReputation",
      "outputs": [
        {
          "internalType": "uint256",
          "name": "",
          "type": "uint256"
        }
      ],
      "stateMutability": "view",
      "type": "function"
    },
    {
      "inputs": [],
      "name": "owner",
      "outputs": [
        {
          "internalType": "address",
          "name": "",
          "type": "address"
        }
      ],
      "stateMutability": "view",
      "type": "function"
    },
    {
      "inputs": [
        {
          "internalType": "bytes32",
          "name": "commitmentId",
          "type": "bytes32"
        },
        {
          "internalType": "bool",
          "name": "bettingFor",
          "type": "bool"
        }
      ],
      "name": "placeBet",
      "outputs": [],
      "stateMutability": "payable",
      "type": "function"
    },
    {
      "inputs": [],
      "name": "protocolFeeBalance",
      "outputs": [
        {
          "internalType": "uint256",
          "name": "",
          "type": "uint256"
        }
      ],
      "stateMutability": "view",
      "type": "function"
    },
    {
      "inputs": [
        {
          "internalType": "address",
          "name": "",
          "type": "address"
        }
      ],
      "name": "userReputationScore",
      "outputs": [
        {
          "internalType": "uint256",
          "name": "",
          "type": "uint256"
        }
      ],
      "stateMutability": "view",
      "type": "function"
    },
    {
      "inputs": [
        {
          "internalType": "address",
          "name": "",
          "type": "address"
        }
      ],
      "name": "userSuccessfulCommitments",
      "outputs": [
        {
          "internalType": "uint256",
          "name": "",
          "type": "uint256"
        }
      ],
      "stateMutability": "view",
      "type": "function"
    },
    {
      "inputs": [
        {
          "internalType": "address",
          "name": "",
          "type": "address"
        }
      ],
      "name": "userTotalCommitments",
      "outputs": [
        {
          "internalType": "uint256",
          "name": "",
          "type": "uint256"
        }
      ],
      "stateMutability": "view",
      "type": "function"
    },
    {
      "inputs": [
        {
          "internalType": "address",
          "name": "",
          "type": "address"
        }
      ],
      "name": "userTotalStaked",
      "outputs": [
        {
          "internalType": "uint256",
          "name": "",
          "type": "uint256"
        }
      ],
      "stateMutability": "view",
      "type": "function"
    },
    {
      "inputs": [],
      "name": "withdrawProtocolFees",
      "outputs": [],
      "stateMutability": "nonpayable",
      "type": "function"
    }
  ],
  "bytecode": "0x608060405234801561001057600080fd5b50600680546001600160a01b03191633179055611b45806100326000396000f3fe60806040526004361061011f5760003560e01c80638795cccb116100a0578063baccbfdb11610064578063baccbfdb146104bf578063cab7a45d146104df578063de0c13ca146104ff578063f541d8901461052c578063f873eeab1461055957600080fd5b80638795cccb146103e05780638da5cb5b146103f55780639af9338d1461042d578063b118174d1461045a578063b162c6e6146104ac57600080fd5b8063581ac32d116100e7578063581ac32d146101b5578063719de1ef146101d75780637795820c146102045780637b05725814610231578063839df9451461024757600080fd5b80630a22d68c146101245780630a8fa8251461014d5780630b4501fd1461016d5780631271852514610182578063192aa9cf146101a2575b600080fd5b34801561013057600080fd5b5061013a60075481565b6040519081526020015b60405180910390f35b34801561015957600080fd5b5061013a61016836600461169b565b610570565b34801561017957600080fd5b5061013a60fa81565b34801561018e57600080fd5b5061013a61019d3660046116c4565b610619565b61013a6101b036600461176a565b6106c1565b3480156101c157600080fd5b506101d56101d03660046117b1565b610aa2565b005b3480156101e357600080fd5b5061013a6101f236600461169b565b60036020526000908152604090205481565b34801561021057600080fd5b5061022461021f3660046117de565b610d26565b60405161014491906117f7565b34801561023d57600080fd5b5061013a611d4c81565b34801561025357600080fd5b5061032c6102623660046117de565b600060208181529181526040908190208054600182015460028301546003840154855160808082018852600487015482526005870154828a015260068701548289015260078701546060808401919091528851918201895260088801548252600988015499820199909952600a87015497810197909752600b86015497870197909752600c850154600d860154600e870154600f88015460108901546011909901546001600160a01b039098169a9699959894979394929360ff808416946101009094041692908d565b604080516001600160a01b03909e168e526020808f019d909d528d81019b909b526060808e019a909a52885160808e01528b89015160a08e0152888b015160c08e01529789015160e08d015286516101008d0152998601516101208c0152978501516101408b015295909301516101608901526101808801919091526101a087015215156101c08601529015156101e085015261020084019190915261022083019190915261024082015261026001610144565b3480156103ec57600080fd5b506101d5610e3a565b34801561040157600080fd5b50600654610415906001600160a01b031681565b6040516001600160a01b039091168152602001610144565b34801561043957600080fd5b5061013a61044836600461169b565b60056020526000908152604090205481565b34801561046657600080fd5b5061047a6104753660046118f2565b610ee8565b604080516001600160a01b03909516855260208501939093529015159183019190915215156060820152608001610144565b6101d56104ba366004611914565b610f40565b3480156104cb57600080fd5b5061013a6104da36600461169b565b61125b565b3480156104eb57600080fd5b5061013a6104fa3660046118f2565b6112a1565b34801561050b57600080fd5b5061013a61051a36600461169b565b60046020526000908152604090205481565b34801561053857600080fd5b5061013a61054736600461169b565b60026020526000908152604090205481565b34801561056557600080fd5b5061013a626136b881565b6001600160a01b03811660009081526005602052604081205480820361059a5750611d4c92915050565b6001600160a01b03831660009081526004602052604081205490826105c18361271061195f565b6105cb919061198c565b905080600a83106105e5576105e26101f4826119a0565b90505b603283106105fc576105f96101f4826119a0565b90505b612710811161060b578061060f565b6127105b9695505050505050565b600080621b774061062a87866119b3565b61063690617ab86119da565b6106409190611a0a565b90506000621b774061065287866119b3565b61065e90617ab86119da565b6106689190611a0a565b90506000620f424061067a83806119da565b61068485806119da565b61068e9190611a38565b6106989190611a0a565b9050620f42406106ab626136b88361195f565b6106b5919061198c565b98975050505050505050565b60008034116107235760405162461bcd60e51b815260206004820152602360248201527f5374616b6520616d6f756e74206d75737420626520677265617465722074686160448201526206e20360ec1b60648201526084015b60405180910390fd5b4283116107725760405162461bcd60e51b815260206004820152601e60248201527f446561646c696e65206d75737420626520696e20746865206675747572650000604482015260640161071a565b600082116107c25760405162461bcd60e51b815260206004820152601b60248201527f50616365206d7573742062652067726561746572207468616e20300000000000604482015260640161071a565b60006107e08660000151876020015187600001518860200151610619565b86516020808901518851898301516040516bffffffffffffffffffffffff193360601b169481019490945242603485015260548401949094526074830191909152609482015260b481019190915290915060009060d401604051602081830303815290604052805190602001209050604051806101a00160405280336001600160a01b031681526020013481526020014281526020018681526020018881526020018781526020018381526020018581526020016000151581526020016000151581526020016000815260200160008152602001600081525060008083815260200190815260200160002060008201518160000160006101000a8154816001600160a01b0302191690836001600160a01b0316021790555060208201518160010155604082015181600201556060820151816003015560808201518160040160008201518160000155602082015181600101556040820151816002015560608201518160030155505060a08201518160080160008201518160000155602082015181600101556040820151816002015560608201518160030155505060c082015181600c015560e082015181600d015561010082015181600e0160006101000a81548160ff02191690831515021790555061012082015181600e0160016101000a81548160ff02191690831515021790555061014082015181600f0155610160820151816010015561018082015181601101559050503460036000336001600160a01b03166001600160a01b031681526020019081526020016000206000828254610a2b91906119a0565b9091555050336000908152600560205260408120805491610a4b83611a60565b9190505550336001600160a01b0316817f2ab4d5a74b3917397a7ab399780894f3915d63c66fa75d64882ba219fea5610034888b8b604051610a909493929190611a79565b60405180910390a39695505050505050565b60008281526020819052604090205482906001600160a01b0316610b045760405162461bcd60e51b815260206004820152601960248201527810dbdb5b5a5d1b595b9d08191bd95cc81b9bdd08195e1a5cdd603a1b604482015260640161071a565b600083815260208190526040902080546001600160a01b03163314610b775760405162461bcd60e51b815260206004820152602360248201527f4f6e6c7920636f6d6d69746d656e742063726561746f722063616e2066756c666044820152621a5b1b60ea1b606482015260840161071a565b600e81015460ff1615610bcc5760405162461bcd60e51b815260206004820152601c60248201527f436f6d6d69746d656e7420616c72656164792066756c66696c6c656400000000604482015260640161071a565b6000610bf08260080160000154836008016001015486600001518760200151610619565b90506064811115610c4f5760405162461bcd60e51b8152602060048201526024808201527f4172726976616c206c6f636174696f6e20746f6f206661722066726f6d2074616044820152631c99d95d60e21b606482015260840161071a565b6003820154600e8301805461010042938411801591820261ffff1990931692909217600117909255600f85019290925590610cbe57336000908152600460205260408120805491610c9f83611a60565b9190505550610cad33610570565b336000908152600260205260409020555b610cc7866112c2565b33867f70ca586fcb861ba47586fa95a762bf13c4e13aee7699711ac3d3adb0ef7673f9834281610cf8576000610cfe565b87600101545b60408051931515845260208401929092529082015260600160405180910390a3505050505050565b610d2e6115d4565b506000908152602081815260409182902082516101a08101845281546001600160a01b03168152600182015481840152600282015481850152600382015460608083019190915284516080818101875260048501548252600585015482870152600685015482880152600785015482840152808401919091528551908101865260088401548152600984015494810194909452600a83015494840194909452600b8201549383019390935260a0830191909152600c81015460c0830152600d81015460e0830152600e81015460ff808216151561010080860191909152909104161515610120830152600f81015461014083015260108101546101608301526011015461018082015290565b6006546001600160a01b03163314610e9f5760405162461bcd60e51b815260206004820152602260248201527f4f6e6c79206f776e65722063616e20706572666f726d2074686973206163746960448201526137b760f11b606482015260840161071a565b6007805460009182905560065460405191926001600160a01b039091169183156108fc0291849190818181858888f19350505050158015610ee4573d6000803e3d6000fd5b5050565b60016020528160005260406000208181548110610f0457600080fd5b60009182526020909120600390910201805460018201546002909201546001600160a01b03909116935090915060ff8082169161010090041684565b60008281526020819052604090205482906001600160a01b0316610fa25760405162461bcd60e51b815260206004820152601960248201527810dbdb5b5a5d1b595b9d08191bd95cc81b9bdd08195e1a5cdd603a1b604482015260640161071a565b60003411610ffc5760405162461bcd60e51b815260206004820152602160248201527f42657420616d6f756e74206d7573742062652067726561746572207468616e206044820152600360fc1b606482015260840161071a565b6000838152602081905260409020600e015460ff161561105e5760405162461bcd60e51b815260206004820152601c60248201527f436f6d6d69746d656e7420616c72656164792066756c66696c6c656400000000604482015260640161071a565b600083815260208190526040902054336001600160a01b03909116036110c65760405162461bcd60e51b815260206004820152601c60248201527f43616e6e6f7420626574206f6e206f776e20636f6d6d69746d656e7400000000604482015260640161071a565b60008381526020819052604090206003015442106111265760405162461bcd60e51b815260206004820152601960248201527f43616e6e6f742062657420616674657220646561646c696e6500000000000000604482015260640161071a565b6000838152600160208181526040808420815160808101835233815234818501908152881580159483019485526060830188815284548089018655948952959097209151600390930290910180546001600160a01b0319166001600160a01b0390931692909217825551938101939093555160029092018054915161ffff1990921692151561ff00191692909217610100911515919091021790556111f157600083815260208190526040812060100180543492906111e69084906119a0565b909155506112189050565b600083815260208190526040812060110180543492906112129084906119a0565b90915550505b604080513481528315156020820152339185917fd16174e715659dbd1a7c4b7325dc4def5852b62256790341072d1bd59758849c910160405180910390a3505050565b6001600160a01b03811660009081526002602052604081205415611297576001600160a01b03821660009081526002602052604090205461129b565b611d4c5b92915050565b6000620274a66112b1838561195f565b6112bb919061198c565b9392505050565b60008181526020819052604081206001810154909190612710906112e89060fa9061195f565b6112f2919061198c565b600e830154909150610100900460ff16156113bb5760008183600101546113199190611ae6565b6011840154909150801561135b57600061271061133760fa8461195f565b611341919061198c565b61134b9083611ae6565b905061135781846119a0565b9250505b83546040516001600160a01b039091169083156108fc029084906000818181858888f19350505050158015611394573d6000803e3d6000fd5b506113b4856001866011015487601001546113af91906119a0565b611400565b50506113e4565b6113e48360008460110154856010015486600101546113da91906119a0565b6113af91906119a0565b80600760008282546113f691906119a0565b9091555050505050565b6000838152600160205260408120908361142b5760008581526020819052604090206011015461143e565b6000858152602081905260409020601001545b90508060000361144f575050505050565b60005b82548110156115cc5784151583828154811061147057611470611af9565b600091825260209091206002600390920201015460ff1615151480156114c457508281815481106114a3576114a3611af9565b906000526020600020906003020160020160019054906101000a900460ff16155b156115c457600082858584815481106114df576114df611af9565b9060005260206000209060030201600101546114fb919061195f565b611505919061198c565b9050600061271061151760fa8461195f565b611521919061198c565b61152b9083611ae6565b9050600185848154811061154157611541611af9565b906000526020600020906003020160020160016101000a81548160ff02191690831515021790555084838154811061157b5761157b611af9565b600091825260208220600390910201546040516001600160a01b039091169183156108fc02918491818181858888f193505050501580156115c0573d6000803e3d6000fd5b5050505b600101611452565b505050505050565b604051806101a0016040528060006001600160a01b031681526020016000815260200160008152602001600081526020016116306040518060800160405280600081526020016000815260200160008152602001600081525090565b81526020016116606040518060800160405280600081526020016000815260200160008152602001600081525090565b815260200160008152602001600081526020016000151581526020016000151581526020016000815260200160008152602001600081525090565b6000602082840312156116ad57600080fd5b81356001600160a01b03811681146112bb57600080fd5b600080600080608085870312156116da57600080fd5b5050823594602084013594506040840135936060013592509050565b60006080828403121561170857600080fd5b6040516080810181811067ffffffffffffffff8211171561173957634e487b7160e01b600052604160045260246000fd5b8060405250809150823581526020830135602082015260408301356040820152606083013560608201525092915050565b600080600080610140858703121561178157600080fd5b61178b86866116f6565b935061179a86608087016116f6565b939693955050505061010082013591610120013590565b60008060a083850312156117c457600080fd5b823591506117d584602085016116f6565b90509250929050565b6000602082840312156117f057600080fd5b5035919050565b81516001600160a01b031681526102608101602083015160208301526040830151604083015260608301516060830152608083015161185a6080840182805182526020810151602083015260408101516040830152606081015160608301525050565b5060a083015180516101008481019190915260208201516101208501526040820151610140850152606082015161016085015260c08501516101808581019190915260e08601516101a0860152818601518015156101c087015292506101208601518015156101e087015292506101408601516102008601526101608601516102208601528086015161024086015250505092915050565b6000806040838503121561190557600080fd5b50508035926020909101359150565b6000806040838503121561192757600080fd5b823591506020830135801515811461193e57600080fd5b809150509250929050565b634e487b7160e01b600052601160045260246000fd5b808202811582820484141761129b5761129b611949565b634e487b7160e01b600052601260045260246000fd5b60008261199b5761199b611976565b500490565b8082018082111561129b5761129b611949565b81810360008312801583831316838312821617156119d3576119d3611949565b5092915050565b80820260008212600160ff1b841416156119f6576119f6611949565b818105831482151761129b5761129b611949565b600082611a1957611a19611976565b600160ff1b821460001984141615611a3357611a33611949565b500590565b8082018281126000831280158216821582161715611a5857611a58611949565b505092915050565b600060018201611a7257611a72611949565b5060010190565b848152602081018490526101408101611ab66040830185805182526020810151602083015260408101516040830152606081015160608301525050565b825160c0830152602083015160e08301526040830151610100830152606083015161012083015295945050505050565b8181038181111561129b5761129b611949565b634e487b7160e01b600052603260045260246000fdfea264697066735822122007634b3fbfbf659389962d2ab299b76b8889d131b16a79020c8cafd4cc0db97964736f6c63430008160033",
  "linkReferences": {},
  "deployedLinkReferences": {}
}